{"contracts/CrynkEscrowContract.sol":{"CrynkEscrowContract":{"abi":[{"inputs":[{"internalType":"address","name":"_paymentContract","type":"address"},{"internalType":"address","name":"_usdcToken","type":"address"}],"stateMutability":"nonpayable","type":"constructor"},{"anonymous":false,"inputs":[{"indexed":true,"internalType":"bytes32","name":"paymentId","type":"bytes32"},{"indexed":false,"internalType":"uint256","name":"amount","type":"uint256"}],"name":"AutoReleaseExecuted","type":"event"},{"anonymous":false,"inputs":[{"indexed":true,"internalType":"bytes32","name":"paymentId","type":"bytes32"},{"indexed":true,"internalType":"address","name":"user","type":"address"},{"indexed":false,"internalType":"string","name":"reason","type":"string"}],"name":"DisputeRaised","type":"event"},{"anonymous":false,"inputs":[{"indexed":true,"internalType":"bytes32","name":"paymentId","type":"bytes32"},{"indexed":false,"internalType":"bool","name":"inFavorOfUser","type":"bool"},{"indexed":false,"internalType":"address","name":"resolver","type":"address"}],"name":"DisputeResolved","type":"event"},{"anonymous":false,"inputs":[{"indexed":true,"internalType":"bytes32","name":"paymentId","type":"bytes32"},{"indexed":true,"internalType":"address","name":"user","type":"address"},{"indexed":false,"internalType":"uint256","name":"merchantId","type":"uint256"},{"indexed":false,"internalType":"uint256","name":"amount","type":"uint256"}],"name":"FundsDeposited","type":"event"},{"anonymous":false,"inputs":[{"indexed":true,"internalType":"bytes32","name":"paymentId","type":"bytes32"},{"indexed":true,"internalType":"address","name":"user","type":"address"},{"indexed":false,"internalType":"uint256","name":"amount","type":"uint256"}],"name":"FundsRefunded","type":"event"},{"anonymous":false,"inputs":[{"indexed":true,"internalType":"bytes32","name":"paymentId","type":"bytes32"},{"indexed":true,"internalType":"address","name":"merchant","type":"address"},{"indexed":false,"internalType":"uint256","name":"amount","type":"uint256"}],"name":"FundsReleased","type":"event"},{"anonymous":false,"inputs":[{"indexed":true,"internalType":"bytes32","name":"paymentId","type":"bytes32"},{"indexed":true,"internalType":"address","name":"merchant","type":"address"},{"indexed":false,"internalType":"uint256","name":"confirmationTime","type":"uint256"}],"name":"OrderConfirmed","type":"event"},{"anonymous":false,"inputs":[{"indexed":true,"internalType":"address","name":"previousOwner","type":"address"},{"indexed":true,"internalType":"address","name":"newOwner","type":"address"}],"name":"OwnershipTransferred","type":"event"},{"anonymous":false,"inputs":[{"indexed":false,"internalType":"address","name":"account","type":"address"}],"name":"Paused","type":"event"},{"anonymous":false,"inputs":[{"indexed":false,"internalType":"address","name":"account","type":"address"}],"name":"Unpaused","type":"event"},{"inputs":[],"name":"AUTO_RELEASE_PERIOD","outputs":[{"internalType":"uint256","name":"","type":"uint256"}],"stateMutability":"view","type":"function"},{"inputs":[],"name":"DISPUTE_PERIOD","outputs":[{"internalType":"uint256","name":"","type":"uint256"}],"stateMutability":"view","type":"function"},{"inputs":[{"internalType":"address","name":"","type":"address"}],"name":"authorizedMerchants","outputs":[{"internalType":"bool","name":"","type":"bool"}],"stateMutability":"view","type":"function"},{"inputs":[{"internalType":"bytes32","name":"paymentId","type":"bytes32"}],"name":"autoReleaseFunds","outputs":[],"stateMutability":"nonpayable","type":"function"},{"inputs":[{"internalType":"bytes32","name":"paymentId","type":"bytes32"}],"name":"canRaiseDispute","outputs":[{"internalType":"bool","name":"","type":"bool"}],"stateMutability":"view","type":"function"},{"inputs":[{"internalType":"bytes32","name":"paymentId","type":"bytes32"}],"name":"confirmOrderCompletion","outputs":[],"stateMutability":"nonpayable","type":"function"},{"inputs":[{"internalType":"bytes32","name":"paymentId","type":"bytes32"},{"internalType":"address","name":"user","type":"address"},{"internalType":"uint256","name":"merchantId","type":"uint256"},{"internalType":"address","name":"merchantWallet","type":"address"},{"internalType":"uint256","name":"amount","type":"uint256"}],"name":"depositFunds","outputs":[],"stateMutability":"nonpayable","type":"function"},{"inputs":[{"internalType":"address","name":"","type":"address"}],"name":"disputeResolvers","outputs":[{"internalType":"bool","name":"","type":"bool"}],"stateMutability":"view","type":"function"},{"inputs":[{"internalType":"address","name":"token","type":"address"},{"internalType":"uint256","name":"amount","type":"uint256"}],"name":"emergencyRecovery","outputs":[],"stateMutability":"nonpayable","type":"function"},{"inputs":[{"internalType":"bytes32","name":"","type":"bytes32"}],"name":"escrows","outputs":[{"internalType":"bytes32","name":"paymentId","type":"bytes32"},{"internalType":"address","name":"user","type":"address"},{"internalType":"uint256","name":"merchantId","type":"uint256"},{"internalType":"address","name":"merchantWallet","type":"address"},{"internalType":"uint256","name":"amount","type":"uint256"},{"internalType":"uint256","name":"depositTime","type":"uint256"},{"internalType":"uint256","name":"confirmationTime","type":"uint256"},{"internalType":"enum CrynkEscrowContract.EscrowStatus","name":"status","type":"uint8"},{"internalType":"bool","name":"disputeRaised","type":"bool"},{"internalType":"string","name":"disputeReason","type":"string"}],"stateMutability":"view","type":"function"},{"inputs":[{"internalType":"bytes32","name":"paymentId","type":"bytes32"}],"name":"getEscrow","outputs":[{"components":[{"internalType":"bytes32","name":"paymentId","type":"bytes32"},{"internalType":"address","name":"user","type":"address"},{"internalType":"uint256","name":"merchantId","type":"uint256"},{"internalType":"address","name":"merchantWallet","type":"address"},{"internalType":"uint256","name":"amount","type":"uint256"},{"internalType":"uint256","name":"depositTime","type":"uint256"},{"internalType":"uint256","name":"confirmationTime","type":"uint256"},{"internalType":"enum CrynkEscrowContract.EscrowStatus","name":"status","type":"uint8"},{"internalType":"bool","name":"disputeRaised","type":"bool"},{"internalType":"string","name":"disputeReason","type":"string"}],"internalType":"struct CrynkEscrowContract.EscrowRecord","name":"","type":"tuple"}],"stateMutability":"view","type":"function"},{"inputs":[],"name":"owner","outputs":[{"internalType":"address","name":"","type":"address"}],"stateMutability":"view","type":"function"},{"inputs":[],"name":"paused","outputs":[{"internalType":"bool","name":"","type":"bool"}],"stateMutability":"view","type":"function"},{"inputs":[],"name":"paymentContract","outputs":[{"internalType":"address","name":"","type":"address"}],"stateMutability":"view","type":"function"},{"inputs":[{"internalType":"bytes32","name":"paymentId","type":"bytes32"},{"internalType":"string","name":"reason","type":"string"}],"name":"raiseDispute","outputs":[],"stateMutability":"nonpayable","type":"function"},{"inputs":[{"internalType":"bytes32","name":"paymentId","type":"bytes32"}],"name":"releaseFundsAfterDispute","outputs":[],"stateMutability":"nonpayable","type":"function"},{"inputs":[],"name":"renounceOwnership","outputs":[],"stateMutability":"nonpayable","type":"function"},{"inputs":[{"internalType":"bytes32","name":"paymentId","type":"bytes32"},{"internalType":"bool","name":"inFavorOfUser","type":"bool"}],"name":"resolveDispute","outputs":[],"stateMutability":"nonpayable","type":"function"},{"inputs":[{"internalType":"address","name":"resolver","type":"address"},{"internalType":"bool","name":"authorized","type":"bool"}],"name":"setDisputeResolver","outputs":[],"stateMutability":"nonpayable","type":"function"},{"inputs":[{"internalType":"address","name":"merchant","type":"address"},{"internalType":"bool","name":"authorized","type":"bool"}],"name":"setMerchantAuthorization","outputs":[],"stateMutability":"nonpayable","type":"function"},{"inputs":[],"name":"togglePause","outputs":[],"stateMutability":"nonpayable","type":"function"},{"inputs":[{"internalType":"address","name":"newOwner","type":"address"}],"name":"transferOwnership","outputs":[],"stateMutability":"nonpayable","type":"function"},{"inputs":[{"internalType":"address","name":"newPaymentContract","type":"address"}],"name":"updatePaymentContract","outputs":[],"stateMutability":"nonpayable","type":"function"},{"inputs":[],"name":"usdcToken","outputs":[{"internalType":"address","name":"","type":"address"}],"stateMutability":"view","type":"function"}],"evm":{"bytecode":{"linkReferences":{},"object":"60806040523480156200001157600080fd5b50604051620024163803806200241683398101604081905262000034916200019b565b600160005562000044336200012c565b6001805460ff60a01b191690556001600160a01b038216620000ad5760405162461bcd60e51b815260206004820152601860248201527f496e76616c6964207061796d656e7420636f6e7472616374000000000000000060448201526064015b60405180910390fd5b6001600160a01b038116620000fa5760405162461bcd60e51b815260206004820152601260248201527124b73b30b634b2102aa9a221903a37b5b2b760711b6044820152606401620000a4565b600280546001600160a01b039384166001600160a01b03199182161790915560038054929093169116179055620001d3565b600180546001600160a01b038381166001600160a01b0319831681179093556040519116919082907f8be0079c531659141344cd1fd0a4f28419497f9722a3daafe3b4186f6b6457e090600090a35050565b80516001600160a01b03811681146200019657600080fd5b919050565b60008060408385031215620001af57600080fd5b620001ba836200017e565b9150620001ca602084016200017e565b90509250929050565b61223380620001e36000396000f3fe608060405234801561001057600080fd5b50600436106101585760003560e01c806395fb6b74116100c3578063be7b8a771161007c578063be7b8a77146102e6578063c4ae3168146102f9578063ca2efd3814610301578063ce0c9ef014610324578063f023b81114610347578063f2fde38b1461036757600080fd5b806395fb6b74146102785780639c91dd561461028b578063a2cc6ec91461029e578063a5bbe22b146102b1578063aa11b060146102c9578063b5f1c3f4146102dc57600080fd5b80635a46259f116101155780635a46259f146102145780635c975abb14610227578063715018a614610239578063727b7acf1461024157806372a522e6146102545780638da5cb5b1461026757600080fd5b806311eac8551461015d5780632517f6041461018d5780632d83549c146101a2578063344894d3146101cb57806343a0e3e6146101ee5780634429ed4d14610201575b600080fd5b600354610170906001600160a01b031681565b6040516001600160a01b0390911681526020015b60405180910390f35b6101a061019b366004611bf9565b61037a565b005b6101b56101b0366004611c1b565b6103f1565b6040516101849a99989796959493929190611cbc565b6101de6101d9366004611c1b565b6104e1565b6040519015158152602001610184565b6101a06101fc366004611d3f565b6106ac565b6101a061020f366004611c1b565b6107e8565b6101a0610222366004611d6f565b610907565b600154600160a01b900460ff166101de565b6101a061093a565b6101a061024f366004611d9b565b61094e565b6101a0610262366004611c1b565b610984565b6001546001600160a01b0316610170565b6101a0610286366004611dc5565b610b0e565b600254610170906001600160a01b031681565b6101a06102ac366004611c1b565b610e5d565b6102bb62093a8081565b604051908152602001610184565b6101a06102d7366004611d6f565b610fc9565b6102bb62278d0081565b6101a06102f4366004611e13565b610ffc565b6101a0611271565b6101de61030f366004611bf9565b60046020526000908152604090205460ff1681565b6101de610332366004611bf9565b60056020526000908152604090205460ff1681565b61035a610355366004611c1b565b61129b565b6040516101849190611e8f565b6101a0610375366004611bf9565b611442565b6103826114bb565b6001600160a01b0381166103cf5760405162461bcd60e51b815260206004820152600f60248201526e496e76616c6964206164647265737360881b60448201526064015b60405180910390fd5b600280546001600160a01b0319166001600160a01b0392909216919091179055565b600660208190526000918252604090912080546001820154600283015460038401546004850154600586015496860154600787015460088801805497996001600160a01b0397881699969897909516969395929360ff808416946101009094041692919061045e90611f3d565b80601f016020809104026020016040519081016040528092919081815260200182805461048a90611f3d565b80156104d75780601f106104ac576101008083540402835291602001916104d7565b820191906000526020600020905b8154815290600101906020018083116104ba57829003601f168201915b505050505090508a565b60008181526006602081815260408084208151610140810183528154815260018201546001600160a01b0390811694820194909452600282015492810192909252600381015490921660608201526004808301546080830152600583015460a08301529282015460c08201526007820154849391929160e084019160ff169081111561056f5761056f611c34565b600481111561058057610580611c34565b81526007820154610100900460ff16151560208201526008820180546040909201916105ab90611f3d565b80601f01602080910402602001604051908101604052809291908181526020018280546105d790611f3d565b80156106245780601f106105f957610100808354040283529160200191610624565b820191906000526020600020905b81548152906001019060200180831161060757829003601f168201915b5050505050815250509050806101000151156106435750600092915050565b60008160e00151600481111561065b5761065b611c34565b036106695750600192915050565b60018160e00151600481111561068157610681611c34565b036106a35762093a808160c001516106999190611f77565b4211159392505050565b50600092915050565b3360009081526005602052604090205460ff16806106d457506001546001600160a01b031633145b6107205760405162461bcd60e51b815260206004820152601760248201527f4e6f7420617574686f72697a6564207265736f6c76657200000000000000000060448201526064016103c6565b60008281526006602052604090206002600782015460ff16600481111561074957610749611c34565b1461078a5760405162461bcd60e51b81526020600482015260116024820152704e6f20616374697665206469737075746560781b60448201526064016103c6565b811561079e5761079983611515565b6107a7565b6107a783611607565b60408051831515815233602082015284917fc960b0a8d05987d3303a43fbce4ccf8ccc3262a2b5517a35c97fc8848c23054c910160405180910390a2505050565b60008181526006602052604090206001600782015460ff16600481111561081157610811611c34565b1461084e5760405162461bcd60e51b815260206004820152600d60248201526c139bdd0818dbdb999a5c9b5959609a1b60448201526064016103c6565b6007810154610100900460ff16156108995760405162461bcd60e51b815260206004820152600e60248201526d446973707574652061637469766560901b60448201526064016103c6565b62093a8081600601546108ac9190611f77565b42116108fa5760405162461bcd60e51b815260206004820152601a60248201527f4469737075746520706572696f64206e6f74206578706972656400000000000060448201526064016103c6565b61090382611607565b5050565b61090f6114bb565b6001600160a01b03919091166000908152600560205260409020805460ff1916911515919091179055565b6109426114bb565b61094c60006116f2565b565b6109566114bb565b61095e611744565b6109036109736001546001600160a01b031690565b6001600160a01b0384169083611794565b60008181526006602090815260408083206002015433845260049092529091205460ff166109f45760405162461bcd60e51b815260206004820152601760248201527f4e6f7420617574686f72697a6564206d65726368616e7400000000000000000060448201526064016103c6565b600082815260066020526040812090600782015460ff166004811115610a1c57610a1c611c34565b14610a615760405162461bcd60e51b8152602060048201526015602482015274496e76616c696420657363726f772073746174757360581b60448201526064016103c6565b6007810154610100900460ff1615610abb5760405162461bcd60e51b815260206004820152601d60248201527f43616e6e6f7420636f6e6669726d20647572696e67206469737075746500000060448201526064016103c6565b60078101805460ff191660011790554260068201819055604051908152339084907feed1da2f4f47568c566aaad60b44e45fc6ae9138bee9a984f7661888ca5dc3349060200160405180910390a3505050565b610b166117fc565b610b1e611855565b60008581526006602052604090206004015415610b755760405162461bcd60e51b8152602060048201526015602482015274457363726f7720616c72656164792065786973747360581b60448201526064016103c6565b60008111610bb65760405162461bcd60e51b815260206004820152600e60248201526d125b9d985b1a5908185b5bdd5b9d60921b60448201526064016103c6565b6001600160a01b038216610c0c5760405162461bcd60e51b815260206004820152601760248201527f496e76616c6964206d65726368616e742077616c6c657400000000000000000060448201526064016103c6565b6002546001600160a01b03163303610c4157600254600354610c3c916001600160a01b03918216911630846118a2565b610cb1565b336001600160a01b03851614610c995760405162461bcd60e51b815260206004820152601e60248201527f43616c6c6572206d757374206d6174636820757365722061646472657373000060448201526064016103c6565b600354610cb1906001600160a01b03163330846118a2565b604051806101400160405280868152602001856001600160a01b03168152602001848152602001836001600160a01b031681526020018281526020014281526020016000815260200160006004811115610d0d57610d0d611c34565b815260006020808301829052604080518083018252838152938101939093528882526006808252918390208451815590840151600182810180546001600160a01b039384166001600160a01b0319918216179091559486015160028401556060860151600384018054919093169516949094179055608084015160048083019190915560a0850151600583015560c08501519282019290925560e084015160078201805492949193909260ff191691908490811115610dce57610dce611c34565b02179055506101008281015160078301805461ff0019169115159092021790556101208201516008820190610e039082612002565b505060408051858152602081018490526001600160a01b038716925087917f26f97417b32fdaf792dabcb9bfae983a94e40f76f1e4a15bdb874283654b0d66910160405180910390a3610e566001600055565b5050505050565b600081815260066020526040812090600782015460ff166004811115610e8557610e85611c34565b14610ed25760405162461bcd60e51b815260206004820152601760248201527f4e6f7420696e206465706f73697465642073746174757300000000000000000060448201526064016103c6565b6007810154610100900460ff1615610f1d5760405162461bcd60e51b815260206004820152600e60248201526d446973707574652061637469766560901b60448201526064016103c6565b62278d008160050154610f309190611f77565b4211610f7e5760405162461bcd60e51b815260206004820152601f60248201527f4175746f2d72656c6561736520706572696f64206e6f7420726561636865640060448201526064016103c6565b610f8782611607565b817f6d55c23b02fc54ab6459e5d9449d117274cd5755162abf1ab650ebddddb74bc08260040154604051610fbd91815260200190565b60405180910390a25050565b610fd16114bb565b6001600160a01b03919091166000908152600460205260409020805460ff1916911515919091179055565b600083815260066020526040902060018101546001600160a01b031633146110665760405162461bcd60e51b815260206004820152601b60248201527f4f6e6c7920757365722063616e2072616973652064697370757465000000000060448201526064016103c6565b6000600782015460ff16600481111561108157611081611c34565b14806110a557506001600782015460ff1660048111156110a3576110a3611c34565b145b6110e25760405162461bcd60e51b815260206004820152600e60248201526d496e76616c69642073746174757360901b60448201526064016103c6565b6007810154610100900460ff16156111355760405162461bcd60e51b8152602060048201526016602482015275111a5cdc1d5d1948185b1c9958591e481c985a5cd95960521b60448201526064016103c6565b816111825760405162461bcd60e51b815260206004820152601760248201527f4469737075746520726561736f6e20726571756972656400000000000000000060448201526064016103c6565b6001600782015460ff16600481111561119d5761119d611c34565b036111fd5762093a8081600601546111b59190611f77565b4211156111fd5760405162461bcd60e51b8152602060048201526016602482015275111a5cdc1d5d19481c195c9a5bd908195e1c1a5c995960521b60448201526064016103c6565b60078101805461ff0019166101001790556008810161121d8385836120c2565b5060078101805460ff19166002179055604051339085907f49e53fd224357020766ce272815e8a15c300aace14a011cfcded9335798fbd0e906112639087908790612182565b60405180910390a350505050565b6112796114bb565b600154600160a01b900460ff16156112935761094c6118e0565b61094c611935565b6112f16040805161014081018252600080825260208201819052918101829052606081018290526080810182905260a0810182905260c081018290529060e0820190815260006020820152606060409091015290565b6000828152600660208181526040928390208351610140810185528154815260018201546001600160a01b0390811693820193909352600282015494810194909452600381015490911660608401526004808201546080850152600582015460a08501529181015460c08401526007810154909160e084019160ff169081111561137d5761137d611c34565b600481111561138e5761138e611c34565b81526007820154610100900460ff16151560208201526008820180546040909201916113b990611f3d565b80601f01602080910402602001604051908101604052809291908181526020018280546113e590611f3d565b80156114325780601f1061140757610100808354040283529160200191611432565b820191906000526020600020905b81548152906001019060200180831161141557829003601f168201915b5050505050815250509050919050565b61144a6114bb565b6001600160a01b0381166114af5760405162461bcd60e51b815260206004820152602660248201527f4f776e61626c653a206e6577206f776e657220697320746865207a65726f206160448201526564647265737360d01b60648201526084016103c6565b6114b8816116f2565b50565b6001546001600160a01b0316331461094c5760405162461bcd60e51b815260206004820181905260248201527f4f776e61626c653a2063616c6c6572206973206e6f7420746865206f776e657260448201526064016103c6565b600081815260066020526040902060078101805460ff19166004908117909155600182015490820154600354611559926001600160a01b0391821692911690611794565b600254604051634feb80c160e11b8152600481018490526001600160a01b0390911690639fd7018290602401600060405180830381600087803b15801561159f57600080fd5b505af11580156115b3573d6000803e3d6000fd5b50505050600181015460048201546040519081526001600160a01b039091169083907fbb0af7321a16834399146ab3819202a61859e53d69bd9cf889c444dfe69f1bb2906020015b60405180910390a35050565b600081815260066020526040902060078101805460ff19166003908117909155808201546004830154915461164c926001600160a01b03918216929190911690611794565b60025460405163b4fe2c4760e01b8152600481018490526001600160a01b039091169063b4fe2c4790602401600060405180830381600087803b15801561169257600080fd5b505af11580156116a6573d6000803e3d6000fd5b50505050600381015460048201546040519081526001600160a01b039091169083907f75d86e5bfa1175e2dc677f3abe3aebba3069f2db6ae492f1734d4b4bc65f61c1906020016115fb565b600180546001600160a01b038381166001600160a01b0319831681179093556040519116919082907f8be0079c531659141344cd1fd0a4f28419497f9722a3daafe3b4186f6b6457e090600090a35050565b600154600160a01b900460ff1661094c5760405162461bcd60e51b815260206004820152601460248201527314185d5cd8589b194e881b9bdd081c185d5cd95960621b60448201526064016103c6565b6040516001600160a01b0383166024820152604481018290526117f790849063a9059cbb60e01b906064015b60408051601f198184030181529190526020810180516001600160e01b03166001600160e01b031990931692909217909152611978565b505050565b60026000540361184e5760405162461bcd60e51b815260206004820152601f60248201527f5265656e7472616e637947756172643a207265656e7472616e742063616c6c0060448201526064016103c6565b6002600055565b600154600160a01b900460ff161561094c5760405162461bcd60e51b815260206004820152601060248201526f14185d5cd8589b194e881c185d5cd95960821b60448201526064016103c6565b6040516001600160a01b03808516602483015283166044820152606481018290526118da9085906323b872dd60e01b906084016117c0565b50505050565b6118e8611744565b6001805460ff60a01b191690557f5db9ee0a495bf2e6ff9c91a7834c1ba4fdd244a5e8aa4e537bd38aeae4b073aa335b6040516001600160a01b03909116815260200160405180910390a1565b61193d611855565b6001805460ff60a01b1916600160a01b1790557f62e78cea01bee320cd4e420270b5ea74000d11b0c9f74754ebdbfc544b05a2586119183390565b60006119cd826040518060400160405280602081526020017f5361666545524332303a206c6f772d6c6576656c2063616c6c206661696c6564815250856001600160a01b0316611a4d9092919063ffffffff16565b90508051600014806119ee5750808060200190518101906119ee91906121b1565b6117f75760405162461bcd60e51b815260206004820152602a60248201527f5361666545524332303a204552433230206f7065726174696f6e20646964206e6044820152691bdd081cdd58d8d9595960b21b60648201526084016103c6565b6060611a5c8484600085611a64565b949350505050565b606082471015611ac55760405162461bcd60e51b815260206004820152602660248201527f416464726573733a20696e73756666696369656e742062616c616e636520666f6044820152651c8818d85b1b60d21b60648201526084016103c6565b600080866001600160a01b03168587604051611ae191906121ce565b60006040518083038185875af1925050503d8060008114611b1e576040519150601f19603f3d011682016040523d82523d6000602084013e611b23565b606091505b5091509150611b3487838387611b3f565b979650505050505050565b60608315611bae578251600003611ba7576001600160a01b0385163b611ba75760405162461bcd60e51b815260206004820152601d60248201527f416464726573733a2063616c6c20746f206e6f6e2d636f6e747261637400000060448201526064016103c6565b5081611a5c565b611a5c8383815115611bc35781518083602001fd5b8060405162461bcd60e51b81526004016103c691906121ea565b80356001600160a01b0381168114611bf457600080fd5b919050565b600060208284031215611c0b57600080fd5b611c1482611bdd565b9392505050565b600060208284031215611c2d57600080fd5b5035919050565b634e487b7160e01b600052602160045260246000fd5b60058110611c6857634e487b7160e01b600052602160045260246000fd5b9052565b60005b83811015611c87578181015183820152602001611c6f565b50506000910152565b60008151808452611ca8816020860160208601611c6c565b601f01601f19169290920160200192915050565b8a81526001600160a01b038a81166020830152604082018a9052881660608201526080810187905260a0810186905260c081018590526000610140611d0460e0840187611c4a565b84151561010084015280610120840152611d2081840185611c90565b9d9c50505050505050505050505050565b80151581146114b857600080fd5b60008060408385031215611d5257600080fd5b823591506020830135611d6481611d31565b809150509250929050565b60008060408385031215611d8257600080fd5b611d8b83611bdd565b91506020830135611d6481611d31565b60008060408385031215611dae57600080fd5b611db783611bdd565b946020939093013593505050565b600080600080600060a08688031215611ddd57600080fd5b85359450611ded60208701611bdd565b935060408601359250611e0260608701611bdd565b949793965091946080013592915050565b600080600060408486031215611e2857600080fd5b83359250602084013567ffffffffffffffff80821115611e4757600080fd5b818601915086601f830112611e5b57600080fd5b813581811115611e6a57600080fd5b876020828501011115611e7c57600080fd5b6020830194508093505050509250925092565b602081528151602082015260006020830151611eb660408401826001600160a01b03169052565b50604083015160608301526060830151611edb60808401826001600160a01b03169052565b50608083015160a083015260a083015160c083015260c083015160e083015260e0830151610100611f0e81850183611c4a565b8401519050610120611f238482018315159052565b840151610140848101529050611a5c610160840182611c90565b600181811c90821680611f5157607f821691505b602082108103611f7157634e487b7160e01b600052602260045260246000fd5b50919050565b80820180821115611f9857634e487b7160e01b600052601160045260246000fd5b92915050565b634e487b7160e01b600052604160045260246000fd5b601f8211156117f757600081815260208120601f850160051c81016020861015611fdb5750805b601f850160051c820191505b81811015611ffa57828155600101611fe7565b505050505050565b815167ffffffffffffffff81111561201c5761201c611f9e565b6120308161202a8454611f3d565b84611fb4565b602080601f831160018114612065576000841561204d5750858301515b600019600386901b1c1916600185901b178555611ffa565b600085815260208120601f198616915b8281101561209457888601518255948401946001909101908401612075565b50858210156120b25787850151600019600388901b60f8161c191681555b5050505050600190811b01905550565b67ffffffffffffffff8311156120da576120da611f9e565b6120ee836120e88354611f3d565b83611fb4565b6000601f841160018114612122576000851561210a5750838201355b600019600387901b1c1916600186901b178355610e56565b600083815260209020601f19861690835b828110156121535786850135825560209485019460019092019101612133565b50868210156121705760001960f88860031b161c19848701351681555b505060018560011b0183555050505050565b60208152816020820152818360408301376000818301604090810191909152601f909201601f19160101919050565b6000602082840312156121c357600080fd5b8151611c1481611d31565b600082516121e0818460208701611c6c565b9190910192915050565b602081526000611c146020830184611c9056fea2646970667358221220167586e2f5eb4ddbc160c1c9ba376dcddc157014b02c2c1528e22770e07da6ff64736f6c63430008140033","opcodes":"PUSH1 0x80 PUSH1 0x40 MSTORE CALLVALUE DUP1 ISZERO PUSH3 0x11 JUMPI PUSH1 0x0 DUP1 REVERT JUMPDEST POP PUSH1 0x40 MLOAD PUSH3 0x2416 CODESIZE SUB DUP1 PUSH3 0x2416 DUP4 CODECOPY DUP2 ADD PUSH1 0x40 DUP2 SWAP1 MSTORE PUSH3 0x34 SWAP2 PUSH3 0x19B JUMP JUMPDEST PUSH1 0x1 PUSH1 0x0 SSTORE PUSH3 0x44 CALLER PUSH3 0x12C JUMP JUMPDEST PUSH1 0x1 DUP1 SLOAD PUSH1 0xFF PUSH1 0xA0 SHL NOT AND SWAP1 SSTORE PUSH1 0x1 PUSH1 0x1 PUSH1 0xA0 SHL SUB DUP3 AND PUSH3 0xAD JUMPI PUSH1 0x40 MLOAD PUSH3 0x461BCD PUSH1 0xE5 SHL DUP2 MSTORE PUSH1 0x20 PUSH1 0x4 DUP3 ADD MSTORE PUSH1 0x18 PUSH1 0x24 DUP3 ADD MSTORE PUSH32 0x496E76616C6964207061796D656E7420636F6E74726163740000000000000000 PUSH1 0x44 DUP3 ADD MSTORE PUSH1 0x64 ADD JUMPDEST PUSH1 0x40 MLOAD DUP1 SWAP2 SUB SWAP1 REVERT JUMPDEST PUSH1 0x1 PUSH1 0x1 PUSH1 0xA0 SHL SUB DUP2 AND PUSH3 0xFA JUMPI PUSH1 0x40 MLOAD PUSH3 0x461BCD PUSH1 0xE5 SHL DUP2 MSTORE PUSH1 0x20 PUSH1 0x4 DUP3 ADD MSTORE PUSH1 0x12 PUSH1 0x24 DUP3 ADD MSTORE PUSH18 0x24B73B30B634B2102AA9A221903A37B5B2B7 PUSH1 0x71 SHL PUSH1 0x44 DUP3 ADD MSTORE PUSH1 0x64 ADD PUSH3 0xA4 JUMP JUMPDEST PUSH1 0x2 DUP1 SLOAD PUSH1 0x1 PUSH1 0x1 PUSH1 0xA0 SHL SUB SWAP4 DUP5 AND PUSH1 0x1 PUSH1 0x1 PUSH1 0xA0 SHL SUB NOT SWAP2 DUP3 AND OR SWAP1 SWAP2 SSTORE PUSH1 0x3 DUP1 SLOAD SWAP3 SWAP1 SWAP4 AND SWAP2 AND OR SWAP1 SSTORE PUSH3 0x1D3 JUMP JUMPDEST PUSH1 0x1 DUP1 SLOAD PUSH1 0x1 PUSH1 0x1 PUSH1 0xA0 SHL SUB DUP4 DUP2 AND PUSH1 0x1 PUSH1 0x1 PUSH1 0xA0 SHL SUB NOT DUP4 AND DUP2 OR SWAP1 SWAP4 SSTORE PUSH1 0x40 MLOAD SWAP2 AND SWAP2 SWAP1 DUP3 SWAP1 PUSH32 0x8BE0079C531659141344CD1FD0A4F28419497F9722A3DAAFE3B4186F6B6457E0 SWAP1 PUSH1 0x0 SWAP1 LOG3 POP POP JUMP JUMPDEST DUP1 MLOAD PUSH1 0x1 PUSH1 0x1 PUSH1 0xA0 SHL SUB DUP2 AND DUP2 EQ PUSH3 0x196 JUMPI PUSH1 0x0 DUP1 REVERT JUMPDEST SWAP2 SWAP1 POP JUMP JUMPDEST PUSH1 0x0 DUP1 PUSH1 0x40 DUP4 DUP6 SUB SLT ISZERO PUSH3 0x1AF JUMPI PUSH1 0x0 DUP1 REVERT JUMPDEST PUSH3 0x1BA DUP4 PUSH3 0x17E JUMP JUMPDEST SWAP2 POP PUSH3 0x1CA PUSH1 0x20 DUP5 ADD PUSH3 0x17E JUMP JUMPDEST SWAP1 POP SWAP3 POP SWAP3 SWAP1 POP JUMP JUMPDEST PUSH2 0x2233 DUP1 PUSH3 0x1E3 PUSH1 0x0 CODECOPY PUSH1 0x0 RETURN INVALID PUSH1 0x80 PUSH1 0x40 MSTORE CALLVALUE DUP1 ISZERO PUSH2 0x10 JUMPI PUSH1 0x0 DUP1 REVERT JUMPDEST POP PUSH1 0x4 CALLDATASIZE LT PUSH2 0x158 JUMPI PUSH1 0x0 CALLDATALOAD PUSH1 0xE0 SHR DUP1 PUSH4 0x95FB6B74 GT PUSH2 0xC3 JUMPI DUP1 PUSH4 0xBE7B8A77 GT PUSH2 0x7C JUMPI DUP1 PUSH4 0xBE7B8A77 EQ PUSH2 0x2E6 JUMPI DUP1 PUSH4 0xC4AE3168 EQ PUSH2 0x2F9 JUMPI DUP1 PUSH4 0xCA2EFD38 EQ PUSH2 0x301 JUMPI DUP1 PUSH4 0xCE0C9EF0 EQ PUSH2 0x324 JUMPI DUP1 PUSH4 0xF023B811 EQ PUSH2 0x347 JUMPI DUP1 PUSH4 0xF2FDE38B EQ PUSH2 0x367 JUMPI PUSH1 0x0 DUP1 REVERT JUMPDEST DUP1 PUSH4 0x95FB6B74 EQ PUSH2 0x278 JUMPI DUP1 PUSH4 0x9C91DD56 EQ PUSH2 0x28B JUMPI DUP1 PUSH4 0xA2CC6EC9 EQ PUSH2 0x29E JUMPI DUP1 PUSH4 0xA5BBE22B EQ PUSH2 0x2B1 JUMPI DUP1 PUSH4 0xAA11B060 EQ PUSH2 0x2C9 JUMPI DUP1 PUSH4 0xB5F1C3F4 EQ PUSH2 0x2DC JUMPI PUSH1 0x0 DUP1 REVERT JUMPDEST DUP1 PUSH4 0x5A46259F GT PUSH2 0x115 JUMPI DUP1 PUSH4 0x5A46259F EQ PUSH2 0x214 JUMPI DUP1 PUSH4 0x5C975ABB EQ PUSH2 0x227 JUMPI DUP1 PUSH4 0x715018A6 EQ PUSH2 0x239 JUMPI DUP1 PUSH4 0x727B7ACF EQ PUSH2 0x241 JUMPI DUP1 PUSH4 0x72A522E6 EQ PUSH2 0x254 JUMPI DUP1 PUSH4 0x8DA5CB5B EQ PUSH2 0x267 JUMPI PUSH1 0x0 DUP1 REVERT JUMPDEST DUP1 PUSH4 0x11EAC855 EQ PUSH2 0x15D JUMPI DUP1 PUSH4 0x2517F604 EQ PUSH2 0x18D JUMPI DUP1 PUSH4 0x2D83549C EQ PUSH2 0x1A2 JUMPI DUP1 PUSH4 0x344894D3 EQ PUSH2 0x1CB JUMPI DUP1 PUSH4 0x43A0E3E6 EQ PUSH2 0x1EE JUMPI DUP1 PUSH4 0x4429ED4D EQ PUSH2 0x201 JUMPI JUMPDEST PUSH1 0x0 DUP1 REVERT JUMPDEST PUSH1 0x3 SLOAD PUSH2 0x170 SWAP1 PUSH1 0x1 PUSH1 0x1 PUSH1 0xA0 SHL SUB AND DUP2 JUMP JUMPDEST PUSH1 0x40 MLOAD PUSH1 0x1 PUSH1 0x1 PUSH1 0xA0 SHL SUB SWAP1 SWAP2 AND DUP2 MSTORE PUSH1 0x20 ADD JUMPDEST PUSH1 0x40 MLOAD DUP1 SWAP2 SUB SWAP1 RETURN JUMPDEST PUSH2 0x1A0 PUSH2 0x19B CALLDATASIZE PUSH1 0x4 PUSH2 0x1BF9 JUMP JUMPDEST PUSH2 0x37A JUMP JUMPDEST STOP JUMPDEST PUSH2 0x1B5 PUSH2 0x1B0 CALLDATASIZE PUSH1 0x4 PUSH2 0x1C1B JUMP JUMPDEST PUSH2 0x3F1 JUMP JUMPDEST PUSH1 0x40 MLOAD PUSH2 0x184 SWAP11 SWAP10 SWAP9 SWAP8 SWAP7 SWAP6 SWAP5 SWAP4 SWAP3 SWAP2 SWAP1 PUSH2 0x1CBC JUMP JUMPDEST PUSH2 0x1DE PUSH2 0x1D9 CALLDATASIZE PUSH1 0x4 PUSH2 0x1C1B JUMP JUMPDEST PUSH2 0x4E1 JUMP JUMPDEST PUSH1 0x40 MLOAD SWAP1 ISZERO ISZERO DUP2 MSTORE PUSH1 0x20 ADD PUSH2 0x184 JUMP JUMPDEST PUSH2 0x1A0 PUSH2 0x1FC CALLDATASIZE PUSH1 0x4 PUSH2 0x1D3F JUMP JUMPDEST PUSH2 0x6AC JUMP JUMPDEST PUSH2 0x1A0 PUSH2 0x20F CALLDATASIZE PUSH1 0x4 PUSH2 0x1C1B JUMP JUMPDEST PUSH2 0x7E8 JUMP JUMPDEST PUSH2 0x1A0 PUSH2 0x222 CALLDATASIZE PUSH1 0x4 PUSH2 0x1D6F JUMP JUMPDEST PUSH2 0x907 JUMP JUMPDEST PUSH1 0x1 SLOAD PUSH1 0x1 PUSH1 0xA0 SHL SWAP1 DIV PUSH1 0xFF AND PUSH2 0x1DE JUMP JUMPDEST PUSH2 0x1A0 PUSH2 0x93A JUMP JUMPDEST PUSH2 0x1A0 PUSH2 0x24F CALLDATASIZE PUSH1 0x4 PUSH2 0x1D9B JUMP JUMPDEST PUSH2 0x94E JUMP JUMPDEST PUSH2 0x1A0 PUSH2 0x262 CALLDATASIZE PUSH1 0x4 PUSH2 0x1C1B JUMP JUMPDEST PUSH2 0x984 JUMP JUMPDEST PUSH1 0x1 SLOAD PUSH1 0x1 PUSH1 0x1 PUSH1 0xA0 SHL SUB AND PUSH2 0x170 JUMP JUMPDEST PUSH2 0x1A0 PUSH2 0x286 CALLDATASIZE PUSH1 0x4 PUSH2 0x1DC5 JUMP JUMPDEST PUSH2 0xB0E JUMP JUMPDEST PUSH1 0x2 SLOAD PUSH2 0x170 SWAP1 PUSH1 0x1 PUSH1 0x1 PUSH1 0xA0 SHL SUB AND DUP2 JUMP JUMPDEST PUSH2 0x1A0 PUSH2 0x2AC CALLDATASIZE PUSH1 0x4 PUSH2 0x1C1B JUMP JUMPDEST PUSH2 0xE5D JUMP JUMPDEST PUSH2 0x2BB PUSH3 0x93A80 DUP2 JUMP JUMPDEST PUSH1 0x40 MLOAD SWAP1 DUP2 MSTORE PUSH1 0x20 ADD PUSH2 0x184 JUMP JUMPDEST PUSH2 0x1A0 PUSH2 0x2D7 CALLDATASIZE PUSH1 0x4 PUSH2 0x1D6F JUMP JUMPDEST PUSH2 0xFC9 JUMP JUMPDEST PUSH2 0x2BB PUSH3 0x278D00 DUP2 JUMP JUMPDEST PUSH2 0x1A0 PUSH2 0x2F4 CALLDATASIZE PUSH1 0x4 PUSH2 0x1E13 JUMP JUMPDEST PUSH2 0xFFC JUMP JUMPDEST PUSH2 0x1A0 PUSH2 0x1271 JUMP JUMPDEST PUSH2 0x1DE PUSH2 0x30F CALLDATASIZE PUSH1 0x4 PUSH2 0x1BF9 JUMP JUMPDEST PUSH1 0x4 PUSH1 0x20 MSTORE PUSH1 0x0 SWAP1 DUP2 MSTORE PUSH1 0x40 SWAP1 KECCAK256 SLOAD PUSH1 0xFF AND DUP2 JUMP JUMPDEST PUSH2 0x1DE PUSH2 0x332 CALLDATASIZE PUSH1 0x4 PUSH2 0x1BF9 JUMP JUMPDEST PUSH1 0x5 PUSH1 0x20 MSTORE PUSH1 0x0 SWAP1 DUP2 MSTORE PUSH1 0x40 SWAP1 KECCAK256 SLOAD PUSH1 0xFF AND DUP2 JUMP JUMPDEST PUSH2 0x35A PUSH2 0x355 CALLDATASIZE PUSH1 0x4 PUSH2 0x1C1B JUMP JUMPDEST PUSH2 0x129B JUMP JUMPDEST PUSH1 0x40 MLOAD PUSH2 0x184 SWAP2 SWAP1 PUSH2 0x1E8F JUMP JUMPDEST PUSH2 0x1A0 PUSH2 0x375 CALLDATASIZE PUSH1 0x4 PUSH2 0x1BF9 JUMP JUMPDEST PUSH2 0x1442 JUMP JUMPDEST PUSH2 0x382 PUSH2 0x14BB JUMP JUMPDEST PUSH1 0x1 PUSH1 0x1 PUSH1 0xA0 SHL SUB DUP2 AND PUSH2 0x3CF JUMPI PUSH1 0x40 MLOAD PUSH3 0x461BCD PUSH1 0xE5 SHL DUP2 MSTORE PUSH1 0x20 PUSH1 0x4 DUP3 ADD MSTORE PUSH1 0xF PUSH1 0x24 DUP3 ADD MSTORE PUSH15 0x496E76616C69642061646472657373 PUSH1 0x88 SHL PUSH1 0x44 DUP3 ADD MSTORE PUSH1 0x64 ADD JUMPDEST PUSH1 0x40 MLOAD DUP1 SWAP2 SUB SWAP1 REVERT JUMPDEST PUSH1 0x2 DUP1 SLOAD PUSH1 0x1 PUSH1 0x1 PUSH1 0xA0 SHL SUB NOT AND PUSH1 0x1 PUSH1 0x1 PUSH1 0xA0 SHL SUB SWAP3 SWAP1 SWAP3 AND SWAP2 SWAP1 SWAP2 OR SWAP1 SSTORE JUMP JUMPDEST PUSH1 0x6 PUSH1 0x20 DUP2 SWAP1 MSTORE PUSH1 0x0 SWAP2 DUP3 MSTORE PUSH1 0x40 SWAP1 SWAP2 KECCAK256 DUP1 SLOAD PUSH1 0x1 DUP3 ADD SLOAD PUSH1 0x2 DUP4 ADD SLOAD PUSH1 0x3 DUP5 ADD SLOAD PUSH1 0x4 DUP6 ADD SLOAD PUSH1 0x5 DUP7 ADD SLOAD SWAP7 DUP7 ADD SLOAD PUSH1 0x7 DUP8 ADD SLOAD PUSH1 0x8 DUP9 ADD DUP1 SLOAD SWAP8 SWAP10 PUSH1 0x1 PUSH1 0x1 PUSH1 0xA0 SHL SUB SWAP8 DUP9 AND SWAP10 SWAP7 SWAP9 SWAP8 SWAP1 SWAP6 AND SWAP7 SWAP4 SWAP6 SWAP3 SWAP4 PUSH1 0xFF DUP1 DUP5 AND SWAP5 PUSH2 0x100 SWAP1 SWAP5 DIV AND SWAP3 SWAP2 SWAP1 PUSH2 0x45E SWAP1 PUSH2 0x1F3D JUMP JUMPDEST DUP1 PUSH1 0x1F ADD PUSH1 0x20 DUP1 SWAP2 DIV MUL PUSH1 0x20 ADD PUSH1 0x40 MLOAD SWAP1 DUP2 ADD PUSH1 0x40 MSTORE DUP1 SWAP3 SWAP2 SWAP1 DUP2 DUP2 MSTORE PUSH1 0x20 ADD DUP3 DUP1 SLOAD PUSH2 0x48A SWAP1 PUSH2 0x1F3D JUMP JUMPDEST DUP1 ISZERO PUSH2 0x4D7 JUMPI DUP1 PUSH1 0x1F LT PUSH2 0x4AC JUMPI PUSH2 0x100 DUP1 DUP4 SLOAD DIV MUL DUP4 MSTORE SWAP2 PUSH1 0x20 ADD SWAP2 PUSH2 0x4D7 JUMP JUMPDEST DUP3 ADD SWAP2 SWAP1 PUSH1 0x0 MSTORE PUSH1 0x20 PUSH1 0x0 KECCAK256 SWAP1 JUMPDEST DUP2 SLOAD DUP2 MSTORE SWAP1 PUSH1 0x1 ADD SWAP1 PUSH1 0x20 ADD DUP1 DUP4 GT PUSH2 0x4BA JUMPI DUP3 SWAP1 SUB PUSH1 0x1F AND DUP3 ADD SWAP2 JUMPDEST POP POP POP POP POP SWAP1 POP DUP11 JUMP JUMPDEST PUSH1 0x0 DUP2 DUP2 MSTORE PUSH1 0x6 PUSH1 0x20 DUP2 DUP2 MSTORE PUSH1 0x40 DUP1 DUP5 KECCAK256 DUP2 MLOAD PUSH2 0x140 DUP2 ADD DUP4 MSTORE DUP2 SLOAD DUP2 MSTORE PUSH1 0x1 DUP3 ADD SLOAD PUSH1 0x1 PUSH1 0x1 PUSH1 0xA0 SHL SUB SWAP1 DUP2 AND SWAP5 DUP3 ADD SWAP5 SWAP1 SWAP5 MSTORE PUSH1 0x2 DUP3 ADD SLOAD SWAP3 DUP2 ADD SWAP3 SWAP1 SWAP3 MSTORE PUSH1 0x3 DUP2 ADD SLOAD SWAP1 SWAP3 AND PUSH1 0x60 DUP3 ADD MSTORE PUSH1 0x4 DUP1 DUP4 ADD SLOAD PUSH1 0x80 DUP4 ADD MSTORE PUSH1 0x5 DUP4 ADD SLOAD PUSH1 0xA0 DUP4 ADD MSTORE SWAP3 DUP3 ADD SLOAD PUSH1 0xC0 DUP3 ADD MSTORE PUSH1 0x7 DUP3 ADD SLOAD DUP5 SWAP4 SWAP2 SWAP3 SWAP2 PUSH1 0xE0 DUP5 ADD SWAP2 PUSH1 0xFF AND SWAP1 DUP2 GT ISZERO PUSH2 0x56F JUMPI PUSH2 0x56F PUSH2 0x1C34 JUMP JUMPDEST PUSH1 0x4 DUP2 GT ISZERO PUSH2 0x580 JUMPI PUSH2 0x580 PUSH2 0x1C34 JUMP JUMPDEST DUP2 MSTORE PUSH1 0x7 DUP3 ADD SLOAD PUSH2 0x100 SWAP1 DIV PUSH1 0xFF AND ISZERO ISZERO PUSH1 0x20 DUP3 ADD MSTORE PUSH1 0x8 DUP3 ADD DUP1 SLOAD PUSH1 0x40 SWAP1 SWAP3 ADD SWAP2 PUSH2 0x5AB SWAP1 PUSH2 0x1F3D JUMP JUMPDEST DUP1 PUSH1 0x1F ADD PUSH1 0x20 DUP1 SWAP2 DIV MUL PUSH1 0x20 ADD PUSH1 0x40 MLOAD SWAP1 DUP2 ADD PUSH1 0x40 MSTORE DUP1 SWAP3 SWAP2 SWAP1 DUP2 DUP2 MSTORE PUSH1 0x20 ADD DUP3 DUP1 SLOAD PUSH2 0x5D7 SWAP1 PUSH2 0x1F3D JUMP JUMPDEST DUP1 ISZERO PUSH2 0x624 JUMPI DUP1 PUSH1 0x1F LT PUSH2 0x5F9 JUMPI PUSH2 0x100 DUP1 DUP4 SLOAD DIV MUL DUP4 MSTORE SWAP2 PUSH1 0x20 ADD SWAP2 PUSH2 0x624 JUMP JUMPDEST DUP3 ADD SWAP2 SWAP1 PUSH1 0x0 MSTORE PUSH1 0x20 PUSH1 0x0 KECCAK256 SWAP1 JUMPDEST DUP2 SLOAD DUP2 MSTORE SWAP1 PUSH1 0x1 ADD SWAP1 PUSH1 0x20 ADD DUP1 DUP4 GT PUSH2 0x607 JUMPI DUP3 SWAP1 SUB PUSH1 0x1F AND DUP3 ADD SWAP2 JUMPDEST POP POP POP POP POP DUP2 MSTORE POP POP SWAP1 POP DUP1 PUSH2 0x100 ADD MLOAD ISZERO PUSH2 0x643 JUMPI POP PUSH1 0x0 SWAP3 SWAP2 POP POP JUMP JUMPDEST PUSH1 0x0 DUP2 PUSH1 0xE0 ADD MLOAD PUSH1 0x4 DUP2 GT ISZERO PUSH2 0x65B JUMPI PUSH2 0x65B PUSH2 0x1C34 JUMP JUMPDEST SUB PUSH2 0x669 JUMPI POP PUSH1 0x1 SWAP3 SWAP2 POP POP JUMP JUMPDEST PUSH1 0x1 DUP2 PUSH1 0xE0 ADD MLOAD PUSH1 0x4 DUP2 GT ISZERO PUSH2 0x681 JUMPI PUSH2 0x681 PUSH2 0x1C34 JUMP JUMPDEST SUB PUSH2 0x6A3 JUMPI PUSH3 0x93A80 DUP2 PUSH1 0xC0 ADD MLOAD PUSH2 0x699 SWAP2 SWAP1 PUSH2 0x1F77 JUMP JUMPDEST TIMESTAMP GT ISZERO SWAP4 SWAP3 POP POP POP JUMP JUMPDEST POP PUSH1 0x0 SWAP3 SWAP2 POP POP JUMP JUMPDEST CALLER PUSH1 0x0 SWAP1 DUP2 MSTORE PUSH1 0x5 PUSH1 0x20 MSTORE PUSH1 0x40 SWAP1 KECCAK256 SLOAD PUSH1 0xFF AND DUP1 PUSH2 0x6D4 JUMPI POP PUSH1 0x1 SLOAD PUSH1 0x1 PUSH1 0x1 PUSH1 0xA0 SHL SUB AND CALLER EQ JUMPDEST PUSH2 0x720 JUMPI PUSH1 0x40 MLOAD PUSH3 0x461BCD PUSH1 0xE5 SHL DUP2 MSTORE PUSH1 0x20 PUSH1 0x4 DUP3 ADD MSTORE PUSH1 0x17 PUSH1 0x24 DUP3 ADD MSTORE PUSH32 0x4E6F7420617574686F72697A6564207265736F6C766572000000000000000000 PUSH1 0x44 DUP3 ADD MSTORE PUSH1 0x64 ADD PUSH2 0x3C6 JUMP JUMPDEST PUSH1 0x0 DUP3 DUP2 MSTORE PUSH1 0x6 PUSH1 0x20 MSTORE PUSH1 0x40 SWAP1 KECCAK256 PUSH1 0x2 PUSH1 0x7 DUP3 ADD SLOAD PUSH1 0xFF AND PUSH1 0x4 DUP2 GT ISZERO PUSH2 0x749 JUMPI PUSH2 0x749 PUSH2 0x1C34 JUMP JUMPDEST EQ PUSH2 0x78A JUMPI PUSH1 0x40 MLOAD PUSH3 0x461BCD PUSH1 0xE5 SHL DUP2 MSTORE PUSH1 0x20 PUSH1 0x4 DUP3 ADD MSTORE PUSH1 0x11 PUSH1 0x24 DUP3 ADD MSTORE PUSH17 0x4E6F206163746976652064697370757465 PUSH1 0x78 SHL PUSH1 0x44 DUP3 ADD MSTORE PUSH1 0x64 ADD PUSH2 0x3C6 JUMP JUMPDEST DUP2 ISZERO PUSH2 0x79E JUMPI PUSH2 0x799 DUP4 PUSH2 0x1515 JUMP JUMPDEST PUSH2 0x7A7 JUMP JUMPDEST PUSH2 0x7A7 DUP4 PUSH2 0x1607 JUMP JUMPDEST PUSH1 0x40 DUP1 MLOAD DUP4 ISZERO ISZERO DUP2 MSTORE CALLER PUSH1 0x20 DUP3 ADD MSTORE DUP5 SWAP2 PUSH32 0xC960B0A8D05987D3303A43FBCE4CCF8CCC3262A2B5517A35C97FC8848C23054C SWAP2 ADD PUSH1 0x40 MLOAD DUP1 SWAP2 SUB SWAP1 LOG2 POP POP POP JUMP JUMPDEST PUSH1 0x0 DUP2 DUP2 MSTORE PUSH1 0x6 PUSH1 0x20 MSTORE PUSH1 0x40 SWAP1 KECCAK256 PUSH1 0x1 PUSH1 0x7 DUP3 ADD SLOAD PUSH1 0xFF AND PUSH1 0x4 DUP2 GT ISZERO PUSH2 0x811 JUMPI PUSH2 0x811 PUSH2 0x1C34 JUMP JUMPDEST EQ PUSH2 0x84E JUMPI PUSH1 0x40 MLOAD PUSH3 0x461BCD PUSH1 0xE5 SHL DUP2 MSTORE PUSH1 0x20 PUSH1 0x4 DUP3 ADD MSTORE PUSH1 0xD PUSH1 0x24 DUP3 ADD MSTORE PUSH13 0x139BDD0818DBDB999A5C9B5959 PUSH1 0x9A SHL PUSH1 0x44 DUP3 ADD MSTORE PUSH1 0x64 ADD PUSH2 0x3C6 JUMP JUMPDEST PUSH1 0x7 DUP2 ADD SLOAD PUSH2 0x100 SWAP1 DIV PUSH1 0xFF AND ISZERO PUSH2 0x899 JUMPI PUSH1 0x40 MLOAD PUSH3 0x461BCD PUSH1 0xE5 SHL DUP2 MSTORE PUSH1 0x20 PUSH1 0x4 DUP3 ADD MSTORE PUSH1 0xE PUSH1 0x24 DUP3 ADD MSTORE PUSH14 0x4469737075746520616374697665 PUSH1 0x90 SHL PUSH1 0x44 DUP3 ADD MSTORE PUSH1 0x64 ADD PUSH2 0x3C6 JUMP JUMPDEST PUSH3 0x93A80 DUP2 PUSH1 0x6 ADD SLOAD PUSH2 0x8AC SWAP2 SWAP1 PUSH2 0x1F77 JUMP JUMPDEST TIMESTAMP GT PUSH2 0x8FA JUMPI PUSH1 0x40 MLOAD PUSH3 0x461BCD PUSH1 0xE5 SHL DUP2 MSTORE PUSH1 0x20 PUSH1 0x4 DUP3 ADD MSTORE PUSH1 0x1A PUSH1 0x24 DUP3 ADD MSTORE PUSH32 0x4469737075746520706572696F64206E6F742065787069726564000000000000 PUSH1 0x44 DUP3 ADD MSTORE PUSH1 0x64 ADD PUSH2 0x3C6 JUMP JUMPDEST PUSH2 0x903 DUP3 PUSH2 0x1607 JUMP JUMPDEST POP POP JUMP JUMPDEST PUSH2 0x90F PUSH2 0x14BB JUMP JUMPDEST PUSH1 0x1 PUSH1 0x1 PUSH1 0xA0 SHL SUB SWAP2 SWAP1 SWAP2 AND PUSH1 0x0 SWAP1 DUP2 MSTORE PUSH1 0x5 PUSH1 0x20 MSTORE PUSH1 0x40 SWAP1 KECCAK256 DUP1 SLOAD PUSH1 0xFF NOT AND SWAP2 ISZERO ISZERO SWAP2 SWAP1 SWAP2 OR SWAP1 SSTORE JUMP JUMPDEST PUSH2 0x942 PUSH2 0x14BB JUMP JUMPDEST PUSH2 0x94C PUSH1 0x0 PUSH2 0x16F2 JUMP JUMPDEST JUMP JUMPDEST PUSH2 0x956 PUSH2 0x14BB JUMP JUMPDEST PUSH2 0x95E PUSH2 0x1744 JUMP JUMPDEST PUSH2 0x903 PUSH2 0x973 PUSH1 0x1 SLOAD PUSH1 0x1 PUSH1 0x1 PUSH1 0xA0 SHL SUB AND SWAP1 JUMP JUMPDEST PUSH1 0x1 PUSH1 0x1 PUSH1 0xA0 SHL SUB DUP5 AND SWAP1 DUP4 PUSH2 0x1794 JUMP JUMPDEST PUSH1 0x0 DUP2 DUP2 MSTORE PUSH1 0x6 PUSH1 0x20 SWAP1 DUP2 MSTORE PUSH1 0x40 DUP1 DUP4 KECCAK256 PUSH1 0x2 ADD SLOAD CALLER DUP5 MSTORE PUSH1 0x4 SWAP1 SWAP3 MSTORE SWAP1 SWAP2 KECCAK256 SLOAD PUSH1 0xFF AND PUSH2 0x9F4 JUMPI PUSH1 0x40 MLOAD PUSH3 0x461BCD PUSH1 0xE5 SHL DUP2 MSTORE PUSH1 0x20 PUSH1 0x4 DUP3 ADD MSTORE PUSH1 0x17 PUSH1 0x24 DUP3 ADD MSTORE PUSH32 0x4E6F7420617574686F72697A6564206D65726368616E74000000000000000000 PUSH1 0x44 DUP3 ADD MSTORE PUSH1 0x64 ADD PUSH2 0x3C6 JUMP JUMPDEST PUSH1 0x0 DUP3 DUP2 MSTORE PUSH1 0x6 PUSH1 0x20 MSTORE PUSH1 0x40 DUP2 KECCAK256 SWAP1 PUSH1 0x7 DUP3 ADD SLOAD PUSH1 0xFF AND PUSH1 0x4 DUP2 GT ISZERO PUSH2 0xA1C JUMPI PUSH2 0xA1C PUSH2 0x1C34 JUMP JUMPDEST EQ PUSH2 0xA61 JUMPI PUSH1 0x40 MLOAD PUSH3 0x461BCD PUSH1 0xE5 SHL DUP2 MSTORE PUSH1 0x20 PUSH1 0x4 DUP3 ADD MSTORE PUSH1 0x15 PUSH1 0x24 DUP3 ADD MSTORE PUSH21 0x496E76616C696420657363726F7720737461747573 PUSH1 0x58 SHL PUSH1 0x44 DUP3 ADD MSTORE PUSH1 0x64 ADD PUSH2 0x3C6 JUMP JUMPDEST PUSH1 0x7 DUP2 ADD SLOAD PUSH2 0x100 SWAP1 DIV PUSH1 0xFF AND ISZERO PUSH2 0xABB JUMPI PUSH1 0x40 MLOAD PUSH3 0x461BCD PUSH1 0xE5 SHL DUP2 MSTORE PUSH1 0x20 PUSH1 0x4 DUP3 ADD MSTORE PUSH1 0x1D PUSH1 0x24 DUP3 ADD MSTORE PUSH32 0x43616E6E6F7420636F6E6669726D20647572696E672064697370757465000000 PUSH1 0x44 DUP3 ADD MSTORE PUSH1 0x64 ADD PUSH2 0x3C6 JUMP JUMPDEST PUSH1 0x7 DUP2 ADD DUP1 SLOAD PUSH1 0xFF NOT AND PUSH1 0x1 OR SWAP1 SSTORE TIMESTAMP PUSH1 0x6 DUP3 ADD DUP2 SWAP1 SSTORE PUSH1 0x40 MLOAD SWAP1 DUP2 MSTORE CALLER SWAP1 DUP5 SWAP1 PUSH32 0xEED1DA2F4F47568C566AAAD60B44E45FC6AE9138BEE9A984F7661888CA5DC334 SWAP1 PUSH1 0x20 ADD PUSH1 0x40 MLOAD DUP1 SWAP2 SUB SWAP1 LOG3 POP POP POP JUMP JUMPDEST PUSH2 0xB16 PUSH2 0x17FC JUMP JUMPDEST PUSH2 0xB1E PUSH2 0x1855 JUMP JUMPDEST PUSH1 0x0 DUP6 DUP2 MSTORE PUSH1 0x6 PUSH1 0x20 MSTORE PUSH1 0x40 SWAP1 KECCAK256 PUSH1 0x4 ADD SLOAD ISZERO PUSH2 0xB75 JUMPI PUSH1 0x40 MLOAD PUSH3 0x461BCD PUSH1 0xE5 SHL DUP2 MSTORE PUSH1 0x20 PUSH1 0x4 DUP3 ADD MSTORE PUSH1 0x15 PUSH1 0x24 DUP3 ADD MSTORE PUSH21 0x457363726F7720616C726561647920657869737473 PUSH1 0x58 SHL PUSH1 0x44 DUP3 ADD MSTORE PUSH1 0x64 ADD PUSH2 0x3C6 JUMP JUMPDEST PUSH1 0x0 DUP2 GT PUSH2 0xBB6 JUMPI PUSH1 0x40 MLOAD PUSH3 0x461BCD PUSH1 0xE5 SHL DUP2 MSTORE PUSH1 0x20 PUSH1 0x4 DUP3 ADD MSTORE PUSH1 0xE PUSH1 0x24 DUP3 ADD MSTORE PUSH14 0x125B9D985B1A5908185B5BDD5B9D PUSH1 0x92 SHL PUSH1 0x44 DUP3 ADD MSTORE PUSH1 0x64 ADD PUSH2 0x3C6 JUMP JUMPDEST PUSH1 0x1 PUSH1 0x1 PUSH1 0xA0 SHL SUB DUP3 AND PUSH2 0xC0C JUMPI PUSH1 0x40 MLOAD PUSH3 0x461BCD PUSH1 0xE5 SHL DUP2 MSTORE PUSH1 0x20 PUSH1 0x4 DUP3 ADD MSTORE PUSH1 0x17 PUSH1 0x24 DUP3 ADD MSTORE PUSH32 0x496E76616C6964206D65726368616E742077616C6C6574000000000000000000 PUSH1 0x44 DUP3 ADD MSTORE PUSH1 0x64 ADD PUSH2 0x3C6 JUMP JUMPDEST PUSH1 0x2 SLOAD PUSH1 0x1 PUSH1 0x1 PUSH1 0xA0 SHL SUB AND CALLER SUB PUSH2 0xC41 JUMPI PUSH1 0x2 SLOAD PUSH1 0x3 SLOAD PUSH2 0xC3C SWAP2 PUSH1 0x1 PUSH1 0x1 PUSH1 0xA0 SHL SUB SWAP2 DUP3 AND SWAP2 AND ADDRESS DUP5 PUSH2 0x18A2 JUMP JUMPDEST PUSH2 0xCB1 JUMP JUMPDEST CALLER PUSH1 0x1 PUSH1 0x1 PUSH1 0xA0 SHL SUB DUP6 AND EQ PUSH2 0xC99 JUMPI PUSH1 0x40 MLOAD PUSH3 0x461BCD PUSH1 0xE5 SHL DUP2 MSTORE PUSH1 0x20 PUSH1 0x4 DUP3 ADD MSTORE PUSH1 0x1E PUSH1 0x24 DUP3 ADD MSTORE PUSH32 0x43616C6C6572206D757374206D61746368207573657220616464726573730000 PUSH1 0x44 DUP3 ADD MSTORE PUSH1 0x64 ADD PUSH2 0x3C6 JUMP JUMPDEST PUSH1 0x3 SLOAD PUSH2 0xCB1 SWAP1 PUSH1 0x1 PUSH1 0x1 PUSH1 0xA0 SHL SUB AND CALLER ADDRESS DUP5 PUSH2 0x18A2 JUMP JUMPDEST PUSH1 0x40 MLOAD DUP1 PUSH2 0x140 ADD PUSH1 0x40 MSTORE DUP1 DUP7 DUP2 MSTORE PUSH1 0x20 ADD DUP6 PUSH1 0x1 PUSH1 0x1 PUSH1 0xA0 SHL SUB AND DUP2 MSTORE PUSH1 0x20 ADD DUP5 DUP2 MSTORE PUSH1 0x20 ADD DUP4 PUSH1 0x1 PUSH1 0x1 PUSH1 0xA0 SHL SUB AND DUP2 MSTORE PUSH1 0x20 ADD DUP3 DUP2 MSTORE PUSH1 0x20 ADD TIMESTAMP DUP2 MSTORE PUSH1 0x20 ADD PUSH1 0x0 DUP2 MSTORE PUSH1 0x20 ADD PUSH1 0x0 PUSH1 0x4 DUP2 GT ISZERO PUSH2 0xD0D JUMPI PUSH2 0xD0D PUSH2 0x1C34 JUMP JUMPDEST DUP2 MSTORE PUSH1 0x0 PUSH1 0x20 DUP1 DUP4 ADD DUP3 SWAP1 MSTORE PUSH1 0x40 DUP1 MLOAD DUP1 DUP4 ADD DUP3 MSTORE DUP4 DUP2 MSTORE SWAP4 DUP2 ADD SWAP4 SWAP1 SWAP4 MSTORE DUP9 DUP3 MSTORE PUSH1 0x6 DUP1 DUP3 MSTORE SWAP2 DUP4 SWAP1 KECCAK256 DUP5 MLOAD DUP2 SSTORE SWAP1 DUP5 ADD MLOAD PUSH1 0x1 DUP3 DUP2 ADD DUP1 SLOAD PUSH1 0x1 PUSH1 0x1 PUSH1 0xA0 SHL SUB SWAP4 DUP5 AND PUSH1 0x1 PUSH1 0x1 PUSH1 0xA0 SHL SUB NOT SWAP2 DUP3 AND OR SWAP1 SWAP2 SSTORE SWAP5 DUP7 ADD MLOAD PUSH1 0x2 DUP5 ADD SSTORE PUSH1 0x60 DUP7 ADD MLOAD PUSH1 0x3 DUP5 ADD DUP1 SLOAD SWAP2 SWAP1 SWAP4 AND SWAP6 AND SWAP5 SWAP1 SWAP5 OR SWAP1 SSTORE PUSH1 0x80 DUP5 ADD MLOAD PUSH1 0x4 DUP1 DUP4 ADD SWAP2 SWAP1 SWAP2 SSTORE PUSH1 0xA0 DUP6 ADD MLOAD PUSH1 0x5 DUP4 ADD SSTORE PUSH1 0xC0 DUP6 ADD MLOAD SWAP3 DUP3 ADD SWAP3 SWAP1 SWAP3 SSTORE PUSH1 0xE0 DUP5 ADD MLOAD PUSH1 0x7 DUP3 ADD DUP1 SLOAD SWAP3 SWAP5 SWAP2 SWAP4 SWAP1 SWAP3 PUSH1 0xFF NOT AND SWAP2 SWAP1 DUP5 SWAP1 DUP2 GT ISZERO PUSH2 0xDCE JUMPI PUSH2 0xDCE PUSH2 0x1C34 JUMP JUMPDEST MUL OR SWAP1 SSTORE POP PUSH2 0x100 DUP3 DUP2 ADD MLOAD PUSH1 0x7 DUP4 ADD DUP1 SLOAD PUSH2 0xFF00 NOT AND SWAP2 ISZERO ISZERO SWAP1 SWAP3 MUL OR SWAP1 SSTORE PUSH2 0x120 DUP3 ADD MLOAD PUSH1 0x8 DUP3 ADD SWAP1 PUSH2 0xE03 SWAP1 DUP3 PUSH2 0x2002 JUMP JUMPDEST POP POP PUSH1 0x40 DUP1 MLOAD DUP6 DUP2 MSTORE PUSH1 0x20 DUP2 ADD DUP5 SWAP1 MSTORE PUSH1 0x1 PUSH1 0x1 PUSH1 0xA0 SHL SUB DUP8 AND SWAP3 POP DUP8 SWAP2 PUSH32 0x26F97417B32FDAF792DABCB9BFAE983A94E40F76F1E4A15BDB874283654B0D66 SWAP2 ADD PUSH1 0x40 MLOAD DUP1 SWAP2 SUB SWAP1 LOG3 PUSH2 0xE56 PUSH1 0x1 PUSH1 0x0 SSTORE JUMP JUMPDEST POP POP POP POP POP JUMP JUMPDEST PUSH1 0x0 DUP2 DUP2 MSTORE PUSH1 0x6 PUSH1 0x20 MSTORE PUSH1 0x40 DUP2 KECCAK256 SWAP1 PUSH1 0x7 DUP3 ADD SLOAD PUSH1 0xFF AND PUSH1 0x4 DUP2 GT ISZERO PUSH2 0xE85 JUMPI PUSH2 0xE85 PUSH2 0x1C34 JUMP JUMPDEST EQ PUSH2 0xED2 JUMPI PUSH1 0x40 MLOAD PUSH3 0x461BCD PUSH1 0xE5 SHL DUP2 MSTORE PUSH1 0x20 PUSH1 0x4 DUP3 ADD MSTORE PUSH1 0x17 PUSH1 0x24 DUP3 ADD MSTORE PUSH32 0x4E6F7420696E206465706F736974656420737461747573000000000000000000 PUSH1 0x44 DUP3 ADD MSTORE PUSH1 0x64 ADD PUSH2 0x3C6 JUMP JUMPDEST PUSH1 0x7 DUP2 ADD SLOAD PUSH2 0x100 SWAP1 DIV PUSH1 0xFF AND ISZERO PUSH2 0xF1D JUMPI PUSH1 0x40 MLOAD PUSH3 0x461BCD PUSH1 0xE5 SHL DUP2 MSTORE PUSH1 0x20 PUSH1 0x4 DUP3 ADD MSTORE PUSH1 0xE PUSH1 0x24 DUP3 ADD MSTORE PUSH14 0x4469737075746520616374697665 PUSH1 0x90 SHL PUSH1 0x44 DUP3 ADD MSTORE PUSH1 0x64 ADD PUSH2 0x3C6 JUMP JUMPDEST PUSH3 0x278D00 DUP2 PUSH1 0x5 ADD SLOAD PUSH2 0xF30 SWAP2 SWAP1 PUSH2 0x1F77 JUMP JUMPDEST TIMESTAMP GT PUSH2 0xF7E JUMPI PUSH1 0x40 MLOAD PUSH3 0x461BCD PUSH1 0xE5 SHL DUP2 MSTORE PUSH1 0x20 PUSH1 0x4 DUP3 ADD MSTORE PUSH1 0x1F PUSH1 0x24 DUP3 ADD MSTORE PUSH32 0x4175746F2D72656C6561736520706572696F64206E6F74207265616368656400 PUSH1 0x44 DUP3 ADD MSTORE PUSH1 0x64 ADD PUSH2 0x3C6 JUMP JUMPDEST PUSH2 0xF87 DUP3 PUSH2 0x1607 JUMP JUMPDEST DUP2 PUSH32 0x6D55C23B02FC54AB6459E5D9449D117274CD5755162ABF1AB650EBDDDDB74BC0 DUP3 PUSH1 0x4 ADD SLOAD PUSH1 0x40 MLOAD PUSH2 0xFBD SWAP2 DUP2 MSTORE PUSH1 0x20 ADD SWAP1 JUMP JUMPDEST PUSH1 0x40 MLOAD DUP1 SWAP2 SUB SWAP1 LOG2 POP POP JUMP JUMPDEST PUSH2 0xFD1 PUSH2 0x14BB JUMP JUMPDEST PUSH1 0x1 PUSH1 0x1 PUSH1 0xA0 SHL SUB SWAP2 SWAP1 SWAP2 AND PUSH1 0x0 SWAP1 DUP2 MSTORE PUSH1 0x4 PUSH1 0x20 MSTORE PUSH1 0x40 SWAP1 KECCAK256 DUP1 SLOAD PUSH1 0xFF NOT AND SWAP2 ISZERO ISZERO SWAP2 SWAP1 SWAP2 OR SWAP1 SSTORE JUMP JUMPDEST PUSH1 0x0 DUP4 DUP2 MSTORE PUSH1 0x6 PUSH1 0x20 MSTORE PUSH1 0x40 SWAP1 KECCAK256 PUSH1 0x1 DUP2 ADD SLOAD PUSH1 0x1 PUSH1 0x1 PUSH1 0xA0 SHL SUB AND CALLER EQ PUSH2 0x1066 JUMPI PUSH1 0x40 MLOAD PUSH3 0x461BCD PUSH1 0xE5 SHL DUP2 MSTORE PUSH1 0x20 PUSH1 0x4 DUP3 ADD MSTORE PUSH1 0x1B PUSH1 0x24 DUP3 ADD MSTORE PUSH32 0x4F6E6C7920757365722063616E20726169736520646973707574650000000000 PUSH1 0x44 DUP3 ADD MSTORE PUSH1 0x64 ADD PUSH2 0x3C6 JUMP JUMPDEST PUSH1 0x0 PUSH1 0x7 DUP3 ADD SLOAD PUSH1 0xFF AND PUSH1 0x4 DUP2 GT ISZERO PUSH2 0x1081 JUMPI PUSH2 0x1081 PUSH2 0x1C34 JUMP JUMPDEST EQ DUP1 PUSH2 0x10A5 JUMPI POP PUSH1 0x1 PUSH1 0x7 DUP3 ADD SLOAD PUSH1 0xFF AND PUSH1 0x4 DUP2 GT ISZERO PUSH2 0x10A3 JUMPI PUSH2 0x10A3 PUSH2 0x1C34 JUMP JUMPDEST EQ JUMPDEST PUSH2 0x10E2 JUMPI PUSH1 0x40 MLOAD PUSH3 0x461BCD PUSH1 0xE5 SHL DUP2 MSTORE PUSH1 0x20 PUSH1 0x4 DUP3 ADD MSTORE PUSH1 0xE PUSH1 0x24 DUP3 ADD MSTORE PUSH14 0x496E76616C696420737461747573 PUSH1 0x90 SHL PUSH1 0x44 DUP3 ADD MSTORE PUSH1 0x64 ADD PUSH2 0x3C6 JUMP JUMPDEST PUSH1 0x7 DUP2 ADD SLOAD PUSH2 0x100 SWAP1 DIV PUSH1 0xFF AND ISZERO PUSH2 0x1135 JUMPI PUSH1 0x40 MLOAD PUSH3 0x461BCD PUSH1 0xE5 SHL DUP2 MSTORE PUSH1 0x20 PUSH1 0x4 DUP3 ADD MSTORE PUSH1 0x16 PUSH1 0x24 DUP3 ADD MSTORE PUSH22 0x111A5CDC1D5D1948185B1C9958591E481C985A5CD959 PUSH1 0x52 SHL PUSH1 0x44 DUP3 ADD MSTORE PUSH1 0x64 ADD PUSH2 0x3C6 JUMP JUMPDEST DUP2 PUSH2 0x1182 JUMPI PUSH1 0x40 MLOAD PUSH3 0x461BCD PUSH1 0xE5 SHL DUP2 MSTORE PUSH1 0x20 PUSH1 0x4 DUP3 ADD MSTORE PUSH1 0x17 PUSH1 0x24 DUP3 ADD MSTORE PUSH32 0x4469737075746520726561736F6E207265717569726564000000000000000000 PUSH1 0x44 DUP3 ADD MSTORE PUSH1 0x64 ADD PUSH2 0x3C6 JUMP JUMPDEST PUSH1 0x1 PUSH1 0x7 DUP3 ADD SLOAD PUSH1 0xFF AND PUSH1 0x4 DUP2 GT ISZERO PUSH2 0x119D JUMPI PUSH2 0x119D PUSH2 0x1C34 JUMP JUMPDEST SUB PUSH2 0x11FD JUMPI PUSH3 0x93A80 DUP2 PUSH1 0x6 ADD SLOAD PUSH2 0x11B5 SWAP2 SWAP1 PUSH2 0x1F77 JUMP JUMPDEST TIMESTAMP GT ISZERO PUSH2 0x11FD JUMPI PUSH1 0x40 MLOAD PUSH3 0x461BCD PUSH1 0xE5 SHL DUP2 MSTORE PUSH1 0x20 PUSH1 0x4 DUP3 ADD MSTORE PUSH1 0x16 PUSH1 0x24 DUP3 ADD MSTORE PUSH22 0x111A5CDC1D5D19481C195C9A5BD908195E1C1A5C9959 PUSH1 0x52 SHL PUSH1 0x44 DUP3 ADD MSTORE PUSH1 0x64 ADD PUSH2 0x3C6 JUMP JUMPDEST PUSH1 0x7 DUP2 ADD DUP1 SLOAD PUSH2 0xFF00 NOT AND PUSH2 0x100 OR SWAP1 SSTORE PUSH1 0x8 DUP2 ADD PUSH2 0x121D DUP4 DUP6 DUP4 PUSH2 0x20C2 JUMP JUMPDEST POP PUSH1 0x7 DUP2 ADD DUP1 SLOAD PUSH1 0xFF NOT AND PUSH1 0x2 OR SWAP1 SSTORE PUSH1 0x40 MLOAD CALLER SWAP1 DUP6 SWAP1 PUSH32 0x49E53FD224357020766CE272815E8A15C300AACE14A011CFCDED9335798FBD0E SWAP1 PUSH2 0x1263 SWAP1 DUP8 SWAP1 DUP8 SWAP1 PUSH2 0x2182 JUMP JUMPDEST PUSH1 0x40 MLOAD DUP1 SWAP2 SUB SWAP1 LOG3 POP POP POP POP JUMP JUMPDEST PUSH2 0x1279 PUSH2 0x14BB JUMP JUMPDEST PUSH1 0x1 SLOAD PUSH1 0x1 PUSH1 0xA0 SHL SWAP1 DIV PUSH1 0xFF AND ISZERO PUSH2 0x1293 JUMPI PUSH2 0x94C PUSH2 0x18E0 JUMP JUMPDEST PUSH2 0x94C PUSH2 0x1935 JUMP JUMPDEST PUSH2 0x12F1 PUSH1 0x40 DUP1 MLOAD PUSH2 0x140 DUP2 ADD DUP3 MSTORE PUSH1 0x0 DUP1 DUP3 MSTORE PUSH1 0x20 DUP3 ADD DUP2 SWAP1 MSTORE SWAP2 DUP2 ADD DUP3 SWAP1 MSTORE PUSH1 0x60 DUP2 ADD DUP3 SWAP1 MSTORE PUSH1 0x80 DUP2 ADD DUP3 SWAP1 MSTORE PUSH1 0xA0 DUP2 ADD DUP3 SWAP1 MSTORE PUSH1 0xC0 DUP2 ADD DUP3 SWAP1 MSTORE SWAP1 PUSH1 0xE0 DUP3 ADD SWAP1 DUP2 MSTORE PUSH1 0x0 PUSH1 0x20 DUP3 ADD MSTORE PUSH1 0x60 PUSH1 0x40 SWAP1 SWAP2 ADD MSTORE SWAP1 JUMP JUMPDEST PUSH1 0x0 DUP3 DUP2 MSTORE PUSH1 0x6 PUSH1 0x20 DUP2 DUP2 MSTORE PUSH1 0x40 SWAP3 DUP4 SWAP1 KECCAK256 DUP4 MLOAD PUSH2 0x140 DUP2 ADD DUP6 MSTORE DUP2 SLOAD DUP2 MSTORE PUSH1 0x1 DUP3 ADD SLOAD PUSH1 0x1 PUSH1 0x1 PUSH1 0xA0 SHL SUB SWAP1 DUP2 AND SWAP4 DUP3 ADD SWAP4 SWAP1 SWAP4 MSTORE PUSH1 0x2 DUP3 ADD SLOAD SWAP5 DUP2 ADD SWAP5 SWAP1 SWAP5 MSTORE PUSH1 0x3 DUP2 ADD SLOAD SWAP1 SWAP2 AND PUSH1 0x60 DUP5 ADD MSTORE PUSH1 0x4 DUP1 DUP3 ADD SLOAD PUSH1 0x80 DUP6 ADD MSTORE PUSH1 0x5 DUP3 ADD SLOAD PUSH1 0xA0 DUP6 ADD MSTORE SWAP2 DUP2 ADD SLOAD PUSH1 0xC0 DUP5 ADD MSTORE PUSH1 0x7 DUP2 ADD SLOAD SWAP1 SWAP2 PUSH1 0xE0 DUP5 ADD SWAP2 PUSH1 0xFF AND SWAP1 DUP2 GT ISZERO PUSH2 0x137D JUMPI PUSH2 0x137D PUSH2 0x1C34 JUMP JUMPDEST PUSH1 0x4 DUP2 GT ISZERO PUSH2 0x138E JUMPI PUSH2 0x138E PUSH2 0x1C34 JUMP JUMPDEST DUP2 MSTORE PUSH1 0x7 DUP3 ADD SLOAD PUSH2 0x100 SWAP1 DIV PUSH1 0xFF AND ISZERO ISZERO PUSH1 0x20 DUP3 ADD MSTORE PUSH1 0x8 DUP3 ADD DUP1 SLOAD PUSH1 0x40 SWAP1 SWAP3 ADD SWAP2 PUSH2 0x13B9 SWAP1 PUSH2 0x1F3D JUMP JUMPDEST DUP1 PUSH1 0x1F ADD PUSH1 0x20 DUP1 SWAP2 DIV MUL PUSH1 0x20 ADD PUSH1 0x40 MLOAD SWAP1 DUP2 ADD PUSH1 0x40 MSTORE DUP1 SWAP3 SWAP2 SWAP1 DUP2 DUP2 MSTORE PUSH1 0x20 ADD DUP3 DUP1 SLOAD PUSH2 0x13E5 SWAP1 PUSH2 0x1F3D JUMP JUMPDEST DUP1 ISZERO PUSH2 0x1432 JUMPI DUP1 PUSH1 0x1F LT PUSH2 0x1407 JUMPI PUSH2 0x100 DUP1 DUP4 SLOAD DIV MUL DUP4 MSTORE SWAP2 PUSH1 0x20 ADD SWAP2 PUSH2 0x1432 JUMP JUMPDEST DUP3 ADD SWAP2 SWAP1 PUSH1 0x0 MSTORE PUSH1 0x20 PUSH1 0x0 KECCAK256 SWAP1 JUMPDEST DUP2 SLOAD DUP2 MSTORE SWAP1 PUSH1 0x1 ADD SWAP1 PUSH1 0x20 ADD DUP1 DUP4 GT PUSH2 0x1415 JUMPI DUP3 SWAP1 SUB PUSH1 0x1F AND DUP3 ADD SWAP2 JUMPDEST POP POP POP POP POP DUP2 MSTORE POP POP SWAP1 POP SWAP2 SWAP1 POP JUMP JUMPDEST PUSH2 0x144A PUSH2 0x14BB JUMP JUMPDEST PUSH1 0x1 PUSH1 0x1 PUSH1 0xA0 SHL SUB DUP2 AND PUSH2 0x14AF JUMPI PUSH1 0x40 MLOAD PUSH3 0x461BCD PUSH1 0xE5 SHL DUP2 MSTORE PUSH1 0x20 PUSH1 0x4 DUP3 ADD MSTORE PUSH1 0x26 PUSH1 0x24 DUP3 ADD MSTORE PUSH32 0x4F776E61626C653A206E6577206F776E657220697320746865207A65726F2061 PUSH1 0x44 DUP3 ADD MSTORE PUSH6 0x646472657373 PUSH1 0xD0 SHL PUSH1 0x64 DUP3 ADD MSTORE PUSH1 0x84 ADD PUSH2 0x3C6 JUMP JUMPDEST PUSH2 0x14B8 DUP2 PUSH2 0x16F2 JUMP JUMPDEST POP JUMP JUMPDEST PUSH1 0x1 SLOAD PUSH1 0x1 PUSH1 0x1 PUSH1 0xA0 SHL SUB AND CALLER EQ PUSH2 0x94C JUMPI PUSH1 0x40 MLOAD PUSH3 0x461BCD PUSH1 0xE5 SHL DUP2 MSTORE PUSH1 0x20 PUSH1 0x4 DUP3 ADD DUP2 SWAP1 MSTORE PUSH1 0x24 DUP3 ADD MSTORE PUSH32 0x4F776E61626C653A2063616C6C6572206973206E6F7420746865206F776E6572 PUSH1 0x44 DUP3 ADD MSTORE PUSH1 0x64 ADD PUSH2 0x3C6 JUMP JUMPDEST PUSH1 0x0 DUP2 DUP2 MSTORE PUSH1 0x6 PUSH1 0x20 MSTORE PUSH1 0x40 SWAP1 KECCAK256 PUSH1 0x7 DUP2 ADD DUP1 SLOAD PUSH1 0xFF NOT AND PUSH1 0x4 SWAP1 DUP2 OR SWAP1 SWAP2 SSTORE PUSH1 0x1 DUP3 ADD SLOAD SWAP1 DUP3 ADD SLOAD PUSH1 0x3 SLOAD PUSH2 0x1559 SWAP3 PUSH1 0x1 PUSH1 0x1 PUSH1 0xA0 SHL SUB SWAP2 DUP3 AND SWAP3 SWAP2 AND SWAP1 PUSH2 0x1794 JUMP JUMPDEST PUSH1 0x2 SLOAD PUSH1 0x40 MLOAD PUSH4 0x4FEB80C1 PUSH1 0xE1 SHL DUP2 MSTORE PUSH1 0x4 DUP2 ADD DUP5 SWAP1 MSTORE PUSH1 0x1 PUSH1 0x1 PUSH1 0xA0 SHL SUB SWAP1 SWAP2 AND SWAP1 PUSH4 0x9FD70182 SWAP1 PUSH1 0x24 ADD PUSH1 0x0 PUSH1 0x40 MLOAD DUP1 DUP4 SUB DUP2 PUSH1 0x0 DUP8 DUP1 EXTCODESIZE ISZERO DUP1 ISZERO PUSH2 0x159F JUMPI PUSH1 0x0 DUP1 REVERT JUMPDEST POP GAS CALL ISZERO DUP1 ISZERO PUSH2 0x15B3 JUMPI RETURNDATASIZE PUSH1 0x0 DUP1 RETURNDATACOPY RETURNDATASIZE PUSH1 0x0 REVERT JUMPDEST POP POP POP POP PUSH1 0x1 DUP2 ADD SLOAD PUSH1 0x4 DUP3 ADD SLOAD PUSH1 0x40 MLOAD SWAP1 DUP2 MSTORE PUSH1 0x1 PUSH1 0x1 PUSH1 0xA0 SHL SUB SWAP1 SWAP2 AND SWAP1 DUP4 SWAP1 PUSH32 0xBB0AF7321A16834399146AB3819202A61859E53D69BD9CF889C444DFE69F1BB2 SWAP1 PUSH1 0x20 ADD JUMPDEST PUSH1 0x40 MLOAD DUP1 SWAP2 SUB SWAP1 LOG3 POP POP JUMP JUMPDEST PUSH1 0x0 DUP2 DUP2 MSTORE PUSH1 0x6 PUSH1 0x20 MSTORE PUSH1 0x40 SWAP1 KECCAK256 PUSH1 0x7 DUP2 ADD DUP1 SLOAD PUSH1 0xFF NOT AND PUSH1 0x3 SWAP1 DUP2 OR SWAP1 SWAP2 SSTORE DUP1 DUP3 ADD SLOAD PUSH1 0x4 DUP4 ADD SLOAD SWAP2 SLOAD PUSH2 0x164C SWAP3 PUSH1 0x1 PUSH1 0x1 PUSH1 0xA0 SHL SUB SWAP2 DUP3 AND SWAP3 SWAP2 SWAP1 SWAP2 AND SWAP1 PUSH2 0x1794 JUMP JUMPDEST PUSH1 0x2 SLOAD PUSH1 0x40 MLOAD PUSH4 0xB4FE2C47 PUSH1 0xE0 SHL DUP2 MSTORE PUSH1 0x4 DUP2 ADD DUP5 SWAP1 MSTORE PUSH1 0x1 PUSH1 0x1 PUSH1 0xA0 SHL SUB SWAP1 SWAP2 AND SWAP1 PUSH4 0xB4FE2C47 SWAP1 PUSH1 0x24 ADD PUSH1 0x0 PUSH1 0x40 MLOAD DUP1 DUP4 SUB DUP2 PUSH1 0x0 DUP8 DUP1 EXTCODESIZE ISZERO DUP1 ISZERO PUSH2 0x1692 JUMPI PUSH1 0x0 DUP1 REVERT JUMPDEST POP GAS CALL ISZERO DUP1 ISZERO PUSH2 0x16A6 JUMPI RETURNDATASIZE PUSH1 0x0 DUP1 RETURNDATACOPY RETURNDATASIZE PUSH1 0x0 REVERT JUMPDEST POP POP POP POP PUSH1 0x3 DUP2 ADD SLOAD PUSH1 0x4 DUP3 ADD SLOAD PUSH1 0x40 MLOAD SWAP1 DUP2 MSTORE PUSH1 0x1 PUSH1 0x1 PUSH1 0xA0 SHL SUB SWAP1 SWAP2 AND SWAP1 DUP4 SWAP1 PUSH32 0x75D86E5BFA1175E2DC677F3ABE3AEBBA3069F2DB6AE492F1734D4B4BC65F61C1 SWAP1 PUSH1 0x20 ADD PUSH2 0x15FB JUMP JUMPDEST PUSH1 0x1 DUP1 SLOAD PUSH1 0x1 PUSH1 0x1 PUSH1 0xA0 SHL SUB DUP4 DUP2 AND PUSH1 0x1 PUSH1 0x1 PUSH1 0xA0 SHL SUB NOT DUP4 AND DUP2 OR SWAP1 SWAP4 SSTORE PUSH1 0x40 MLOAD SWAP2 AND SWAP2 SWAP1 DUP3 SWAP1 PUSH32 0x8BE0079C531659141344CD1FD0A4F28419497F9722A3DAAFE3B4186F6B6457E0 SWAP1 PUSH1 0x0 SWAP1 LOG3 POP POP JUMP JUMPDEST PUSH1 0x1 SLOAD PUSH1 0x1 PUSH1 0xA0 SHL SWAP1 DIV PUSH1 0xFF AND PUSH2 0x94C JUMPI PUSH1 0x40 MLOAD PUSH3 0x461BCD PUSH1 0xE5 SHL DUP2 MSTORE PUSH1 0x20 PUSH1 0x4 DUP3 ADD MSTORE PUSH1 0x14 PUSH1 0x24 DUP3 ADD MSTORE PUSH20 0x14185D5CD8589B194E881B9BDD081C185D5CD959 PUSH1 0x62 SHL PUSH1 0x44 DUP3 ADD MSTORE PUSH1 0x64 ADD PUSH2 0x3C6 JUMP JUMPDEST PUSH1 0x40 MLOAD PUSH1 0x1 PUSH1 0x1 PUSH1 0xA0 SHL SUB DUP4 AND PUSH1 0x24 DUP3 ADD MSTORE PUSH1 0x44 DUP2 ADD DUP3 SWAP1 MSTORE PUSH2 0x17F7 SWAP1 DUP5 SWAP1 PUSH4 0xA9059CBB PUSH1 0xE0 SHL SWAP1 PUSH1 0x64 ADD JUMPDEST PUSH1 0x40 DUP1 MLOAD PUSH1 0x1F NOT DUP2 DUP5 SUB ADD DUP2 MSTORE SWAP2 SWAP1 MSTORE PUSH1 0x20 DUP2 ADD DUP1 MLOAD PUSH1 0x1 PUSH1 0x1 PUSH1 0xE0 SHL SUB AND PUSH1 0x1 PUSH1 0x1 PUSH1 0xE0 SHL SUB NOT SWAP1 SWAP4 AND SWAP3 SWAP1 SWAP3 OR SWAP1 SWAP2 MSTORE PUSH2 0x1978 JUMP JUMPDEST POP POP POP JUMP JUMPDEST PUSH1 0x2 PUSH1 0x0 SLOAD SUB PUSH2 0x184E JUMPI PUSH1 0x40 MLOAD PUSH3 0x461BCD PUSH1 0xE5 SHL DUP2 MSTORE PUSH1 0x20 PUSH1 0x4 DUP3 ADD MSTORE PUSH1 0x1F PUSH1 0x24 DUP3 ADD MSTORE PUSH32 0x5265656E7472616E637947756172643A207265656E7472616E742063616C6C00 PUSH1 0x44 DUP3 ADD MSTORE PUSH1 0x64 ADD PUSH2 0x3C6 JUMP JUMPDEST PUSH1 0x2 PUSH1 0x0 SSTORE JUMP JUMPDEST PUSH1 0x1 SLOAD PUSH1 0x1 PUSH1 0xA0 SHL SWAP1 DIV PUSH1 0xFF AND ISZERO PUSH2 0x94C JUMPI PUSH1 0x40 MLOAD PUSH3 0x461BCD PUSH1 0xE5 SHL DUP2 MSTORE PUSH1 0x20 PUSH1 0x4 DUP3 ADD MSTORE PUSH1 0x10 PUSH1 0x24 DUP3 ADD MSTORE PUSH16 0x14185D5CD8589B194E881C185D5CD959 PUSH1 0x82 SHL PUSH1 0x44 DUP3 ADD MSTORE PUSH1 0x64 ADD PUSH2 0x3C6 JUMP JUMPDEST PUSH1 0x40 MLOAD PUSH1 0x1 PUSH1 0x1 PUSH1 0xA0 SHL SUB DUP1 DUP6 AND PUSH1 0x24 DUP4 ADD MSTORE DUP4 AND PUSH1 0x44 DUP3 ADD MSTORE PUSH1 0x64 DUP2 ADD DUP3 SWAP1 MSTORE PUSH2 0x18DA SWAP1 DUP6 SWAP1 PUSH4 0x23B872DD PUSH1 0xE0 SHL SWAP1 PUSH1 0x84 ADD PUSH2 0x17C0 JUMP JUMPDEST POP POP POP POP JUMP JUMPDEST PUSH2 0x18E8 PUSH2 0x1744 JUMP JUMPDEST PUSH1 0x1 DUP1 SLOAD PUSH1 0xFF PUSH1 0xA0 SHL NOT AND SWAP1 SSTORE PUSH32 0x5DB9EE0A495BF2E6FF9C91A7834C1BA4FDD244A5E8AA4E537BD38AEAE4B073AA CALLER JUMPDEST PUSH1 0x40 MLOAD PUSH1 0x1 PUSH1 0x1 PUSH1 0xA0 SHL SUB SWAP1 SWAP2 AND DUP2 MSTORE PUSH1 0x20 ADD PUSH1 0x40 MLOAD DUP1 SWAP2 SUB SWAP1 LOG1 JUMP JUMPDEST PUSH2 0x193D PUSH2 0x1855 JUMP JUMPDEST PUSH1 0x1 DUP1 SLOAD PUSH1 0xFF PUSH1 0xA0 SHL NOT AND PUSH1 0x1 PUSH1 0xA0 SHL OR SWAP1 SSTORE PUSH32 0x62E78CEA01BEE320CD4E420270B5EA74000D11B0C9F74754EBDBFC544B05A258 PUSH2 0x1918 CALLER SWAP1 JUMP JUMPDEST PUSH1 0x0 PUSH2 0x19CD DUP3 PUSH1 0x40 MLOAD DUP1 PUSH1 0x40 ADD PUSH1 0x40 MSTORE DUP1 PUSH1 0x20 DUP2 MSTORE PUSH1 0x20 ADD PUSH32 0x5361666545524332303A206C6F772D6C6576656C2063616C6C206661696C6564 DUP2 MSTORE POP DUP6 PUSH1 0x1 PUSH1 0x1 PUSH1 0xA0 SHL SUB AND PUSH2 0x1A4D SWAP1 SWAP3 SWAP2 SWAP1 PUSH4 0xFFFFFFFF AND JUMP JUMPDEST SWAP1 POP DUP1 MLOAD PUSH1 0x0 EQ DUP1 PUSH2 0x19EE JUMPI POP DUP1 DUP1 PUSH1 0x20 ADD SWAP1 MLOAD DUP2 ADD SWAP1 PUSH2 0x19EE SWAP2 SWAP1 PUSH2 0x21B1 JUMP JUMPDEST PUSH2 0x17F7 JUMPI PUSH1 0x40 MLOAD PUSH3 0x461BCD PUSH1 0xE5 SHL DUP2 MSTORE PUSH1 0x20 PUSH1 0x4 DUP3 ADD MSTORE PUSH1 0x2A PUSH1 0x24 DUP3 ADD MSTORE PUSH32 0x5361666545524332303A204552433230206F7065726174696F6E20646964206E PUSH1 0x44 DUP3 ADD MSTORE PUSH10 0x1BDD081CDD58D8D95959 PUSH1 0xB2 SHL PUSH1 0x64 DUP3 ADD MSTORE PUSH1 0x84 ADD PUSH2 0x3C6 JUMP JUMPDEST PUSH1 0x60 PUSH2 0x1A5C DUP5 DUP5 PUSH1 0x0 DUP6 PUSH2 0x1A64 JUMP JUMPDEST SWAP5 SWAP4 POP POP POP POP JUMP JUMPDEST PUSH1 0x60 DUP3 SELFBALANCE LT ISZERO PUSH2 0x1AC5 JUMPI PUSH1 0x40 MLOAD PUSH3 0x461BCD PUSH1 0xE5 SHL DUP2 MSTORE PUSH1 0x20 PUSH1 0x4 DUP3 ADD MSTORE PUSH1 0x26 PUSH1 0x24 DUP3 ADD MSTORE PUSH32 0x416464726573733A20696E73756666696369656E742062616C616E636520666F PUSH1 0x44 DUP3 ADD MSTORE PUSH6 0x1C8818D85B1B PUSH1 0xD2 SHL PUSH1 0x64 DUP3 ADD MSTORE PUSH1 0x84 ADD PUSH2 0x3C6 JUMP JUMPDEST PUSH1 0x0 DUP1 DUP7 PUSH1 0x1 PUSH1 0x1 PUSH1 0xA0 SHL SUB AND DUP6 DUP8 PUSH1 0x40 MLOAD PUSH2 0x1AE1 SWAP2 SWAP1 PUSH2 0x21CE JUMP JUMPDEST PUSH1 0x0 PUSH1 0x40 MLOAD DUP1 DUP4 SUB DUP2 DUP6 DUP8 GAS CALL SWAP3 POP POP POP RETURNDATASIZE DUP1 PUSH1 0x0 DUP2 EQ PUSH2 0x1B1E JUMPI PUSH1 0x40 MLOAD SWAP2 POP PUSH1 0x1F NOT PUSH1 0x3F RETURNDATASIZE ADD AND DUP3 ADD PUSH1 0x40 MSTORE RETURNDATASIZE DUP3 MSTORE RETURNDATASIZE PUSH1 0x0 PUSH1 0x20 DUP5 ADD RETURNDATACOPY PUSH2 0x1B23 JUMP JUMPDEST PUSH1 0x60 SWAP2 POP JUMPDEST POP SWAP2 POP SWAP2 POP PUSH2 0x1B34 DUP8 DUP4 DUP4 DUP8 PUSH2 0x1B3F JUMP JUMPDEST SWAP8 SWAP7 POP POP POP POP POP POP POP JUMP JUMPDEST PUSH1 0x60 DUP4 ISZERO PUSH2 0x1BAE JUMPI DUP3 MLOAD PUSH1 0x0 SUB PUSH2 0x1BA7 JUMPI PUSH1 0x1 PUSH1 0x1 PUSH1 0xA0 SHL SUB DUP6 AND EXTCODESIZE PUSH2 0x1BA7 JUMPI PUSH1 0x40 MLOAD PUSH3 0x461BCD PUSH1 0xE5 SHL DUP2 MSTORE PUSH1 0x20 PUSH1 0x4 DUP3 ADD MSTORE PUSH1 0x1D PUSH1 0x24 DUP3 ADD MSTORE PUSH32 0x416464726573733A2063616C6C20746F206E6F6E2D636F6E7472616374000000 PUSH1 0x44 DUP3 ADD MSTORE PUSH1 0x64 ADD PUSH2 0x3C6 JUMP JUMPDEST POP DUP2 PUSH2 0x1A5C JUMP JUMPDEST PUSH2 0x1A5C DUP4 DUP4 DUP2 MLOAD ISZERO PUSH2 0x1BC3 JUMPI DUP2 MLOAD DUP1 DUP4 PUSH1 0x20 ADD REVERT JUMPDEST DUP1 PUSH1 0x40 MLOAD PUSH3 0x461BCD PUSH1 0xE5 SHL DUP2 MSTORE PUSH1 0x4 ADD PUSH2 0x3C6 SWAP2 SWAP1 PUSH2 0x21EA JUMP JUMPDEST DUP1 CALLDATALOAD PUSH1 0x1 PUSH1 0x1 PUSH1 0xA0 SHL SUB DUP2 AND DUP2 EQ PUSH2 0x1BF4 JUMPI PUSH1 0x0 DUP1 REVERT JUMPDEST SWAP2 SWAP1 POP JUMP JUMPDEST PUSH1 0x0 PUSH1 0x20 DUP3 DUP5 SUB SLT ISZERO PUSH2 0x1C0B JUMPI PUSH1 0x0 DUP1 REVERT JUMPDEST PUSH2 0x1C14 DUP3 PUSH2 0x1BDD JUMP JUMPDEST SWAP4 SWAP3 POP POP POP JUMP JUMPDEST PUSH1 0x0 PUSH1 0x20 DUP3 DUP5 SUB SLT ISZERO PUSH2 0x1C2D JUMPI PUSH1 0x0 DUP1 REVERT JUMPDEST POP CALLDATALOAD SWAP2 SWAP1 POP JUMP JUMPDEST PUSH4 0x4E487B71 PUSH1 0xE0 SHL PUSH1 0x0 MSTORE PUSH1 0x21 PUSH1 0x4 MSTORE PUSH1 0x24 PUSH1 0x0 REVERT JUMPDEST PUSH1 0x5 DUP2 LT PUSH2 0x1C68 JUMPI PUSH4 0x4E487B71 PUSH1 0xE0 SHL PUSH1 0x0 MSTORE PUSH1 0x21 PUSH1 0x4 MSTORE PUSH1 0x24 PUSH1 0x0 REVERT JUMPDEST SWAP1 MSTORE JUMP JUMPDEST PUSH1 0x0 JUMPDEST DUP4 DUP2 LT ISZERO PUSH2 0x1C87 JUMPI DUP2 DUP2 ADD MLOAD DUP4 DUP3 ADD MSTORE PUSH1 0x20 ADD PUSH2 0x1C6F JUMP JUMPDEST POP POP PUSH1 0x0 SWAP2 ADD MSTORE JUMP JUMPDEST PUSH1 0x0 DUP2 MLOAD DUP1 DUP5 MSTORE PUSH2 0x1CA8 DUP2 PUSH1 0x20 DUP7 ADD PUSH1 0x20 DUP7 ADD PUSH2 0x1C6C JUMP JUMPDEST PUSH1 0x1F ADD PUSH1 0x1F NOT AND SWAP3 SWAP1 SWAP3 ADD PUSH1 0x20 ADD SWAP3 SWAP2 POP POP JUMP JUMPDEST DUP11 DUP2 MSTORE PUSH1 0x1 PUSH1 0x1 PUSH1 0xA0 SHL SUB DUP11 DUP2 AND PUSH1 0x20 DUP4 ADD MSTORE PUSH1 0x40 DUP3 ADD DUP11 SWAP1 MSTORE DUP9 AND PUSH1 0x60 DUP3 ADD MSTORE PUSH1 0x80 DUP2 ADD DUP8 SWAP1 MSTORE PUSH1 0xA0 DUP2 ADD DUP7 SWAP1 MSTORE PUSH1 0xC0 DUP2 ADD DUP6 SWAP1 MSTORE PUSH1 0x0 PUSH2 0x140 PUSH2 0x1D04 PUSH1 0xE0 DUP5 ADD DUP8 PUSH2 0x1C4A JUMP JUMPDEST DUP5 ISZERO ISZERO PUSH2 0x100 DUP5 ADD MSTORE DUP1 PUSH2 0x120 DUP5 ADD MSTORE PUSH2 0x1D20 DUP2 DUP5 ADD DUP6 PUSH2 0x1C90 JUMP JUMPDEST SWAP14 SWAP13 POP POP POP POP POP POP POP POP POP POP POP POP POP JUMP JUMPDEST DUP1 ISZERO ISZERO DUP2 EQ PUSH2 0x14B8 JUMPI PUSH1 0x0 DUP1 REVERT JUMPDEST PUSH1 0x0 DUP1 PUSH1 0x40 DUP4 DUP6 SUB SLT ISZERO PUSH2 0x1D52 JUMPI PUSH1 0x0 DUP1 REVERT JUMPDEST DUP3 CALLDATALOAD SWAP2 POP PUSH1 0x20 DUP4 ADD CALLDATALOAD PUSH2 0x1D64 DUP2 PUSH2 0x1D31 JUMP JUMPDEST DUP1 SWAP2 POP POP SWAP3 POP SWAP3 SWAP1 POP JUMP JUMPDEST PUSH1 0x0 DUP1 PUSH1 0x40 DUP4 DUP6 SUB SLT ISZERO PUSH2 0x1D82 JUMPI PUSH1 0x0 DUP1 REVERT JUMPDEST PUSH2 0x1D8B DUP4 PUSH2 0x1BDD JUMP JUMPDEST SWAP2 POP PUSH1 0x20 DUP4 ADD CALLDATALOAD PUSH2 0x1D64 DUP2 PUSH2 0x1D31 JUMP JUMPDEST PUSH1 0x0 DUP1 PUSH1 0x40 DUP4 DUP6 SUB SLT ISZERO PUSH2 0x1DAE JUMPI PUSH1 0x0 DUP1 REVERT JUMPDEST PUSH2 0x1DB7 DUP4 PUSH2 0x1BDD JUMP JUMPDEST SWAP5 PUSH1 0x20 SWAP4 SWAP1 SWAP4 ADD CALLDATALOAD SWAP4 POP POP POP JUMP JUMPDEST PUSH1 0x0 DUP1 PUSH1 0x0 DUP1 PUSH1 0x0 PUSH1 0xA0 DUP7 DUP9 SUB SLT ISZERO PUSH2 0x1DDD JUMPI PUSH1 0x0 DUP1 REVERT JUMPDEST DUP6 CALLDATALOAD SWAP5 POP PUSH2 0x1DED PUSH1 0x20 DUP8 ADD PUSH2 0x1BDD JUMP JUMPDEST SWAP4 POP PUSH1 0x40 DUP7 ADD CALLDATALOAD SWAP3 POP PUSH2 0x1E02 PUSH1 0x60 DUP8 ADD PUSH2 0x1BDD JUMP JUMPDEST SWAP5 SWAP8 SWAP4 SWAP7 POP SWAP2 SWAP5 PUSH1 0x80 ADD CALLDATALOAD SWAP3 SWAP2 POP POP JUMP JUMPDEST PUSH1 0x0 DUP1 PUSH1 0x0 PUSH1 0x40 DUP5 DUP7 SUB SLT ISZERO PUSH2 0x1E28 JUMPI PUSH1 0x0 DUP1 REVERT JUMPDEST DUP4 CALLDATALOAD SWAP3 POP PUSH1 0x20 DUP5 ADD CALLDATALOAD PUSH8 0xFFFFFFFFFFFFFFFF DUP1 DUP3 GT ISZERO PUSH2 0x1E47 JUMPI PUSH1 0x0 DUP1 REVERT JUMPDEST DUP2 DUP7 ADD SWAP2 POP DUP7 PUSH1 0x1F DUP4 ADD SLT PUSH2 0x1E5B JUMPI PUSH1 0x0 DUP1 REVERT JUMPDEST DUP2 CALLDATALOAD DUP2 DUP2 GT ISZERO PUSH2 0x1E6A JUMPI PUSH1 0x0 DUP1 REVERT JUMPDEST DUP8 PUSH1 0x20 DUP3 DUP6 ADD ADD GT ISZERO PUSH2 0x1E7C JUMPI PUSH1 0x0 DUP1 REVERT JUMPDEST PUSH1 0x20 DUP4 ADD SWAP5 POP DUP1 SWAP4 POP POP POP POP SWAP3 POP SWAP3 POP SWAP3 JUMP JUMPDEST PUSH1 0x20 DUP2 MSTORE DUP2 MLOAD PUSH1 0x20 DUP3 ADD MSTORE PUSH1 0x0 PUSH1 0x20 DUP4 ADD MLOAD PUSH2 0x1EB6 PUSH1 0x40 DUP5 ADD DUP3 PUSH1 0x1 PUSH1 0x1 PUSH1 0xA0 SHL SUB AND SWAP1 MSTORE JUMP JUMPDEST POP PUSH1 0x40 DUP4 ADD MLOAD PUSH1 0x60 DUP4 ADD MSTORE PUSH1 0x60 DUP4 ADD MLOAD PUSH2 0x1EDB PUSH1 0x80 DUP5 ADD DUP3 PUSH1 0x1 PUSH1 0x1 PUSH1 0xA0 SHL SUB AND SWAP1 MSTORE JUMP JUMPDEST POP PUSH1 0x80 DUP4 ADD MLOAD PUSH1 0xA0 DUP4 ADD MSTORE PUSH1 0xA0 DUP4 ADD MLOAD PUSH1 0xC0 DUP4 ADD MSTORE PUSH1 0xC0 DUP4 ADD MLOAD PUSH1 0xE0 DUP4 ADD MSTORE PUSH1 0xE0 DUP4 ADD MLOAD PUSH2 0x100 PUSH2 0x1F0E DUP2 DUP6 ADD DUP4 PUSH2 0x1C4A JUMP JUMPDEST DUP5 ADD MLOAD SWAP1 POP PUSH2 0x120 PUSH2 0x1F23 DUP5 DUP3 ADD DUP4 ISZERO ISZERO SWAP1 MSTORE JUMP JUMPDEST DUP5 ADD MLOAD PUSH2 0x140 DUP5 DUP2 ADD MSTORE SWAP1 POP PUSH2 0x1A5C PUSH2 0x160 DUP5 ADD DUP3 PUSH2 0x1C90 JUMP JUMPDEST PUSH1 0x1 DUP2 DUP2 SHR SWAP1 DUP3 AND DUP1 PUSH2 0x1F51 JUMPI PUSH1 0x7F DUP3 AND SWAP2 POP JUMPDEST PUSH1 0x20 DUP3 LT DUP2 SUB PUSH2 0x1F71 JUMPI PUSH4 0x4E487B71 PUSH1 0xE0 SHL PUSH1 0x0 MSTORE PUSH1 0x22 PUSH1 0x4 MSTORE PUSH1 0x24 PUSH1 0x0 REVERT JUMPDEST POP SWAP2 SWAP1 POP JUMP JUMPDEST DUP1 DUP3 ADD DUP1 DUP3 GT ISZERO PUSH2 0x1F98 JUMPI PUSH4 0x4E487B71 PUSH1 0xE0 SHL PUSH1 0x0 MSTORE PUSH1 0x11 PUSH1 0x4 MSTORE PUSH1 0x24 PUSH1 0x0 REVERT JUMPDEST SWAP3 SWAP2 POP POP JUMP JUMPDEST PUSH4 0x4E487B71 PUSH1 0xE0 SHL PUSH1 0x0 MSTORE PUSH1 0x41 PUSH1 0x4 MSTORE PUSH1 0x24 PUSH1 0x0 REVERT JUMPDEST PUSH1 0x1F DUP3 GT ISZERO PUSH2 0x17F7 JUMPI PUSH1 0x0 DUP2 DUP2 MSTORE PUSH1 0x20 DUP2 KECCAK256 PUSH1 0x1F DUP6 ADD PUSH1 0x5 SHR DUP2 ADD PUSH1 0x20 DUP7 LT ISZERO PUSH2 0x1FDB JUMPI POP DUP1 JUMPDEST PUSH1 0x1F DUP6 ADD PUSH1 0x5 SHR DUP3 ADD SWAP2 POP JUMPDEST DUP2 DUP2 LT ISZERO PUSH2 0x1FFA JUMPI DUP3 DUP2 SSTORE PUSH1 0x1 ADD PUSH2 0x1FE7 JUMP JUMPDEST POP POP POP POP POP POP JUMP JUMPDEST DUP2 MLOAD PUSH8 0xFFFFFFFFFFFFFFFF DUP2 GT ISZERO PUSH2 0x201C JUMPI PUSH2 0x201C PUSH2 0x1F9E JUMP JUMPDEST PUSH2 0x2030 DUP2 PUSH2 0x202A DUP5 SLOAD PUSH2 0x1F3D JUMP JUMPDEST DUP5 PUSH2 0x1FB4 JUMP JUMPDEST PUSH1 0x20 DUP1 PUSH1 0x1F DUP4 GT PUSH1 0x1 DUP2 EQ PUSH2 0x2065 JUMPI PUSH1 0x0 DUP5 ISZERO PUSH2 0x204D JUMPI POP DUP6 DUP4 ADD MLOAD JUMPDEST PUSH1 0x0 NOT PUSH1 0x3 DUP7 SWAP1 SHL SHR NOT AND PUSH1 0x1 DUP6 SWAP1 SHL OR DUP6 SSTORE PUSH2 0x1FFA JUMP JUMPDEST PUSH1 0x0 DUP6 DUP2 MSTORE PUSH1 0x20 DUP2 KECCAK256 PUSH1 0x1F NOT DUP7 AND SWAP2 JUMPDEST DUP3 DUP2 LT ISZERO PUSH2 0x2094 JUMPI DUP9 DUP7 ADD MLOAD DUP3 SSTORE SWAP5 DUP5 ADD SWAP5 PUSH1 0x1 SWAP1 SWAP2 ADD SWAP1 DUP5 ADD PUSH2 0x2075 JUMP JUMPDEST POP DUP6 DUP3 LT ISZERO PUSH2 0x20B2 JUMPI DUP8 DUP6 ADD MLOAD PUSH1 0x0 NOT PUSH1 0x3 DUP9 SWAP1 SHL PUSH1 0xF8 AND SHR NOT AND DUP2 SSTORE JUMPDEST POP POP POP POP POP PUSH1 0x1 SWAP1 DUP2 SHL ADD SWAP1 SSTORE POP JUMP JUMPDEST PUSH8 0xFFFFFFFFFFFFFFFF DUP4 GT ISZERO PUSH2 0x20DA JUMPI PUSH2 0x20DA PUSH2 0x1F9E JUMP JUMPDEST PUSH2 0x20EE DUP4 PUSH2 0x20E8 DUP4 SLOAD PUSH2 0x1F3D JUMP JUMPDEST DUP4 PUSH2 0x1FB4 JUMP JUMPDEST PUSH1 0x0 PUSH1 0x1F DUP5 GT PUSH1 0x1 DUP2 EQ PUSH2 0x2122 JUMPI PUSH1 0x0 DUP6 ISZERO PUSH2 0x210A JUMPI POP DUP4 DUP3 ADD CALLDATALOAD JUMPDEST PUSH1 0x0 NOT PUSH1 0x3 DUP8 SWAP1 SHL SHR NOT AND PUSH1 0x1 DUP7 SWAP1 SHL OR DUP4 SSTORE PUSH2 0xE56 JUMP JUMPDEST PUSH1 0x0 DUP4 DUP2 MSTORE PUSH1 0x20 SWAP1 KECCAK256 PUSH1 0x1F NOT DUP7 AND SWAP1 DUP4 JUMPDEST DUP3 DUP2 LT ISZERO PUSH2 0x2153 JUMPI DUP7 DUP6 ADD CALLDATALOAD DUP3 SSTORE PUSH1 0x20 SWAP5 DUP6 ADD SWAP5 PUSH1 0x1 SWAP1 SWAP3 ADD SWAP2 ADD PUSH2 0x2133 JUMP JUMPDEST POP DUP7 DUP3 LT ISZERO PUSH2 0x2170 JUMPI PUSH1 0x0 NOT PUSH1 0xF8 DUP9 PUSH1 0x3 SHL AND SHR NOT DUP5 DUP8 ADD CALLDATALOAD AND DUP2 SSTORE JUMPDEST POP POP PUSH1 0x1 DUP6 PUSH1 0x1 SHL ADD DUP4 SSTORE POP POP POP POP POP JUMP JUMPDEST PUSH1 0x20 DUP2 MSTORE DUP2 PUSH1 0x20 DUP3 ADD MSTORE DUP2 DUP4 PUSH1 0x40 DUP4 ADD CALLDATACOPY PUSH1 0x0 DUP2 DUP4 ADD PUSH1 0x40 SWAP1 DUP2 ADD SWAP2 SWAP1 SWAP2 MSTORE PUSH1 0x1F SWAP1 SWAP3 ADD PUSH1 0x1F NOT AND ADD ADD SWAP2 SWAP1 POP JUMP JUMPDEST PUSH1 0x0 PUSH1 0x20 DUP3 DUP5 SUB SLT ISZERO PUSH2 0x21C3 JUMPI PUSH1 0x0 DUP1 REVERT JUMPDEST DUP2 MLOAD PUSH2 0x1C14 DUP2 PUSH2 0x1D31 JUMP JUMPDEST PUSH1 0x0 DUP3 MLOAD PUSH2 0x21E0 DUP2 DUP5 PUSH1 0x20 DUP8 ADD PUSH2 0x1C6C JUMP JUMPDEST SWAP2 SWAP1 SWAP2 ADD SWAP3 SWAP2 POP POP JUMP JUMPDEST PUSH1 0x20 DUP2 MSTORE PUSH1 0x0 PUSH2 0x1C14 PUSH1 0x20 DUP4 ADD DUP5 PUSH2 0x1C90 JUMP INVALID LOG2 PUSH5 0x6970667358 0x22 SLT KECCAK256 AND PUSH22 0x86E2F5EB4DDBC160C1C9BA376DCDDC157014B02C2C15 0x28 0xE2 0x27 PUSH17 0xE07DA6FF64736F6C634300081400330000 "},"methodIdentifiers":{"AUTO_RELEASE_PERIOD()":"b5f1c3f4","DISPUTE_PERIOD()":"a5bbe22b","authorizedMerchants(address)":"ca2efd38","autoReleaseFunds(bytes32)":"a2cc6ec9","canRaiseDispute(bytes32)":"344894d3","confirmOrderCompletion(bytes32)":"72a522e6","depositFunds(bytes32,address,uint256,address,uint256)":"95fb6b74","disputeResolvers(address)":"ce0c9ef0","emergencyRecovery(address,uint256)":"727b7acf","escrows(bytes32)":"2d83549c","getEscrow(bytes32)":"f023b811","owner()":"8da5cb5b","paused()":"5c975abb","paymentContract()":"9c91dd56","raiseDispute(bytes32,string)":"be7b8a77","releaseFundsAfterDispute(bytes32)":"4429ed4d","renounceOwnership()":"715018a6","resolveDispute(bytes32,bool)":"43a0e3e6","setDisputeResolver(address,bool)":"5a46259f","setMerchantAuthorization(address,bool)":"aa11b060","togglePause()":"c4ae3168","transferOwnership(address)":"f2fde38b","updatePaymentContract(address)":"2517f604","usdcToken()":"11eac855"}}}}}