{
  "_format": "hh-sol-artifact-1",
  "contractName": "CrynkEscrowContract",
  "sourceName": "contracts/CrynkEscrowContract.sol",
  "abi": [
    {
      "inputs": [
        {
          "internalType": "address",
          "name": "_paymentContract",
          "type": "address"
        },
        {
          "internalType": "address",
          "name": "_usdcToken",
          "type": "address"
        }
      ],
      "stateMutability": "nonpayable",
      "type": "constructor"
    },
    {
      "anonymous": false,
      "inputs": [
        {
          "indexed": true,
          "internalType": "bytes32",
          "name": "paymentId",
          "type": "bytes32"
        },
        {
          "indexed": false,
          "internalType": "uint256",
          "name": "amount",
          "type": "uint256"
        }
      ],
      "name": "AutoReleaseExecuted",
      "type": "event"
    },
    {
      "anonymous": false,
      "inputs": [
        {
          "indexed": true,
          "internalType": "bytes32",
          "name": "paymentId",
          "type": "bytes32"
        },
        {
          "indexed": true,
          "internalType": "address",
          "name": "user",
          "type": "address"
        },
        {
          "indexed": false,
          "internalType": "string",
          "name": "reason",
          "type": "string"
        }
      ],
      "name": "DisputeRaised",
      "type": "event"
    },
    {
      "anonymous": false,
      "inputs": [
        {
          "indexed": true,
          "internalType": "bytes32",
          "name": "paymentId",
          "type": "bytes32"
        },
        {
          "indexed": false,
          "internalType": "bool",
          "name": "inFavorOfUser",
          "type": "bool"
        },
        {
          "indexed": false,
          "internalType": "address",
          "name": "resolver",
          "type": "address"
        }
      ],
      "name": "DisputeResolved",
      "type": "event"
    },
    {
      "anonymous": false,
      "inputs": [
        {
          "indexed": true,
          "internalType": "bytes32",
          "name": "paymentId",
          "type": "bytes32"
        },
        {
          "indexed": true,
          "internalType": "address",
          "name": "user",
          "type": "address"
        },
        {
          "indexed": false,
          "internalType": "uint256",
          "name": "merchantId",
          "type": "uint256"
        },
        {
          "indexed": false,
          "internalType": "uint256",
          "name": "amount",
          "type": "uint256"
        }
      ],
      "name": "FundsDeposited",
      "type": "event"
    },
    {
      "anonymous": false,
      "inputs": [
        {
          "indexed": true,
          "internalType": "bytes32",
          "name": "paymentId",
          "type": "bytes32"
        },
        {
          "indexed": true,
          "internalType": "address",
          "name": "user",
          "type": "address"
        },
        {
          "indexed": false,
          "internalType": "uint256",
          "name": "amount",
          "type": "uint256"
        }
      ],
      "name": "FundsRefunded",
      "type": "event"
    },
    {
      "anonymous": false,
      "inputs": [
        {
          "indexed": true,
          "internalType": "bytes32",
          "name": "paymentId",
          "type": "bytes32"
        },
        {
          "indexed": true,
          "internalType": "address",
          "name": "merchant",
          "type": "address"
        },
        {
          "indexed": false,
          "internalType": "uint256",
          "name": "amount",
          "type": "uint256"
        }
      ],
      "name": "FundsReleased",
      "type": "event"
    },
    {
      "anonymous": false,
      "inputs": [
        {
          "indexed": true,
          "internalType": "bytes32",
          "name": "paymentId",
          "type": "bytes32"
        },
        {
          "indexed": true,
          "internalType": "address",
          "name": "merchant",
          "type": "address"
        },
        {
          "indexed": false,
          "internalType": "uint256",
          "name": "confirmationTime",
          "type": "uint256"
        }
      ],
      "name": "OrderConfirmed",
      "type": "event"
    },
    {
      "anonymous": false,
      "inputs": [
        {
          "indexed": true,
          "internalType": "address",
          "name": "previousOwner",
          "type": "address"
        },
        {
          "indexed": true,
          "internalType": "address",
          "name": "newOwner",
          "type": "address"
        }
      ],
      "name": "OwnershipTransferred",
      "type": "event"
    },
    {
      "anonymous": false,
      "inputs": [
        {
          "indexed": false,
          "internalType": "address",
          "name": "account",
          "type": "address"
        }
      ],
      "name": "Paused",
      "type": "event"
    },
    {
      "anonymous": false,
      "inputs": [
        {
          "indexed": false,
          "internalType": "address",
          "name": "account",
          "type": "address"
        }
      ],
      "name": "Unpaused",
      "type": "event"
    },
    {
      "inputs": [],
      "name": "AUTO_RELEASE_PERIOD",
      "outputs": [
        {
          "internalType": "uint256",
          "name": "",
          "type": "uint256"
        }
      ],
      "stateMutability": "view",
      "type": "function"
    },
    {
      "inputs": [],
      "name": "DISPUTE_PERIOD",
      "outputs": [
        {
          "internalType": "uint256",
          "name": "",
          "type": "uint256"
        }
      ],
      "stateMutability": "view",
      "type": "function"
    },
    {
      "inputs": [
        {
          "internalType": "address",
          "name": "",
          "type": "address"
        }
      ],
      "name": "authorizedMerchants",
      "outputs": [
        {
          "internalType": "bool",
          "name": "",
          "type": "bool"
        }
      ],
      "stateMutability": "view",
      "type": "function"
    },
    {
      "inputs": [
        {
          "internalType": "bytes32",
          "name": "paymentId",
          "type": "bytes32"
        }
      ],
      "name": "autoReleaseFunds",
      "outputs": [],
      "stateMutability": "nonpayable",
      "type": "function"
    },
    {
      "inputs": [
        {
          "internalType": "bytes32",
          "name": "paymentId",
          "type": "bytes32"
        }
      ],
      "name": "canRaiseDispute",
      "outputs": [
        {
          "internalType": "bool",
          "name": "",
          "type": "bool"
        }
      ],
      "stateMutability": "view",
      "type": "function"
    },
    {
      "inputs": [
        {
          "internalType": "bytes32",
          "name": "paymentId",
          "type": "bytes32"
        }
      ],
      "name": "confirmOrderCompletion",
      "outputs": [],
      "stateMutability": "nonpayable",
      "type": "function"
    },
    {
      "inputs": [
        {
          "internalType": "bytes32",
          "name": "paymentId",
          "type": "bytes32"
        },
        {
          "internalType": "address",
          "name": "user",
          "type": "address"
        },
        {
          "internalType": "uint256",
          "name": "merchantId",
          "type": "uint256"
        },
        {
          "internalType": "address",
          "name": "merchantWallet",
          "type": "address"
        },
        {
          "internalType": "uint256",
          "name": "amount",
          "type": "uint256"
        }
      ],
      "name": "depositFunds",
      "outputs": [],
      "stateMutability": "nonpayable",
      "type": "function"
    },
    {
      "inputs": [
        {
          "internalType": "address",
          "name": "",
          "type": "address"
        }
      ],
      "name": "disputeResolvers",
      "outputs": [
        {
          "internalType": "bool",
          "name": "",
          "type": "bool"
        }
      ],
      "stateMutability": "view",
      "type": "function"
    },
    {
      "inputs": [
        {
          "internalType": "address",
          "name": "token",
          "type": "address"
        },
        {
          "internalType": "uint256",
          "name": "amount",
          "type": "uint256"
        }
      ],
      "name": "emergencyRecovery",
      "outputs": [],
      "stateMutability": "nonpayable",
      "type": "function"
    },
    {
      "inputs": [
        {
          "internalType": "bytes32",
          "name": "",
          "type": "bytes32"
        }
      ],
      "name": "escrows",
      "outputs": [
        {
          "internalType": "bytes32",
          "name": "paymentId",
          "type": "bytes32"
        },
        {
          "internalType": "address",
          "name": "user",
          "type": "address"
        },
        {
          "internalType": "uint256",
          "name": "merchantId",
          "type": "uint256"
        },
        {
          "internalType": "address",
          "name": "merchantWallet",
          "type": "address"
        },
        {
          "internalType": "uint256",
          "name": "amount",
          "type": "uint256"
        },
        {
          "internalType": "uint256",
          "name": "depositTime",
          "type": "uint256"
        },
        {
          "internalType": "uint256",
          "name": "confirmationTime",
          "type": "uint256"
        },
        {
          "internalType": "enum CrynkEscrowContract.EscrowStatus",
          "name": "status",
          "type": "uint8"
        },
        {
          "internalType": "bool",
          "name": "disputeRaised",
          "type": "bool"
        },
        {
          "internalType": "string",
          "name": "disputeReason",
          "type": "string"
        }
      ],
      "stateMutability": "view",
      "type": "function"
    },
    {
      "inputs": [
        {
          "internalType": "bytes32",
          "name": "paymentId",
          "type": "bytes32"
        }
      ],
      "name": "getEscrow",
      "outputs": [
        {
          "components": [
            {
              "internalType": "bytes32",
              "name": "paymentId",
              "type": "bytes32"
            },
            {
              "internalType": "address",
              "name": "user",
              "type": "address"
            },
            {
              "internalType": "uint256",
              "name": "merchantId",
              "type": "uint256"
            },
            {
              "internalType": "address",
              "name": "merchantWallet",
              "type": "address"
            },
            {
              "internalType": "uint256",
              "name": "amount",
              "type": "uint256"
            },
            {
              "internalType": "uint256",
              "name": "depositTime",
              "type": "uint256"
            },
            {
              "internalType": "uint256",
              "name": "confirmationTime",
              "type": "uint256"
            },
            {
              "internalType": "enum CrynkEscrowContract.EscrowStatus",
              "name": "status",
              "type": "uint8"
            },
            {
              "internalType": "bool",
              "name": "disputeRaised",
              "type": "bool"
            },
            {
              "internalType": "string",
              "name": "disputeReason",
              "type": "string"
            }
          ],
          "internalType": "struct CrynkEscrowContract.EscrowRecord",
          "name": "",
          "type": "tuple"
        }
      ],
      "stateMutability": "view",
      "type": "function"
    },
    {
      "inputs": [],
      "name": "owner",
      "outputs": [
        {
          "internalType": "address",
          "name": "",
          "type": "address"
        }
      ],
      "stateMutability": "view",
      "type": "function"
    },
    {
      "inputs": [],
      "name": "paused",
      "outputs": [
        {
          "internalType": "bool",
          "name": "",
          "type": "bool"
        }
      ],
      "stateMutability": "view",
      "type": "function"
    },
    {
      "inputs": [],
      "name": "paymentContract",
      "outputs": [
        {
          "internalType": "address",
          "name": "",
          "type": "address"
        }
      ],
      "stateMutability": "view",
      "type": "function"
    },
    {
      "inputs": [
        {
          "internalType": "bytes32",
          "name": "paymentId",
          "type": "bytes32"
        },
        {
          "internalType": "string",
          "name": "reason",
          "type": "string"
        }
      ],
      "name": "raiseDispute",
      "outputs": [],
      "stateMutability": "nonpayable",
      "type": "function"
    },
    {
      "inputs": [
        {
          "internalType": "bytes32",
          "name": "paymentId",
          "type": "bytes32"
        }
      ],
      "name": "releaseFundsAfterDispute",
      "outputs": [],
      "stateMutability": "nonpayable",
      "type": "function"
    },
    {
      "inputs": [],
      "name": "renounceOwnership",
      "outputs": [],
      "stateMutability": "nonpayable",
      "type": "function"
    },
    {
      "inputs": [
        {
          "internalType": "bytes32",
          "name": "paymentId",
          "type": "bytes32"
        },
        {
          "internalType": "bool",
          "name": "inFavorOfUser",
          "type": "bool"
        }
      ],
      "name": "resolveDispute",
      "outputs": [],
      "stateMutability": "nonpayable",
      "type": "function"
    },
    {
      "inputs": [
        {
          "internalType": "address",
          "name": "resolver",
          "type": "address"
        },
        {
          "internalType": "bool",
          "name": "authorized",
          "type": "bool"
        }
      ],
      "name": "setDisputeResolver",
      "outputs": [],
      "stateMutability": "nonpayable",
      "type": "function"
    },
    {
      "inputs": [
        {
          "internalType": "address",
          "name": "merchant",
          "type": "address"
        },
        {
          "internalType": "bool",
          "name": "authorized",
          "type": "bool"
        }
      ],
      "name": "setMerchantAuthorization",
      "outputs": [],
      "stateMutability": "nonpayable",
      "type": "function"
    },
    {
      "inputs": [],
      "name": "togglePause",
      "outputs": [],
      "stateMutability": "nonpayable",
      "type": "function"
    },
    {
      "inputs": [
        {
          "internalType": "address",
          "name": "newOwner",
          "type": "address"
        }
      ],
      "name": "transferOwnership",
      "outputs": [],
      "stateMutability": "nonpayable",
      "type": "function"
    },
    {
      "inputs": [
        {
          "internalType": "address",
          "name": "newPaymentContract",
          "type": "address"
        }
      ],
      "name": "updatePaymentContract",
      "outputs": [],
      "stateMutability": "nonpayable",
      "type": "function"
    },
    {
      "inputs": [],
      "name": "usdcToken",
      "outputs": [
        {
          "internalType": "address",
          "name": "",
          "type": "address"
        }
      ],
      "stateMutability": "view",
      "type": "function"
    }
  ],
  "bytecode": "0x60806040523480156200001157600080fd5b50604051620024163803806200241683398101604081905262000034916200019b565b600160005562000044336200012c565b6001805460ff60a01b191690556001600160a01b038216620000ad5760405162461bcd60e51b815260206004820152601860248201527f496e76616c6964207061796d656e7420636f6e7472616374000000000000000060448201526064015b60405180910390fd5b6001600160a01b038116620000fa5760405162461bcd60e51b815260206004820152601260248201527124b73b30b634b2102aa9a221903a37b5b2b760711b6044820152606401620000a4565b600280546001600160a01b039384166001600160a01b03199182161790915560038054929093169116179055620001d3565b600180546001600160a01b038381166001600160a01b0319831681179093556040519116919082907f8be0079c531659141344cd1fd0a4f28419497f9722a3daafe3b4186f6b6457e090600090a35050565b80516001600160a01b03811681146200019657600080fd5b919050565b60008060408385031215620001af57600080fd5b620001ba836200017e565b9150620001ca602084016200017e565b90509250929050565b61223380620001e36000396000f3fe608060405234801561001057600080fd5b50600436106101585760003560e01c806395fb6b74116100c3578063be7b8a771161007c578063be7b8a77146102e6578063c4ae3168146102f9578063ca2efd3814610301578063ce0c9ef014610324578063f023b81114610347578063f2fde38b1461036757600080fd5b806395fb6b74146102785780639c91dd561461028b578063a2cc6ec91461029e578063a5bbe22b146102b1578063aa11b060146102c9578063b5f1c3f4146102dc57600080fd5b80635a46259f116101155780635a46259f146102145780635c975abb14610227578063715018a614610239578063727b7acf1461024157806372a522e6146102545780638da5cb5b1461026757600080fd5b806311eac8551461015d5780632517f6041461018d5780632d83549c146101a2578063344894d3146101cb57806343a0e3e6146101ee5780634429ed4d14610201575b600080fd5b600354610170906001600160a01b031681565b6040516001600160a01b0390911681526020015b60405180910390f35b6101a061019b366004611bf9565b61037a565b005b6101b56101b0366004611c1b565b6103f1565b6040516101849a99989796959493929190611cbc565b6101de6101d9366004611c1b565b6104e1565b6040519015158152602001610184565b6101a06101fc366004611d3f565b6106ac565b6101a061020f366004611c1b565b6107e8565b6101a0610222366004611d6f565b610907565b600154600160a01b900460ff166101de565b6101a061093a565b6101a061024f366004611d9b565b61094e565b6101a0610262366004611c1b565b610984565b6001546001600160a01b0316610170565b6101a0610286366004611dc5565b610b0e565b600254610170906001600160a01b031681565b6101a06102ac366004611c1b565b610e5d565b6102bb62093a8081565b604051908152602001610184565b6101a06102d7366004611d6f565b610fc9565b6102bb62278d0081565b6101a06102f4366004611e13565b610ffc565b6101a0611271565b6101de61030f366004611bf9565b60046020526000908152604090205460ff1681565b6101de610332366004611bf9565b60056020526000908152604090205460ff1681565b61035a610355366004611c1b565b61129b565b6040516101849190611e8f565b6101a0610375366004611bf9565b611442565b6103826114bb565b6001600160a01b0381166103cf5760405162461bcd60e51b815260206004820152600f60248201526e496e76616c6964206164647265737360881b60448201526064015b60405180910390fd5b600280546001600160a01b0319166001600160a01b0392909216919091179055565b600660208190526000918252604090912080546001820154600283015460038401546004850154600586015496860154600787015460088801805497996001600160a01b0397881699969897909516969395929360ff808416946101009094041692919061045e90611f3d565b80601f016020809104026020016040519081016040528092919081815260200182805461048a90611f3d565b80156104d75780601f106104ac576101008083540402835291602001916104d7565b820191906000526020600020905b8154815290600101906020018083116104ba57829003601f168201915b505050505090508a565b60008181526006602081815260408084208151610140810183528154815260018201546001600160a01b0390811694820194909452600282015492810192909252600381015490921660608201526004808301546080830152600583015460a08301529282015460c08201526007820154849391929160e084019160ff169081111561056f5761056f611c34565b600481111561058057610580611c34565b81526007820154610100900460ff16151560208201526008820180546040909201916105ab90611f3d565b80601f01602080910402602001604051908101604052809291908181526020018280546105d790611f3d565b80156106245780601f106105f957610100808354040283529160200191610624565b820191906000526020600020905b81548152906001019060200180831161060757829003601f168201915b5050505050815250509050806101000151156106435750600092915050565b60008160e00151600481111561065b5761065b611c34565b036106695750600192915050565b60018160e00151600481111561068157610681611c34565b036106a35762093a808160c001516106999190611f77565b4211159392505050565b50600092915050565b3360009081526005602052604090205460ff16806106d457506001546001600160a01b031633145b6107205760405162461bcd60e51b815260206004820152601760248201527f4e6f7420617574686f72697a6564207265736f6c76657200000000000000000060448201526064016103c6565b60008281526006602052604090206002600782015460ff16600481111561074957610749611c34565b1461078a5760405162461bcd60e51b81526020600482015260116024820152704e6f20616374697665206469737075746560781b60448201526064016103c6565b811561079e5761079983611515565b6107a7565b6107a783611607565b60408051831515815233602082015284917fc960b0a8d05987d3303a43fbce4ccf8ccc3262a2b5517a35c97fc8848c23054c910160405180910390a2505050565b60008181526006602052604090206001600782015460ff16600481111561081157610811611c34565b1461084e5760405162461bcd60e51b815260206004820152600d60248201526c139bdd0818dbdb999a5c9b5959609a1b60448201526064016103c6565b6007810154610100900460ff16156108995760405162461bcd60e51b815260206004820152600e60248201526d446973707574652061637469766560901b60448201526064016103c6565b62093a8081600601546108ac9190611f77565b42116108fa5760405162461bcd60e51b815260206004820152601a60248201527f4469737075746520706572696f64206e6f74206578706972656400000000000060448201526064016103c6565b61090382611607565b5050565b61090f6114bb565b6001600160a01b03919091166000908152600560205260409020805460ff1916911515919091179055565b6109426114bb565b61094c60006116f2565b565b6109566114bb565b61095e611744565b6109036109736001546001600160a01b031690565b6001600160a01b0384169083611794565b60008181526006602090815260408083206002015433845260049092529091205460ff166109f45760405162461bcd60e51b815260206004820152601760248201527f4e6f7420617574686f72697a6564206d65726368616e7400000000000000000060448201526064016103c6565b600082815260066020526040812090600782015460ff166004811115610a1c57610a1c611c34565b14610a615760405162461bcd60e51b8152602060048201526015602482015274496e76616c696420657363726f772073746174757360581b60448201526064016103c6565b6007810154610100900460ff1615610abb5760405162461bcd60e51b815260206004820152601d60248201527f43616e6e6f7420636f6e6669726d20647572696e67206469737075746500000060448201526064016103c6565b60078101805460ff191660011790554260068201819055604051908152339084907feed1da2f4f47568c566aaad60b44e45fc6ae9138bee9a984f7661888ca5dc3349060200160405180910390a3505050565b610b166117fc565b610b1e611855565b60008581526006602052604090206004015415610b755760405162461bcd60e51b8152602060048201526015602482015274457363726f7720616c72656164792065786973747360581b60448201526064016103c6565b60008111610bb65760405162461bcd60e51b815260206004820152600e60248201526d125b9d985b1a5908185b5bdd5b9d60921b60448201526064016103c6565b6001600160a01b038216610c0c5760405162461bcd60e51b815260206004820152601760248201527f496e76616c6964206d65726368616e742077616c6c657400000000000000000060448201526064016103c6565b6002546001600160a01b03163303610c4157600254600354610c3c916001600160a01b03918216911630846118a2565b610cb1565b336001600160a01b03851614610c995760405162461bcd60e51b815260206004820152601e60248201527f43616c6c6572206d757374206d6174636820757365722061646472657373000060448201526064016103c6565b600354610cb1906001600160a01b03163330846118a2565b604051806101400160405280868152602001856001600160a01b03168152602001848152602001836001600160a01b031681526020018281526020014281526020016000815260200160006004811115610d0d57610d0d611c34565b815260006020808301829052604080518083018252838152938101939093528882526006808252918390208451815590840151600182810180546001600160a01b039384166001600160a01b0319918216179091559486015160028401556060860151600384018054919093169516949094179055608084015160048083019190915560a0850151600583015560c08501519282019290925560e084015160078201805492949193909260ff191691908490811115610dce57610dce611c34565b02179055506101008281015160078301805461ff0019169115159092021790556101208201516008820190610e039082612002565b505060408051858152602081018490526001600160a01b038716925087917f26f97417b32fdaf792dabcb9bfae983a94e40f76f1e4a15bdb874283654b0d66910160405180910390a3610e566001600055565b5050505050565b600081815260066020526040812090600782015460ff166004811115610e8557610e85611c34565b14610ed25760405162461bcd60e51b815260206004820152601760248201527f4e6f7420696e206465706f73697465642073746174757300000000000000000060448201526064016103c6565b6007810154610100900460ff1615610f1d5760405162461bcd60e51b815260206004820152600e60248201526d446973707574652061637469766560901b60448201526064016103c6565b62278d008160050154610f309190611f77565b4211610f7e5760405162461bcd60e51b815260206004820152601f60248201527f4175746f2d72656c6561736520706572696f64206e6f7420726561636865640060448201526064016103c6565b610f8782611607565b817f6d55c23b02fc54ab6459e5d9449d117274cd5755162abf1ab650ebddddb74bc08260040154604051610fbd91815260200190565b60405180910390a25050565b610fd16114bb565b6001600160a01b03919091166000908152600460205260409020805460ff1916911515919091179055565b600083815260066020526040902060018101546001600160a01b031633146110665760405162461bcd60e51b815260206004820152601b60248201527f4f6e6c7920757365722063616e2072616973652064697370757465000000000060448201526064016103c6565b6000600782015460ff16600481111561108157611081611c34565b14806110a557506001600782015460ff1660048111156110a3576110a3611c34565b145b6110e25760405162461bcd60e51b815260206004820152600e60248201526d496e76616c69642073746174757360901b60448201526064016103c6565b6007810154610100900460ff16156111355760405162461bcd60e51b8152602060048201526016602482015275111a5cdc1d5d1948185b1c9958591e481c985a5cd95960521b60448201526064016103c6565b816111825760405162461bcd60e51b815260206004820152601760248201527f4469737075746520726561736f6e20726571756972656400000000000000000060448201526064016103c6565b6001600782015460ff16600481111561119d5761119d611c34565b036111fd5762093a8081600601546111b59190611f77565b4211156111fd5760405162461bcd60e51b8152602060048201526016602482015275111a5cdc1d5d19481c195c9a5bd908195e1c1a5c995960521b60448201526064016103c6565b60078101805461ff0019166101001790556008810161121d8385836120c2565b5060078101805460ff19166002179055604051339085907f49e53fd224357020766ce272815e8a15c300aace14a011cfcded9335798fbd0e906112639087908790612182565b60405180910390a350505050565b6112796114bb565b600154600160a01b900460ff16156112935761094c6118e0565b61094c611935565b6112f16040805161014081018252600080825260208201819052918101829052606081018290526080810182905260a0810182905260c081018290529060e0820190815260006020820152606060409091015290565b6000828152600660208181526040928390208351610140810185528154815260018201546001600160a01b0390811693820193909352600282015494810194909452600381015490911660608401526004808201546080850152600582015460a08501529181015460c08401526007810154909160e084019160ff169081111561137d5761137d611c34565b600481111561138e5761138e611c34565b81526007820154610100900460ff16151560208201526008820180546040909201916113b990611f3d565b80601f01602080910402602001604051908101604052809291908181526020018280546113e590611f3d565b80156114325780601f1061140757610100808354040283529160200191611432565b820191906000526020600020905b81548152906001019060200180831161141557829003601f168201915b5050505050815250509050919050565b61144a6114bb565b6001600160a01b0381166114af5760405162461bcd60e51b815260206004820152602660248201527f4f776e61626c653a206e6577206f776e657220697320746865207a65726f206160448201526564647265737360d01b60648201526084016103c6565b6114b8816116f2565b50565b6001546001600160a01b0316331461094c5760405162461bcd60e51b815260206004820181905260248201527f4f776e61626c653a2063616c6c6572206973206e6f7420746865206f776e657260448201526064016103c6565b600081815260066020526040902060078101805460ff19166004908117909155600182015490820154600354611559926001600160a01b0391821692911690611794565b600254604051634feb80c160e11b8152600481018490526001600160a01b0390911690639fd7018290602401600060405180830381600087803b15801561159f57600080fd5b505af11580156115b3573d6000803e3d6000fd5b50505050600181015460048201546040519081526001600160a01b039091169083907fbb0af7321a16834399146ab3819202a61859e53d69bd9cf889c444dfe69f1bb2906020015b60405180910390a35050565b600081815260066020526040902060078101805460ff19166003908117909155808201546004830154915461164c926001600160a01b03918216929190911690611794565b60025460405163b4fe2c4760e01b8152600481018490526001600160a01b039091169063b4fe2c4790602401600060405180830381600087803b15801561169257600080fd5b505af11580156116a6573d6000803e3d6000fd5b50505050600381015460048201546040519081526001600160a01b039091169083907f75d86e5bfa1175e2dc677f3abe3aebba3069f2db6ae492f1734d4b4bc65f61c1906020016115fb565b600180546001600160a01b038381166001600160a01b0319831681179093556040519116919082907f8be0079c531659141344cd1fd0a4f28419497f9722a3daafe3b4186f6b6457e090600090a35050565b600154600160a01b900460ff1661094c5760405162461bcd60e51b815260206004820152601460248201527314185d5cd8589b194e881b9bdd081c185d5cd95960621b60448201526064016103c6565b6040516001600160a01b0383166024820152604481018290526117f790849063a9059cbb60e01b906064015b60408051601f198184030181529190526020810180516001600160e01b03166001600160e01b031990931692909217909152611978565b505050565b60026000540361184e5760405162461bcd60e51b815260206004820152601f60248201527f5265656e7472616e637947756172643a207265656e7472616e742063616c6c0060448201526064016103c6565b6002600055565b600154600160a01b900460ff161561094c5760405162461bcd60e51b815260206004820152601060248201526f14185d5cd8589b194e881c185d5cd95960821b60448201526064016103c6565b6040516001600160a01b03808516602483015283166044820152606481018290526118da9085906323b872dd60e01b906084016117c0565b50505050565b6118e8611744565b6001805460ff60a01b191690557f5db9ee0a495bf2e6ff9c91a7834c1ba4fdd244a5e8aa4e537bd38aeae4b073aa335b6040516001600160a01b03909116815260200160405180910390a1565b61193d611855565b6001805460ff60a01b1916600160a01b1790557f62e78cea01bee320cd4e420270b5ea74000d11b0c9f74754ebdbfc544b05a2586119183390565b60006119cd826040518060400160405280602081526020017f5361666545524332303a206c6f772d6c6576656c2063616c6c206661696c6564815250856001600160a01b0316611a4d9092919063ffffffff16565b90508051600014806119ee5750808060200190518101906119ee91906121b1565b6117f75760405162461bcd60e51b815260206004820152602a60248201527f5361666545524332303a204552433230206f7065726174696f6e20646964206e6044820152691bdd081cdd58d8d9595960b21b60648201526084016103c6565b6060611a5c8484600085611a64565b949350505050565b606082471015611ac55760405162461bcd60e51b815260206004820152602660248201527f416464726573733a20696e73756666696369656e742062616c616e636520666f6044820152651c8818d85b1b60d21b60648201526084016103c6565b600080866001600160a01b03168587604051611ae191906121ce565b60006040518083038185875af1925050503d8060008114611b1e576040519150601f19603f3d011682016040523d82523d6000602084013e611b23565b606091505b5091509150611b3487838387611b3f565b979650505050505050565b60608315611bae578251600003611ba7576001600160a01b0385163b611ba75760405162461bcd60e51b815260206004820152601d60248201527f416464726573733a2063616c6c20746f206e6f6e2d636f6e747261637400000060448201526064016103c6565b5081611a5c565b611a5c8383815115611bc35781518083602001fd5b8060405162461bcd60e51b81526004016103c691906121ea565b80356001600160a01b0381168114611bf457600080fd5b919050565b600060208284031215611c0b57600080fd5b611c1482611bdd565b9392505050565b600060208284031215611c2d57600080fd5b5035919050565b634e487b7160e01b600052602160045260246000fd5b60058110611c6857634e487b7160e01b600052602160045260246000fd5b9052565b60005b83811015611c87578181015183820152602001611c6f565b50506000910152565b60008151808452611ca8816020860160208601611c6c565b601f01601f19169290920160200192915050565b8a81526001600160a01b038a81166020830152604082018a9052881660608201526080810187905260a0810186905260c081018590526000610140611d0460e0840187611c4a565b84151561010084015280610120840152611d2081840185611c90565b9d9c50505050505050505050505050565b80151581146114b857600080fd5b60008060408385031215611d5257600080fd5b823591506020830135611d6481611d31565b809150509250929050565b60008060408385031215611d8257600080fd5b611d8b83611bdd565b91506020830135611d6481611d31565b60008060408385031215611dae57600080fd5b611db783611bdd565b946020939093013593505050565b600080600080600060a08688031215611ddd57600080fd5b85359450611ded60208701611bdd565b935060408601359250611e0260608701611bdd565b949793965091946080013592915050565b600080600060408486031215611e2857600080fd5b83359250602084013567ffffffffffffffff80821115611e4757600080fd5b818601915086601f830112611e5b57600080fd5b813581811115611e6a57600080fd5b876020828501011115611e7c57600080fd5b6020830194508093505050509250925092565b602081528151602082015260006020830151611eb660408401826001600160a01b03169052565b50604083015160608301526060830151611edb60808401826001600160a01b03169052565b50608083015160a083015260a083015160c083015260c083015160e083015260e0830151610100611f0e81850183611c4a565b8401519050610120611f238482018315159052565b840151610140848101529050611a5c610160840182611c90565b600181811c90821680611f5157607f821691505b602082108103611f7157634e487b7160e01b600052602260045260246000fd5b50919050565b80820180821115611f9857634e487b7160e01b600052601160045260246000fd5b92915050565b634e487b7160e01b600052604160045260246000fd5b601f8211156117f757600081815260208120601f850160051c81016020861015611fdb5750805b601f850160051c820191505b81811015611ffa57828155600101611fe7565b505050505050565b815167ffffffffffffffff81111561201c5761201c611f9e565b6120308161202a8454611f3d565b84611fb4565b602080601f831160018114612065576000841561204d5750858301515b600019600386901b1c1916600185901b178555611ffa565b600085815260208120601f198616915b8281101561209457888601518255948401946001909101908401612075565b50858210156120b25787850151600019600388901b60f8161c191681555b5050505050600190811b01905550565b67ffffffffffffffff8311156120da576120da611f9e565b6120ee836120e88354611f3d565b83611fb4565b6000601f841160018114612122576000851561210a5750838201355b600019600387901b1c1916600186901b178355610e56565b600083815260209020601f19861690835b828110156121535786850135825560209485019460019092019101612133565b50868210156121705760001960f88860031b161c19848701351681555b505060018560011b0183555050505050565b60208152816020820152818360408301376000818301604090810191909152601f909201601f19160101919050565b6000602082840312156121c357600080fd5b8151611c1481611d31565b600082516121e0818460208701611c6c565b9190910192915050565b602081526000611c146020830184611c9056fea2646970667358221220167586e2f5eb4ddbc160c1c9ba376dcddc157014b02c2c1528e22770e07da6ff64736f6c63430008140033",
  "linkReferences": {},
  "deployedLinkReferences": {}
}