{
  "_format": "hh-sol-artifact-1",
  "contractName": "CrynkPaymentContract",
  "sourceName": "contracts/CrynkPaymentContract.sol",
  "abi": [
    {
      "inputs": [
        {
          "internalType": "address",
          "name": "_feeWallet",
          "type": "address"
        },
        {
          "internalType": "address",
          "name": "_escrowContract",
          "type": "address"
        }
      ],
      "stateMutability": "nonpayable",
      "type": "constructor"
    },
    {
      "anonymous": false,
      "inputs": [
        {
          "indexed": true,
          "internalType": "address",
          "name": "user",
          "type": "address"
        },
        {
          "indexed": true,
          "internalType": "address",
          "name": "delegate",
          "type": "address"
        },
        {
          "indexed": false,
          "internalType": "uint256",
          "name": "amount",
          "type": "uint256"
        }
      ],
      "name": "AllowanceDelegated",
      "type": "event"
    },
    {
      "anonymous": false,
      "inputs": [
        {
          "indexed": true,
          "internalType": "address",
          "name": "user",
          "type": "address"
        },
        {
          "indexed": true,
          "internalType": "address",
          "name": "delegate",
          "type": "address"
        }
      ],
      "name": "AllowanceRevoked",
      "type": "event"
    },
    {
      "anonymous": false,
      "inputs": [
        {
          "indexed": true,
          "internalType": "bytes32",
          "name": "paymentId",
          "type": "bytes32"
        },
        {
          "indexed": false,
          "internalType": "uint256",
          "name": "amount",
          "type": "uint256"
        }
      ],
      "name": "FundsEscrowed",
      "type": "event"
    },
    {
      "anonymous": false,
      "inputs": [
        {
          "indexed": true,
          "internalType": "bytes32",
          "name": "paymentId",
          "type": "bytes32"
        },
        {
          "indexed": true,
          "internalType": "address",
          "name": "user",
          "type": "address"
        },
        {
          "indexed": false,
          "internalType": "uint256",
          "name": "totalAmount",
          "type": "uint256"
        }
      ],
      "name": "FundsPulled",
      "type": "event"
    },
    {
      "anonymous": false,
      "inputs": [
        {
          "indexed": true,
          "internalType": "uint256",
          "name": "merchantId",
          "type": "uint256"
        },
        {
          "indexed": false,
          "internalType": "bool",
          "name": "status",
          "type": "bool"
        }
      ],
      "name": "MerchantStatusUpdated",
      "type": "event"
    },
    {
      "anonymous": false,
      "inputs": [
        {
          "indexed": true,
          "internalType": "address",
          "name": "previousOwner",
          "type": "address"
        },
        {
          "indexed": true,
          "internalType": "address",
          "name": "newOwner",
          "type": "address"
        }
      ],
      "name": "OwnershipTransferred",
      "type": "event"
    },
    {
      "anonymous": false,
      "inputs": [
        {
          "indexed": false,
          "internalType": "address",
          "name": "account",
          "type": "address"
        }
      ],
      "name": "Paused",
      "type": "event"
    },
    {
      "anonymous": false,
      "inputs": [
        {
          "indexed": true,
          "internalType": "bytes32",
          "name": "paymentId",
          "type": "bytes32"
        },
        {
          "indexed": true,
          "internalType": "address",
          "name": "merchant",
          "type": "address"
        },
        {
          "indexed": false,
          "internalType": "uint256",
          "name": "amount",
          "type": "uint256"
        }
      ],
      "name": "PaymentCompleted",
      "type": "event"
    },
    {
      "anonymous": false,
      "inputs": [
        {
          "indexed": true,
          "internalType": "bytes32",
          "name": "paymentId",
          "type": "bytes32"
        },
        {
          "indexed": true,
          "internalType": "address",
          "name": "user",
          "type": "address"
        },
        {
          "indexed": false,
          "internalType": "uint256",
          "name": "merchantId",
          "type": "uint256"
        },
        {
          "indexed": false,
          "internalType": "uint256",
          "name": "totalAmount",
          "type": "uint256"
        }
      ],
      "name": "PaymentInitiated",
      "type": "event"
    },
    {
      "anonymous": false,
      "inputs": [
        {
          "indexed": true,
          "internalType": "bytes32",
          "name": "paymentId",
          "type": "bytes32"
        },
        {
          "indexed": true,
          "internalType": "address",
          "name": "user",
          "type": "address"
        },
        {
          "indexed": false,
          "internalType": "uint256",
          "name": "amount",
          "type": "uint256"
        }
      ],
      "name": "PaymentRefunded",
      "type": "event"
    },
    {
      "anonymous": false,
      "inputs": [
        {
          "indexed": true,
          "internalType": "bytes32",
          "name": "paymentId",
          "type": "bytes32"
        },
        {
          "indexed": false,
          "internalType": "address",
          "name": "fromToken",
          "type": "address"
        },
        {
          "indexed": false,
          "internalType": "address",
          "name": "toToken",
          "type": "address"
        },
        {
          "indexed": false,
          "internalType": "uint256",
          "name": "amountIn",
          "type": "uint256"
        },
        {
          "indexed": false,
          "internalType": "uint256",
          "name": "amountOut",
          "type": "uint256"
        }
      ],
      "name": "TokensSwapped",
      "type": "event"
    },
    {
      "anonymous": false,
      "inputs": [
        {
          "indexed": false,
          "internalType": "address",
          "name": "account",
          "type": "address"
        }
      ],
      "name": "Unpaused",
      "type": "event"
    },
    {
      "inputs": [],
      "name": "BASIS_POINTS",
      "outputs": [
        {
          "internalType": "uint256",
          "name": "",
          "type": "uint256"
        }
      ],
      "stateMutability": "view",
      "type": "function"
    },
    {
      "inputs": [],
      "name": "PLATFORM_FEE_RATE",
      "outputs": [
        {
          "internalType": "uint256",
          "name": "",
          "type": "uint256"
        }
      ],
      "stateMutability": "view",
      "type": "function"
    },
    {
      "inputs": [],
      "name": "USDC_ADDRESS",
      "outputs": [
        {
          "internalType": "address",
          "name": "",
          "type": "address"
        }
      ],
      "stateMutability": "view",
      "type": "function"
    },
    {
      "inputs": [
        {
          "internalType": "address",
          "name": "",
          "type": "address"
        }
      ],
      "name": "authorizedDelegates",
      "outputs": [
        {
          "internalType": "bool",
          "name": "",
          "type": "bool"
        }
      ],
      "stateMutability": "view",
      "type": "function"
    },
    {
      "inputs": [
        {
          "internalType": "uint256",
          "name": "orderAmount",
          "type": "uint256"
        }
      ],
      "name": "calculateFees",
      "outputs": [
        {
          "internalType": "uint256",
          "name": "",
          "type": "uint256"
        }
      ],
      "stateMutability": "pure",
      "type": "function"
    },
    {
      "inputs": [
        {
          "internalType": "uint256",
          "name": "orderAmount",
          "type": "uint256"
        }
      ],
      "name": "calculateTotalWithFees",
      "outputs": [
        {
          "internalType": "uint256",
          "name": "",
          "type": "uint256"
        }
      ],
      "stateMutability": "pure",
      "type": "function"
    },
    {
      "inputs": [
        {
          "internalType": "address",
          "name": "delegateContract",
          "type": "address"
        },
        {
          "internalType": "uint256",
          "name": "allowanceAmount",
          "type": "uint256"
        }
      ],
      "name": "delegateAllowance",
      "outputs": [],
      "stateMutability": "nonpayable",
      "type": "function"
    },
    {
      "inputs": [
        {
          "internalType": "address",
          "name": "",
          "type": "address"
        },
        {
          "internalType": "address",
          "name": "",
          "type": "address"
        }
      ],
      "name": "delegatedAllowances",
      "outputs": [
        {
          "internalType": "uint256",
          "name": "",
          "type": "uint256"
        }
      ],
      "stateMutability": "view",
      "type": "function"
    },
    {
      "inputs": [
        {
          "internalType": "bytes32",
          "name": "paymentId",
          "type": "bytes32"
        }
      ],
      "name": "depositToEscrow",
      "outputs": [],
      "stateMutability": "nonpayable",
      "type": "function"
    },
    {
      "inputs": [
        {
          "internalType": "address",
          "name": "token",
          "type": "address"
        },
        {
          "internalType": "uint256",
          "name": "amount",
          "type": "uint256"
        }
      ],
      "name": "emergencyWithdraw",
      "outputs": [],
      "stateMutability": "nonpayable",
      "type": "function"
    },
    {
      "inputs": [],
      "name": "escrowContract",
      "outputs": [
        {
          "internalType": "address",
          "name": "",
          "type": "address"
        }
      ],
      "stateMutability": "view",
      "type": "function"
    },
    {
      "inputs": [],
      "name": "feeWallet",
      "outputs": [
        {
          "internalType": "address",
          "name": "",
          "type": "address"
        }
      ],
      "stateMutability": "view",
      "type": "function"
    },
    {
      "inputs": [
        {
          "internalType": "address",
          "name": "user",
          "type": "address"
        },
        {
          "internalType": "address",
          "name": "delegate",
          "type": "address"
        }
      ],
      "name": "getDelegatedAllowance",
      "outputs": [
        {
          "internalType": "uint256",
          "name": "",
          "type": "uint256"
        }
      ],
      "stateMutability": "view",
      "type": "function"
    },
    {
      "inputs": [
        {
          "internalType": "bytes32",
          "name": "paymentId",
          "type": "bytes32"
        }
      ],
      "name": "getPayment",
      "outputs": [
        {
          "components": [
            {
              "internalType": "bytes32",
              "name": "id",
              "type": "bytes32"
            },
            {
              "internalType": "address",
              "name": "user",
              "type": "address"
            },
            {
              "internalType": "uint256",
              "name": "merchantId",
              "type": "uint256"
            },
            {
              "internalType": "uint256",
              "name": "totalAmount",
              "type": "uint256"
            },
            {
              "internalType": "uint256",
              "name": "platformFee",
              "type": "uint256"
            },
            {
              "internalType": "enum CrynkPaymentContract.PaymentStatus",
              "name": "status",
              "type": "uint8"
            },
            {
              "internalType": "uint256",
              "name": "timestamp",
              "type": "uint256"
            },
            {
              "components": [
                {
                  "internalType": "address",
                  "name": "token",
                  "type": "address"
                },
                {
                  "internalType": "uint256",
                  "name": "amount",
                  "type": "uint256"
                },
                {
                  "internalType": "bool",
                  "name": "processed",
                  "type": "bool"
                }
              ],
              "internalType": "struct CrynkPaymentContract.TokenPayment[]",
              "name": "tokenPayments",
              "type": "tuple[]"
            }
          ],
          "internalType": "struct CrynkPaymentContract.Payment",
          "name": "",
          "type": "tuple"
        }
      ],
      "stateMutability": "view",
      "type": "function"
    },
    {
      "inputs": [
        {
          "internalType": "uint256",
          "name": "merchantId",
          "type": "uint256"
        },
        {
          "internalType": "uint256",
          "name": "totalOrderAmount",
          "type": "uint256"
        },
        {
          "internalType": "address[]",
          "name": "tokenAddresses",
          "type": "address[]"
        },
        {
          "internalType": "uint256[]",
          "name": "tokenAmounts",
          "type": "uint256[]"
        }
      ],
      "name": "initiatePayment",
      "outputs": [],
      "stateMutability": "nonpayable",
      "type": "function"
    },
    {
      "inputs": [],
      "name": "owner",
      "outputs": [
        {
          "internalType": "address",
          "name": "",
          "type": "address"
        }
      ],
      "stateMutability": "view",
      "type": "function"
    },
    {
      "inputs": [],
      "name": "paused",
      "outputs": [
        {
          "internalType": "bool",
          "name": "",
          "type": "bool"
        }
      ],
      "stateMutability": "view",
      "type": "function"
    },
    {
      "inputs": [
        {
          "internalType": "bytes32",
          "name": "",
          "type": "bytes32"
        }
      ],
      "name": "payments",
      "outputs": [
        {
          "internalType": "bytes32",
          "name": "id",
          "type": "bytes32"
        },
        {
          "internalType": "address",
          "name": "user",
          "type": "address"
        },
        {
          "internalType": "uint256",
          "name": "merchantId",
          "type": "uint256"
        },
        {
          "internalType": "uint256",
          "name": "totalAmount",
          "type": "uint256"
        },
        {
          "internalType": "uint256",
          "name": "platformFee",
          "type": "uint256"
        },
        {
          "internalType": "enum CrynkPaymentContract.PaymentStatus",
          "name": "status",
          "type": "uint8"
        },
        {
          "internalType": "uint256",
          "name": "timestamp",
          "type": "uint256"
        }
      ],
      "stateMutability": "view",
      "type": "function"
    },
    {
      "inputs": [
        {
          "internalType": "bytes32",
          "name": "paymentId",
          "type": "bytes32"
        }
      ],
      "name": "pullFunds",
      "outputs": [],
      "stateMutability": "nonpayable",
      "type": "function"
    },
    {
      "inputs": [
        {
          "internalType": "bytes32",
          "name": "paymentId",
          "type": "bytes32"
        }
      ],
      "name": "refundFunds",
      "outputs": [],
      "stateMutability": "nonpayable",
      "type": "function"
    },
    {
      "inputs": [
        {
          "internalType": "bytes32",
          "name": "paymentId",
          "type": "bytes32"
        }
      ],
      "name": "releaseFundsFromEscrow",
      "outputs": [],
      "stateMutability": "nonpayable",
      "type": "function"
    },
    {
      "inputs": [],
      "name": "renounceOwnership",
      "outputs": [],
      "stateMutability": "nonpayable",
      "type": "function"
    },
    {
      "inputs": [
        {
          "internalType": "address",
          "name": "delegateContract",
          "type": "address"
        }
      ],
      "name": "revokeAllowance",
      "outputs": [],
      "stateMutability": "nonpayable",
      "type": "function"
    },
    {
      "inputs": [
        {
          "internalType": "address",
          "name": "delegate",
          "type": "address"
        },
        {
          "internalType": "bool",
          "name": "status",
          "type": "bool"
        }
      ],
      "name": "setAuthorizedDelegate",
      "outputs": [],
      "stateMutability": "nonpayable",
      "type": "function"
    },
    {
      "inputs": [
        {
          "internalType": "bytes32",
          "name": "paymentId",
          "type": "bytes32"
        },
        {
          "components": [
            {
              "internalType": "address",
              "name": "fromToken",
              "type": "address"
            },
            {
              "internalType": "uint256",
              "name": "fromAmount",
              "type": "uint256"
            },
            {
              "internalType": "address",
              "name": "toToken",
              "type": "address"
            },
            {
              "internalType": "bytes",
              "name": "swapData",
              "type": "bytes"
            },
            {
              "internalType": "uint256",
              "name": "minAmountOut",
              "type": "uint256"
            }
          ],
          "internalType": "struct CrynkPaymentContract.SwapParams[]",
          "name": "swapParams",
          "type": "tuple[]"
        }
      ],
      "name": "swapToStablecoin",
      "outputs": [],
      "stateMutability": "nonpayable",
      "type": "function"
    },
    {
      "inputs": [],
      "name": "togglePause",
      "outputs": [],
      "stateMutability": "nonpayable",
      "type": "function"
    },
    {
      "inputs": [],
      "name": "totalPaymentsProcessed",
      "outputs": [
        {
          "internalType": "uint256",
          "name": "",
          "type": "uint256"
        }
      ],
      "stateMutability": "view",
      "type": "function"
    },
    {
      "inputs": [
        {
          "internalType": "address",
          "name": "newOwner",
          "type": "address"
        }
      ],
      "name": "transferOwnership",
      "outputs": [],
      "stateMutability": "nonpayable",
      "type": "function"
    },
    {
      "inputs": [
        {
          "internalType": "address",
          "name": "newEscrowContract",
          "type": "address"
        }
      ],
      "name": "updateEscrowContract",
      "outputs": [],
      "stateMutability": "nonpayable",
      "type": "function"
    },
    {
      "inputs": [
        {
          "internalType": "address",
          "name": "newFeeWallet",
          "type": "address"
        }
      ],
      "name": "updateFeeWallet",
      "outputs": [],
      "stateMutability": "nonpayable",
      "type": "function"
    },
    {
      "inputs": [
        {
          "internalType": "uint256",
          "name": "merchantId",
          "type": "uint256"
        },
        {
          "internalType": "bool",
          "name": "status",
          "type": "bool"
        }
      ],
      "name": "updateMerchantStatus",
      "outputs": [],
      "stateMutability": "nonpayable",
      "type": "function"
    },
    {
      "inputs": [
        {
          "internalType": "uint256",
          "name": "",
          "type": "uint256"
        }
      ],
      "name": "validMerchants",
      "outputs": [
        {
          "internalType": "bool",
          "name": "",
          "type": "bool"
        }
      ],
      "stateMutability": "view",
      "type": "function"
    }
  ],
  "bytecode": "0x60806040523480156200001157600080fd5b50604051620027ab380380620027ab8339810160408190526200003491620001b5565b6001600055620000443362000146565b6001805460ff60a01b191690556001600160a01b038216620000a25760405162461bcd60e51b8152602060048201526012602482015271125b9d985b1a5908199959481dd85b1b195d60721b60448201526064015b60405180910390fd5b6001600160a01b038116620000fa5760405162461bcd60e51b815260206004820152601760248201527f496e76616c696420657363726f7720636f6e7472616374000000000000000000604482015260640162000099565b600280546001600160a01b039384166001600160a01b03199182161790915560038054929093169116179055306000908152600860205260409020805460ff19166001179055620001ed565b600180546001600160a01b038381166001600160a01b0319831681179093556040519116919082907f8be0079c531659141344cd1fd0a4f28419497f9722a3daafe3b4186f6b6457e090600090a35050565b80516001600160a01b0381168114620001b057600080fd5b919050565b60008060408385031215620001c957600080fd5b620001d48362000198565b9150620001e46020840162000198565b90509250929050565b6125ae80620001fd6000396000f3fe608060405234801561001057600080fd5b50600436106101f05760003560e01c806388aa45fa1161010f578063c4ae3168116100a2578063e66eefc811610071578063e66eefc8146104a7578063f25f4b56146104c7578063f2fde38b146104da578063fc28bb7b146104ed57600080fd5b8063c4ae316814610470578063d43d91d614610478578063e1f1c4a71461048b578063e42a96e71461049457600080fd5b8063ad11fe44116100de578063ad11fe441461041c578063b4fe2c471461042f578063bb09d9b714610442578063c2c806b91461045d57600080fd5b806388aa45fa146103a65780638da5cb5b146103d157806395ccea67146103f65780639fd701821461040957600080fd5b806349a0180e116101875780635c975abb116101565780635c975abb146103665780636671852414610378578063715018a61461038b5780637a1392451461039357600080fd5b806349a0180e1461030a57806350a4fcb11461032d57806351abf6aa1461034057806352238fdd1461035357600080fd5b806337e32d1d116101c357806337e32d1d146102a85780633dbc0ec2146102b15780633fc4fafc146102e457806347e02380146102f757600080fd5b80630716326d146101f55780630bda17ba1461026a5780631f6cc32b1461028b5780632930fa49146102a0575b600080fd5b61024e610203366004611eee565b6006602081905260009182526040909120805460018201546002830154600384015460048501546005860154959096015493956001600160a01b0390931694919390929160ff169087565b6040516102619796959493929190611f3f565b60405180910390f35b61027d610278366004611fa5565b610500565b604051908152602001610261565b61029e610299366004611eee565b61052d565b005b61027d606481565b61027d60045481565b6102d46102bf366004611fd8565b60086020526000908152604090205460ff1681565b6040519015158152602001610261565b61029e6102f2366004611ff3565b610720565b61029e610305366004611eee565b610819565b6102d4610318366004611eee565b60076020526000908152604090205460ff1681565b61029e61033b366004612069565b610aed565b61029e61034e3660046120ec565b610eef565b61027d610361366004611eee565b6111e5565b600154600160a01b900460ff166102d4565b61029e610386366004611fd8565b6111ff565b61029e611274565b61027d6103a1366004611eee565b611288565b61027d6103b4366004611fa5565b600560209081526000928352604080842090915290825290205481565b6001546001600160a01b03165b6040516001600160a01b039091168152602001610261565b61029e610404366004611ff3565b6112b6565b61029e610417366004611eee565b6112e8565b61029e61042a366004611fd8565b6113d7565b61029e61043d366004611eee565b611491565b6103de73a0b86991c6218b36c1d19d4a2e9eb0ce3606eb4881565b61029e61046b366004612146565b61157f565b61029e6115de565b61029e610486366004612176565b611608565b61027d61271081565b6003546103de906001600160a01b031681565b6104ba6104b5366004611eee565b61163b565b60405161026191906121a2565b6002546103de906001600160a01b031681565b61029e6104e8366004611fd8565b6117a3565b61029e6104fb366004611fd8565b611819565b6001600160a01b038083166000908152600560209081526040808320938516835292905220545b92915050565b3360009081526008602052604090205460ff168061055557506001546001600160a01b031633145b61057a5760405162461bcd60e51b81526004016105719061226b565b60405180910390fd5b610582611899565b60008181526006602052604090206002600582015460ff1660068111156105ab576105ab611f07565b146105c85760405162461bcd60e51b8152600401610571906122a2565b6040516370a0823160e01b815230600482015260009073a0b86991c6218b36c1d19d4a2e9eb0ce3606eb48906370a0823190602401602060405180830381865afa15801561061a573d6000803e3d6000fd5b505050506040513d601f19601f8201168201806040525081019061063e91906122d2565b905081600301548110156106945760405162461bcd60e51b815260206004820152601960248201527f496e73756666696369656e7420555344432062616c616e6365000000000000006044820152606401610571565b60038054908301546106c79173a0b86991c6218b36c1d19d4a2e9eb0ce3606eb48916001600160a01b03909116906118f2565b60058201805460ff1916600390811790915582015460405190815283907f784f5140da215f00698a322a5614ee8fd9b73c60d883244feafdecfdb78178c69060200160405180910390a2505061071d6001600055565b50565b6001600160a01b0382166107695760405162461bcd60e51b815260206004820152601060248201526f496e76616c69642064656c656761746560801b6044820152606401610571565b600081116107b95760405162461bcd60e51b815260206004820152601860248201527f496e76616c696420616c6c6f77616e636520616d6f756e7400000000000000006044820152606401610571565b3360008181526005602090815260408083206001600160a01b03871680855290835292819020859055518481529192917f5528df8091ed37adaad9f64986ba0e9cbbfcec89ca1fd8d54d9c6b6dfce9487a91015b60405180910390a35050565b3360009081526008602052604090205460ff168061084157506001546001600160a01b031633145b61085d5760405162461bcd60e51b81526004016105719061226b565b610865611899565b600081815260066020526040812090600582015460ff16600681111561088d5761088d611f07565b146108aa5760405162461bcd60e51b8152600401610571906122a2565b60006108b98260030154611288565b60018301546001600160a01b0316600090815260056020908152604080832030845290915290205490915081111561092c5760405162461bcd60e51b8152602060048201526016602482015275496e73756666696369656e7420616c6c6f77616e636560501b6044820152606401610571565b6004820154156109ce5760008260070160008154811061094e5761094e6122eb565b600091825260208220600390910201546001600160a01b0316915073a0b86991c6218b36c1d19d4a2e9eb0ce3606eb471982016109a15764e8d4a51000846004015461099a9190612317565b90506109a8565b5060048301545b60018401546002546109cb916001600160a01b0385811692918116911684611955565b50505b60005b6007830154811015610a4e5760008360070182815481106109f4576109f46122eb565b600091825260209091206001808701546003909302909101908101548154919350610a2e926001600160a01b039283169216903090611955565b600201805460ff1916600117905580610a4681612339565b9150506109d1565b5060018201546001600160a01b0316600090815260056020908152604080832030845290915281208054839290610a86908490612352565b909155505060058201805460ff191660019081179091558201546040518281526001600160a01b039091169084907fdc2401d7da82ac39e87d8d8c3684544035f1bf1010487362688da79d940f42919060200160405180910390a3505061071d6001600055565b610af5611899565b610afd611993565b600086815260076020526040902054869060ff16610b505760405162461bcd60e51b815260206004820152601060248201526f125b9d985b1a59081b595c98da185b9d60821b6044820152606401610571565b60008611610b975760405162461bcd60e51b8152602060048201526014602482015273125b9d985b1a59081bdc99195c88185b5bdd5b9d60621b6044820152606401610571565b838214610bde5760405162461bcd60e51b8152602060048201526015602482015274082e4e4c2f240d8cadccee8d040dad2e6dac2e8c6d605b1b6044820152606401610571565b83610c215760405162461bcd60e51b8152602060048201526013602482015272139bc81d1bdad95b9cc81cdc1958da599a5959606a1b6044820152606401610571565b6040516bffffffffffffffffffffffff193360601b16602082015260348101889052605481018790524260748201526000906094016040516020818303038152906040528051906020012090506000610c7988611288565b336000908152600560209081526040808320308452909152902054909150811115610ce65760405162461bcd60e51b815260206004820181905260248201527f496e73756666696369656e742064656c65676174656420616c6c6f77616e63656044820152606401610571565b60008281526006602052604090208281556001810180546001600160a01b03191633179055600281018a905560038101899055612710610d2760648b612365565b610d319190612317565b600482015560058101805460ff1916905542600682015560005b87811015610e86576000878783818110610d6757610d676122eb565b9050602002013511610db25760405162461bcd60e51b8152602060048201526014602482015273125b9d985b1a59081d1bdad95b88185b5bdd5b9d60621b6044820152606401610571565b8160070160405180606001604052808b8b85818110610dd357610dd36122eb565b9050602002016020810190610de89190611fd8565b6001600160a01b03168152602001898985818110610e0857610e086122eb565b60209081029290920135835250600091810182905283546001808201865594835291819020835160039093020180546001600160a01b0319166001600160a01b0390931692909217825582015192810192909255604001516002909101805460ff191691151591909117905580610e7e81612339565b915050610d4b565b5060048054906000610e9783612339565b9091555050604080518b8152602081018b9052339185917f63d31b8aefad53835f8922b8a1ab0ca39574e3f4329b8e50260f35d0edf16876910160405180910390a350505050610ee76001600055565b505050505050565b3360009081526008602052604090205460ff1680610f1757506001546001600160a01b031633145b610f335760405162461bcd60e51b81526004016105719061226b565b610f3b611899565b60008381526006602052604090206001600582015460ff166006811115610f6457610f64611f07565b14610f815760405162461bcd60e51b8152600401610571906122a2565b6000805b838110156111c6576000858583818110610fa157610fa16122eb565b9050602002810190610fb3919061237c565b610fbc9061240c565b80516040516370a0823160e01b81523060048201529192506000916001600160a01b03909116906370a0823190602401602060405180830381865afa158015611009573d6000803e3d6000fd5b505050506040513d601f19601f8201168201806040525081019061102d91906122d2565b905081602001518110156110835760405162461bcd60e51b815260206004820152601a60248201527f496e73756666696369656e7420746f6b656e2062616c616e63650000000000006044820152606401610571565b81516001600160a01b031673a0b86991c6218b36c1d19d4a2e9eb0ce3606eb4719016110c15760208201516110b890856124df565b935050506111b4565b602082015182516110df916001600160a01b039091169030906119e0565b60006110ec836020015190565b905082608001518110156111365760405162461bcd60e51b81526020600482015260116024820152700a6d8d2e0e0c2ceca40e8dede40d0d2ced607b1b6044820152606401610571565b61114081866124df565b8351602080860151604080516001600160a01b03909416845273a0b86991c6218b36c1d19d4a2e9eb0ce3606eb48928401929092528282015260608201849052519196508a917fb36dfaa72dae2b0fd595fe765630ae17fc6520c4e86aa0899243bb61a41e8ce09181900360800190a25050505b806111be81612339565b915050610f85565b5050600501805460ff191660021790556001600055505050565b505050565b60006127106111f5606484612365565b6105279190612317565b611207611af5565b6001600160a01b0381166112525760405162461bcd60e51b8152602060048201526012602482015271125b9d985b1a5908199959481dd85b1b195d60721b6044820152606401610571565b600280546001600160a01b0319166001600160a01b0392909216919091179055565b61127c611af5565b6112866000611b4f565b565b600080612710611299606485612365565b6112a39190612317565b90506112af81846124df565b9392505050565b6112be611af5565b6112e46112d36001546001600160a01b031690565b6001600160a01b03841690836118f2565b5050565b6003546001600160a01b031633146113395760405162461bcd60e51b815260206004820152601460248201527313db9b1e48195cd8dc9bddc818dbdb9d1c9858dd60621b6044820152606401610571565b60008181526006602052604090206003600582015460ff16600681111561136257611362611f07565b1461137f5760405162461bcd60e51b8152600401610571906122a2565b6005818101805460ff19169091179055600181015460038201546040519081526001600160a01b039091169083907f3b28817a65441bed1ac3a5496c6b71346aa302e80c7418c12e1c49eaa17211769060200161080d565b3360009081526005602090815260408083206001600160a01b03851684529091529020546114405760405162461bcd60e51b81526020600482015260166024820152754e6f20616c6c6f77616e636520746f207265766f6b6560501b6044820152606401610571565b3360008181526005602090815260408083206001600160a01b0386168085529252808320839055519092917f8da578e4cb2672c4986388e504a6f639391986195c077e5db9f48e04c97a501b91a350565b6003546001600160a01b031633146114e25760405162461bcd60e51b815260206004820152601460248201527313db9b1e48195cd8dc9bddc818dbdb9d1c9858dd60621b6044820152606401610571565b60008181526006602052604090206003600582015460ff16600681111561150b5761150b611f07565b146115285760405162461bcd60e51b8152600401610571906122a2565b60058101805460ff19166004179055600281015460038201546040519081526001600160a01b039091169083907fa7b31f0f3731da4b3c94c7d84acb277ee788cda12f626e14c6baa74670dc5a079060200161080d565b611587611af5565b600082815260076020908152604091829020805460ff1916841515908117909155915191825283917f4c3c85ee1db6f873aac7b9f6649c49863dd160052b177b1424cbbed53b74d0d5910160405180910390a25050565b6115e6611af5565b600154600160a01b900460ff161561160057611286611ba1565b611286611bf6565b611610611af5565b6001600160a01b03919091166000908152600860205260409020805460ff1916911515919091179055565b611683604080516101008101825260008082526020820181905291810182905260608101829052608081018290529060a0820190815260200160008152602001606081525090565b6000828152600660208181526040928390208351610100810185528154815260018201546001600160a01b0316928101929092526002810154938201939093526003830154606082015260048301546080820152600583015490929160a084019160ff16908111156116f7576116f7611f07565b600681111561170857611708611f07565b81526020016006820154815260200160078201805480602002602001604051908101604052809291908181526020016000905b82821015611795576000848152602090819020604080516060810182526003860290920180546001600160a01b031683526001808201548486015260029091015460ff16151591830191909152908352909201910161173b565b505050915250909392505050565b6117ab611af5565b6001600160a01b0381166118105760405162461bcd60e51b815260206004820152602660248201527f4f776e61626c653a206e6577206f776e657220697320746865207a65726f206160448201526564647265737360d01b6064820152608401610571565b61071d81611b4f565b611821611af5565b6001600160a01b0381166118775760405162461bcd60e51b815260206004820152601760248201527f496e76616c696420657363726f7720636f6e74726163740000000000000000006044820152606401610571565b600380546001600160a01b0319166001600160a01b0392909216919091179055565b6002600054036118eb5760405162461bcd60e51b815260206004820152601f60248201527f5265656e7472616e637947756172643a207265656e7472616e742063616c6c006044820152606401610571565b6002600055565b6040516001600160a01b0383166024820152604481018290526111e090849063a9059cbb60e01b906064015b60408051601f198184030181529190526020810180516001600160e01b03166001600160e01b031990931692909217909152611c39565b6040516001600160a01b038085166024830152831660448201526064810182905261198d9085906323b872dd60e01b9060840161191e565b50505050565b600154600160a01b900460ff16156112865760405162461bcd60e51b815260206004820152601060248201526f14185d5cd8589b194e881c185d5cd95960821b6044820152606401610571565b801580611a5a5750604051636eb1769f60e11b81523060048201526001600160a01b03838116602483015284169063dd62ed3e90604401602060405180830381865afa158015611a34573d6000803e3d6000fd5b505050506040513d601f19601f82011682018060405250810190611a5891906122d2565b155b611ac55760405162461bcd60e51b815260206004820152603660248201527f5361666545524332303a20617070726f76652066726f6d206e6f6e2d7a65726f60448201527520746f206e6f6e2d7a65726f20616c6c6f77616e636560501b6064820152608401610571565b6040516001600160a01b0383166024820152604481018290526111e090849063095ea7b360e01b9060640161191e565b6001546001600160a01b031633146112865760405162461bcd60e51b815260206004820181905260248201527f4f776e61626c653a2063616c6c6572206973206e6f7420746865206f776e65726044820152606401610571565b600180546001600160a01b038381166001600160a01b0319831681179093556040519116919082907f8be0079c531659141344cd1fd0a4f28419497f9722a3daafe3b4186f6b6457e090600090a35050565b611ba9611d0e565b6001805460ff60a01b191690557f5db9ee0a495bf2e6ff9c91a7834c1ba4fdd244a5e8aa4e537bd38aeae4b073aa335b6040516001600160a01b03909116815260200160405180910390a1565b611bfe611993565b6001805460ff60a01b1916600160a01b1790557f62e78cea01bee320cd4e420270b5ea74000d11b0c9f74754ebdbfc544b05a258611bd93390565b6000611c8e826040518060400160405280602081526020017f5361666545524332303a206c6f772d6c6576656c2063616c6c206661696c6564815250856001600160a01b0316611d5e9092919063ffffffff16565b9050805160001480611caf575080806020019051810190611caf91906124f2565b6111e05760405162461bcd60e51b815260206004820152602a60248201527f5361666545524332303a204552433230206f7065726174696f6e20646964206e6044820152691bdd081cdd58d8d9595960b21b6064820152608401610571565b600154600160a01b900460ff166112865760405162461bcd60e51b815260206004820152601460248201527314185d5cd8589b194e881b9bdd081c185d5cd95960621b6044820152606401610571565b6060611d6d8484600085611d75565b949350505050565b606082471015611dd65760405162461bcd60e51b815260206004820152602660248201527f416464726573733a20696e73756666696369656e742062616c616e636520666f6044820152651c8818d85b1b60d21b6064820152608401610571565b600080866001600160a01b03168587604051611df29190612533565b60006040518083038185875af1925050503d8060008114611e2f576040519150601f19603f3d011682016040523d82523d6000602084013e611e34565b606091505b5091509150611e4587838387611e50565b979650505050505050565b60608315611ebf578251600003611eb8576001600160a01b0385163b611eb85760405162461bcd60e51b815260206004820152601d60248201527f416464726573733a2063616c6c20746f206e6f6e2d636f6e74726163740000006044820152606401610571565b5081611d6d565b611d6d8383815115611ed45781518083602001fd5b8060405162461bcd60e51b81526004016105719190612545565b600060208284031215611f0057600080fd5b5035919050565b634e487b7160e01b600052602160045260246000fd5b60078110611f3b57634e487b7160e01b600052602160045260246000fd5b9052565b8781526001600160a01b038716602082015260408101869052606081018590526080810184905260e08101611f7760a0830185611f1d565b8260c083015298975050505050505050565b80356001600160a01b0381168114611fa057600080fd5b919050565b60008060408385031215611fb857600080fd5b611fc183611f89565b9150611fcf60208401611f89565b90509250929050565b600060208284031215611fea57600080fd5b6112af82611f89565b6000806040838503121561200657600080fd5b61200f83611f89565b946020939093013593505050565b60008083601f84011261202f57600080fd5b50813567ffffffffffffffff81111561204757600080fd5b6020830191508360208260051b850101111561206257600080fd5b9250929050565b6000806000806000806080878903121561208257600080fd5b8635955060208701359450604087013567ffffffffffffffff808211156120a857600080fd5b6120b48a838b0161201d565b909650945060608901359150808211156120cd57600080fd5b506120da89828a0161201d565b979a9699509497509295939492505050565b60008060006040848603121561210157600080fd5b83359250602084013567ffffffffffffffff81111561211f57600080fd5b61212b8682870161201d565b9497909650939450505050565b801515811461071d57600080fd5b6000806040838503121561215957600080fd5b82359150602083013561216b81612138565b809150509250929050565b6000806040838503121561218957600080fd5b61219283611f89565b9150602083013561216b81612138565b60006020808352610120830184518285015281850151604060018060a01b038083168288015281880151925060608381890152808901516080890152608089015160a089015260a089015193506121fc60c0890185611f1d565b60c089015160e089810191909152890151610100808a0152805195869052860194600094506101408901905b8086101561225d5786518051851683528881015189840152850151151585830152958701956001959095019490820190612228565b509998505050505050505050565b60208082526017908201527f4e6f7420617574686f72697a65642064656c6567617465000000000000000000604082015260600190565b602080825260169082015275496e76616c6964207061796d656e742073746174757360501b604082015260600190565b6000602082840312156122e457600080fd5b5051919050565b634e487b7160e01b600052603260045260246000fd5b634e487b7160e01b600052601160045260246000fd5b60008261233457634e487b7160e01b600052601260045260246000fd5b500490565b60006001820161234b5761234b612301565b5060010190565b8181038181111561052757610527612301565b808202811582820484141761052757610527612301565b60008235609e1983360301811261239257600080fd5b9190910192915050565b634e487b7160e01b600052604160045260246000fd5b60405160a0810167ffffffffffffffff811182821017156123d5576123d561239c565b60405290565b604051601f8201601f1916810167ffffffffffffffff811182821017156124045761240461239c565b604052919050565b600060a0823603121561241e57600080fd5b6124266123b2565b61242f83611f89565b81526020808401358183015261244760408501611f89565b6040830152606084013567ffffffffffffffff8082111561246757600080fd5b9085019036601f83011261247a57600080fd5b81358181111561248c5761248c61239c565b61249e601f8201601f191685016123db565b915080825236848285010111156124b457600080fd5b8084840185840137600090820190930192909252506060820152608092830135928101929092525090565b8082018082111561052757610527612301565b60006020828403121561250457600080fd5b81516112af81612138565b60005b8381101561252a578181015183820152602001612512565b50506000910152565b6000825161239281846020870161250f565b602081526000825180602084015261256481604085016020870161250f565b601f01601f1916919091016040019291505056fea264697066735822122082d3a79be40d6baf87dd92b1c1fddcfe1564b4237dcacdc708625fc8df86e12c64736f6c63430008140033",
  "linkReferences": {},
  "deployedLinkReferences": {}
}