{
  "_format": "hh-sol-artifact-1",
  "contractName": "CrynkPaymentSplitter",
  "sourceName": "contracts/CrynkPaymentSplitter.sol",
  "abi": [
    {
      "inputs": [
        {
          "internalType": "address",
          "name": "_feeWallet",
          "type": "address"
        },
        {
          "internalType": "address",
          "name": "_usdcAddress",
          "type": "address"
        }
      ],
      "stateMutability": "nonpayable",
      "type": "constructor"
    },
    {
      "anonymous": false,
      "inputs": [
        {
          "indexed": true,
          "internalType": "bytes32",
          "name": "paymentId",
          "type": "bytes32"
        },
        {
          "indexed": true,
          "internalType": "address",
          "name": "user",
          "type": "address"
        },
        {
          "indexed": true,
          "internalType": "address",
          "name": "merchant",
          "type": "address"
        },
        {
          "indexed": false,
          "internalType": "uint256",
          "name": "ethAmount",
          "type": "uint256"
        },
        {
          "indexed": false,
          "internalType": "uint256",
          "name": "platformFeeETH",
          "type": "uint256"
        },
        {
          "indexed": false,
          "internalType": "uint256",
          "name": "merchantAmountETH",
          "type": "uint256"
        }
      ],
      "name": "ETHPaymentReceived",
      "type": "event"
    },
    {
      "anonymous": false,
      "inputs": [
        {
          "indexed": true,
          "internalType": "address",
          "name": "oldWallet",
          "type": "address"
        },
        {
          "indexed": true,
          "internalType": "address",
          "name": "newWallet",
          "type": "address"
        }
      ],
      "name": "FeeWalletUpdated",
      "type": "event"
    },
    {
      "anonymous": false,
      "inputs": [
        {
          "indexed": true,
          "internalType": "address",
          "name": "previousOwner",
          "type": "address"
        },
        {
          "indexed": true,
          "internalType": "address",
          "name": "newOwner",
          "type": "address"
        }
      ],
      "name": "OwnershipTransferred",
      "type": "event"
    },
    {
      "anonymous": false,
      "inputs": [
        {
          "indexed": true,
          "internalType": "bytes32",
          "name": "paymentId",
          "type": "bytes32"
        },
        {
          "indexed": true,
          "internalType": "address",
          "name": "user",
          "type": "address"
        },
        {
          "indexed": true,
          "internalType": "address",
          "name": "merchant",
          "type": "address"
        },
        {
          "indexed": false,
          "internalType": "uint256",
          "name": "totalAmount",
          "type": "uint256"
        },
        {
          "indexed": false,
          "internalType": "uint256",
          "name": "platformFee",
          "type": "uint256"
        },
        {
          "indexed": false,
          "internalType": "uint256",
          "name": "merchantAmount",
          "type": "uint256"
        },
        {
          "indexed": false,
          "internalType": "string",
          "name": "paymentType",
          "type": "string"
        }
      ],
      "name": "PaymentSplit",
      "type": "event"
    },
    {
      "anonymous": false,
      "inputs": [
        {
          "indexed": false,
          "internalType": "uint256",
          "name": "oldRate",
          "type": "uint256"
        },
        {
          "indexed": false,
          "internalType": "uint256",
          "name": "newRate",
          "type": "uint256"
        }
      ],
      "name": "PlatformFeeRateUpdated",
      "type": "event"
    },
    {
      "anonymous": false,
      "inputs": [
        {
          "indexed": true,
          "internalType": "address",
          "name": "oldAddress",
          "type": "address"
        },
        {
          "indexed": true,
          "internalType": "address",
          "name": "newAddress",
          "type": "address"
        }
      ],
      "name": "USDCAddressUpdated",
      "type": "event"
    },
    {
      "inputs": [
        {
          "internalType": "uint256",
          "name": "totalAmount",
          "type": "uint256"
        }
      ],
      "name": "calculateFees",
      "outputs": [
        {
          "internalType": "uint256",
          "name": "platformFee",
          "type": "uint256"
        },
        {
          "internalType": "uint256",
          "name": "merchantAmount",
          "type": "uint256"
        }
      ],
      "stateMutability": "view",
      "type": "function"
    },
    {
      "inputs": [],
      "name": "feeWallet",
      "outputs": [
        {
          "internalType": "address",
          "name": "",
          "type": "address"
        }
      ],
      "stateMutability": "view",
      "type": "function"
    },
    {
      "inputs": [
        {
          "internalType": "bytes32",
          "name": "paymentId",
          "type": "bytes32"
        }
      ],
      "name": "getPayment",
      "outputs": [
        {
          "components": [
            {
              "internalType": "bytes32",
              "name": "id",
              "type": "bytes32"
            },
            {
              "internalType": "address",
              "name": "user",
              "type": "address"
            },
            {
              "internalType": "address",
              "name": "merchant",
              "type": "address"
            },
            {
              "internalType": "uint256",
              "name": "totalAmount",
              "type": "uint256"
            },
            {
              "internalType": "uint256",
              "name": "platformFee",
              "type": "uint256"
            },
            {
              "internalType": "uint256",
              "name": "merchantAmount",
              "type": "uint256"
            },
            {
              "internalType": "uint256",
              "name": "timestamp",
              "type": "uint256"
            },
            {
              "internalType": "bool",
              "name": "completed",
              "type": "bool"
            },
            {
              "internalType": "string",
              "name": "paymentType",
              "type": "string"
            }
          ],
          "internalType": "struct CrynkPaymentSplitter.Payment",
          "name": "",
          "type": "tuple"
        }
      ],
      "stateMutability": "view",
      "type": "function"
    },
    {
      "inputs": [
        {
          "internalType": "bytes32",
          "name": "paymentId",
          "type": "bytes32"
        },
        {
          "internalType": "address",
          "name": "merchant",
          "type": "address"
        },
        {
          "internalType": "uint256",
          "name": "usdcAmount",
          "type": "uint256"
        }
      ],
      "name": "handleSquidUSDCTransfer",
      "outputs": [],
      "stateMutability": "nonpayable",
      "type": "function"
    },
    {
      "inputs": [],
      "name": "owner",
      "outputs": [
        {
          "internalType": "address",
          "name": "",
          "type": "address"
        }
      ],
      "stateMutability": "view",
      "type": "function"
    },
    {
      "inputs": [
        {
          "internalType": "bytes32",
          "name": "",
          "type": "bytes32"
        }
      ],
      "name": "payments",
      "outputs": [
        {
          "internalType": "bytes32",
          "name": "id",
          "type": "bytes32"
        },
        {
          "internalType": "address",
          "name": "user",
          "type": "address"
        },
        {
          "internalType": "address",
          "name": "merchant",
          "type": "address"
        },
        {
          "internalType": "uint256",
          "name": "totalAmount",
          "type": "uint256"
        },
        {
          "internalType": "uint256",
          "name": "platformFee",
          "type": "uint256"
        },
        {
          "internalType": "uint256",
          "name": "merchantAmount",
          "type": "uint256"
        },
        {
          "internalType": "uint256",
          "name": "timestamp",
          "type": "uint256"
        },
        {
          "internalType": "bool",
          "name": "completed",
          "type": "bool"
        },
        {
          "internalType": "string",
          "name": "paymentType",
          "type": "string"
        }
      ],
      "stateMutability": "view",
      "type": "function"
    },
    {
      "inputs": [],
      "name": "platformFeeRate",
      "outputs": [
        {
          "internalType": "uint256",
          "name": "",
          "type": "uint256"
        }
      ],
      "stateMutability": "view",
      "type": "function"
    },
    {
      "inputs": [],
      "name": "renounceOwnership",
      "outputs": [],
      "stateMutability": "nonpayable",
      "type": "function"
    },
    {
      "inputs": [
        {
          "internalType": "bytes32",
          "name": "paymentId",
          "type": "bytes32"
        },
        {
          "internalType": "address payable",
          "name": "merchant",
          "type": "address"
        }
      ],
      "name": "splitETHPayment",
      "outputs": [],
      "stateMutability": "payable",
      "type": "function"
    },
    {
      "inputs": [
        {
          "internalType": "bytes32",
          "name": "paymentId",
          "type": "bytes32"
        },
        {
          "internalType": "address",
          "name": "merchant",
          "type": "address"
        },
        {
          "internalType": "uint256",
          "name": "totalAmount",
          "type": "uint256"
        }
      ],
      "name": "splitPayment",
      "outputs": [],
      "stateMutability": "nonpayable",
      "type": "function"
    },
    {
      "inputs": [
        {
          "internalType": "bytes32",
          "name": "paymentId",
          "type": "bytes32"
        },
        {
          "internalType": "address",
          "name": "merchant",
          "type": "address"
        },
        {
          "internalType": "uint256",
          "name": "merchantAmount",
          "type": "uint256"
        },
        {
          "internalType": "uint256",
          "name": "platformFeeAmount",
          "type": "uint256"
        }
      ],
      "name": "splitPaymentFixed",
      "outputs": [],
      "stateMutability": "nonpayable",
      "type": "function"
    },
    {
      "inputs": [
        {
          "internalType": "address",
          "name": "newOwner",
          "type": "address"
        }
      ],
      "name": "transferOwnership",
      "outputs": [],
      "stateMutability": "nonpayable",
      "type": "function"
    },
    {
      "inputs": [
        {
          "internalType": "address",
          "name": "_newFeeWallet",
          "type": "address"
        }
      ],
      "name": "updateFeeWallet",
      "outputs": [],
      "stateMutability": "nonpayable",
      "type": "function"
    },
    {
      "inputs": [
        {
          "internalType": "uint256",
          "name": "_newRate",
          "type": "uint256"
        }
      ],
      "name": "updatePlatformFeeRate",
      "outputs": [],
      "stateMutability": "nonpayable",
      "type": "function"
    },
    {
      "inputs": [
        {
          "internalType": "address",
          "name": "_newUSDCAddress",
          "type": "address"
        }
      ],
      "name": "updateUSDCAddress",
      "outputs": [],
      "stateMutability": "nonpayable",
      "type": "function"
    },
    {
      "inputs": [],
      "name": "usdcAddress",
      "outputs": [
        {
          "internalType": "address",
          "name": "",
          "type": "address"
        }
      ],
      "stateMutability": "view",
      "type": "function"
    },
    {
      "stateMutability": "payable",
      "type": "receive"
    }
  ],
  "bytecode": "0x608060405260646004553480156200001657600080fd5b50604051620025c8380380620025c88339810160408190526200003991620001b1565b620000443362000144565b600180556001600160a01b038216620000ae5760405162461bcd60e51b815260206004820152602160248201527f4665652077616c6c65742063616e6e6f74206265207a65726f206164647265736044820152607360f81b60648201526084015b60405180910390fd5b6001600160a01b038116620001125760405162461bcd60e51b815260206004820152602360248201527f5553444320616464726573732063616e6e6f74206265207a65726f206164647260448201526265737360e81b6064820152608401620000a5565b600380546001600160a01b039384166001600160a01b03199182161790915560028054929093169116179055620001e9565b600080546001600160a01b038381166001600160a01b0319831681178455604051919092169283917f8be0079c531659141344cd1fd0a4f28419497f9722a3daafe3b4186f6b6457e09190a35050565b80516001600160a01b0381168114620001ac57600080fd5b919050565b60008060408385031215620001c557600080fd5b620001d08362000194565b9150620001e06020840162000194565b90509250929050565b6123cf80620001f96000396000f3fe6080604052600436106100f75760003560e01c80637d81c4c11161008a578063eeca08f011610059578063eeca08f01461056f578063f25f4b5614610593578063f2fde38b146105b3578063f7e964fb146105d357600080fd5b80637d81c4c1146104e45780638da5cb5b14610504578063ae3b7f0614610522578063e66eefc81461054257600080fd5b806352238fdd116100c657806352238fdd14610467578063667185241461049c5780636c725455146104bc578063715018a6146104cf57600080fd5b8063022be0d1146103b357806302d45457146103d55780630716326d146104125780631109a9551461044757600080fd5b366103ae57604080514260208201526bffffffffffffffffffffffff193360601b1691810191909152346054820152600090607401604051602081830303815290604052805190602001209050600034905060006127106004548361015c9190611e3d565b6101669190611e5a565b905060006101748284611e7c565b9050604051806101200160405280858152602001336001600160a01b03168152602001600360009054906101000a90046001600160a01b03166001600160a01b031681526020018481526020018381526020018281526020014281526020016001151581526020016040518060400160405280600381526020016208aa8960eb1b815250815250600560008681526020019081526020016000206000820151816000015560208201518160010160006101000a8154816001600160a01b0302191690836001600160a01b0316021790555060408201518160020160006101000a8154816001600160a01b0302191690836001600160a01b03160217905550606082015181600301556080820151816004015560a0820151816005015560c0820151816006015560e08201518160070160006101000a81548160ff0219169083151502179055506101008201518160080190816102d09190611f2d565b5050600354604051600092506001600160a01b039091169085908381818185875af1925050503d8060008114610322576040519150601f19603f3d011682016040523d82523d6000602084013e610327565b606091505b505090508061036f5760405162461bcd60e51b815260206004820152600f60248201526e151c985b9cd9995c8819985a5b1959608a1b60448201526064015b60405180910390fd5b6003546040516001600160a01b03909116903390879060008051602061237a833981519152906103a490899089908990611fed565b60405180910390a4005b600080fd5b3480156103bf57600080fd5b506103d36103ce366004612033565b6105f3565b005b3480156103e157600080fd5b506002546103f5906001600160a01b031681565b6040516001600160a01b0390911681526020015b60405180910390f35b34801561041e57600080fd5b5061043261042d36600461206b565b6109ec565b604051610409999897969594939291906120d4565b34801561045357600080fd5b506103d3610462366004612137565b610ad2565b34801561047357600080fd5b5061048761048236600461206b565b610e83565b60408051928352602083019190915201610409565b3480156104a857600080fd5b506103d36104b7366004612174565b610eb4565b6103d36104ca366004612198565b610f6e565b3480156104db57600080fd5b506103d361138d565b3480156104f057600080fd5b506103d36104ff366004612174565b6113a1565b34801561051057600080fd5b506000546001600160a01b03166103f5565b34801561052e57600080fd5b506103d361053d36600461206b565b61145d565b34801561054e57600080fd5b5061056261055d36600461206b565b6114fc565b60405161040991906121c8565b34801561057b57600080fd5b5061058560045481565b604051908152602001610409565b34801561059f57600080fd5b506003546103f5906001600160a01b031681565b3480156105bf57600080fd5b506103d36105ce366004612174565b61167f565b3480156105df57600080fd5b506103d36105ee366004612033565b6116f8565b600081116106515760405162461bcd60e51b815260206004820152602560248201527f5553444320616d6f756e74206d7573742062652067726561746572207468616e604482015264207a65726f60d81b6064820152608401610366565b6001600160a01b0382166106775760405162461bcd60e51b81526004016103669061225c565b6002546040516370a0823160e01b81523060048201526001600160a01b0390911690829082906370a0823190602401602060405180830381865afa1580156106c3573d6000803e3d6000fd5b505050506040513d601f19601f820116820180604052508101906106e79190612293565b10156107355760405162461bcd60e51b815260206004820152601a60248201527f496e73756666696369656e7420555344432072656365697665640000000000006044820152606401610366565b6000612710600454846107489190611e3d565b6107529190611e5a565b905060006107608285611e7c565b9050604051806101200160405280878152602001336001600160a01b03168152602001866001600160a01b03168152602001858152602001838152602001828152602001428152602001600115158152602001604051806040016040528060048152602001635553444360e01b815250815250600560008881526020019081526020016000206000820151816000015560208201518160010160006101000a8154816001600160a01b0302191690836001600160a01b0316021790555060408201518160020160006101000a8154816001600160a01b0302191690836001600160a01b03160217905550606082015181600301556080820151816004015560a0820151816005015560c0820151816006015560e08201518160070160006101000a81548160ff0219169083151502179055506101008201518160080190816108a89190611f2d565b50508215905061092b5760035460405163a9059cbb60e01b81526001600160a01b039182166004820152602481018490529084169063a9059cbb906044016020604051808303816000875af1158015610905573d6000803e3d6000fd5b505050506040513d601f19601f8201168201806040525081019061092991906122ac565b505b80156109a65760405163a9059cbb60e01b81526001600160a01b0386811660048301526024820183905284169063a9059cbb906044016020604051808303816000875af1158015610980573d6000803e3d6000fd5b505050506040513d601f19601f820116820180604052508101906109a491906122ac565b505b846001600160a01b0316336001600160a01b03168760008051602061237a8339815191528786866040516109dc939291906122ce565b60405180910390a4505050505050565b600560208190526000918252604090912080546001820154600283015460038401546004850154958501546006860154600787015460088801805497996001600160a01b0397881699979096169794969394929360ff90921692610a4f90611ea5565b80601f0160208091040260200160405190810160405280929190818152602001828054610a7b90611ea5565b8015610ac85780601f10610a9d57610100808354040283529160200191610ac8565b820191906000526020600020905b815481529060010190602001808311610aab57829003601f168201915b5050505050905089565b610ada611a65565b6001600160a01b038316610b005760405162461bcd60e51b81526004016103669061225c565b60008211610b625760405162461bcd60e51b815260206004820152602960248201527f4d65726368616e7420616d6f756e74206d7573742062652067726561746572206044820152687468616e207a65726f60b81b6064820152608401610366565b60008111610bc15760405162461bcd60e51b815260206004820152602660248201527f506c6174666f726d20666565206d7573742062652067726561746572207468616044820152656e207a65726f60d01b6064820152608401610366565b60008481526005602052604090206007015460ff1615610bf35760405162461bcd60e51b815260040161036690612300565b6000610bff8284612337565b6002546040516370a0823160e01b81523360048201529192506001600160a01b031690829082906370a0823190602401602060405180830381865afa158015610c4c573d6000803e3d6000fd5b505050506040513d601f19601f82011682018060405250810190610c709190612293565b1015610cba5760405162461bcd60e51b8152602060048201526019602482015278496e73756666696369656e7420555344432062616c616e636560381b6044820152606401610366565b604051806101200160405280878152602001336001600160a01b03168152602001866001600160a01b03168152602001838152602001848152602001858152602001428152602001600115158152602001604051806040016040528060048152602001635553444360e01b815250815250600560008881526020019081526020016000206000820151816000015560208201518160010160006101000a8154816001600160a01b0302191690836001600160a01b0316021790555060408201518160020160006101000a8154816001600160a01b0302191690836001600160a01b03160217905550606082015181600301556080820151816004015560a0820151816005015560c0820151816006015560e08201518160070160006101000a81548160ff021916908315150217905550610100820151816008019081610e009190611f2d565b5050600354610e1f91506001600160a01b038381169133911686611abe565b610e346001600160a01b038216338787611abe565b846001600160a01b0316336001600160a01b03168760008051602061237a833981519152858789604051610e6a939291906122ce565b60405180910390a45050610e7d60018055565b50505050565b60008061271060045484610e979190611e3d565b610ea19190611e5a565b9150610ead8284611e7c565b9050915091565b610ebc611b18565b6001600160a01b038116610f1c5760405162461bcd60e51b815260206004820152602160248201527f4665652077616c6c65742063616e6e6f74206265207a65726f206164647265736044820152607360f81b6064820152608401610366565b600380546001600160a01b038381166001600160a01b0319831681179093556040519116919082907f362a006325d32978b283e449d254cfcf93e2cccc321603ead9a74238d8dbf36e90600090a35050565b610f76611a65565b6001600160a01b038116610f9c5760405162461bcd60e51b81526004016103669061225c565b60003411610ff85760405162461bcd60e51b8152602060048201526024808201527f45544820616d6f756e74206d7573742062652067726561746572207468616e206044820152637a65726f60e01b6064820152608401610366565b60008281526005602052604090206007015460ff161561102a5760405162461bcd60e51b815260040161036690612300565b6004543490600090612710906110409084611e3d565b61104a9190611e5a565b905060006110588284611e7c565b9050604051806101200160405280868152602001336001600160a01b03168152602001856001600160a01b031681526020018481526020018381526020018281526020014281526020016001151581526020016040518060400160405280600381526020016208aa8960eb1b815250815250600560008781526020019081526020016000206000820151816000015560208201518160010160006101000a8154816001600160a01b0302191690836001600160a01b0316021790555060408201518160020160006101000a8154816001600160a01b0302191690836001600160a01b03160217905550606082015181600301556080820151816004015560a0820151816005015560c0820151816006015560e08201518160070160006101000a81548160ff02191690831515021790555061010082015181600801908161119f9190611f2d565b505082159050611244576003546040516000916001600160a01b03169084908381818185875af1925050503d80600081146111f6576040519150601f19603f3d011682016040523d82523d6000602084013e6111fb565b606091505b50509050806112425760405162461bcd60e51b8152602060048201526013602482015272119959481d1c985b9cd9995c8819985a5b1959606a1b6044820152606401610366565b505b80156112ef576000846001600160a01b03168260405160006040518083038185875af1925050503d8060008114611297576040519150601f19603f3d011682016040523d82523d6000602084013e61129c565b606091505b50509050806112ed5760405162461bcd60e51b815260206004820152601860248201527f4d65726368616e74207472616e73666572206661696c656400000000000000006044820152606401610366565b505b836001600160a01b0316336001600160a01b03168660008051602061237a83398151915286868660405161132593929190611fed565b60405180910390a460408051848152602081018490529081018290526001600160a01b03851690339087907f3a82561315580e385c5d13114c5dade2040659328ead21f91f236f6fa448f0f49060600160405180910390a450505061138960018055565b5050565b611395611b18565b61139f6000611b72565b565b6113a9611b18565b6001600160a01b03811661140b5760405162461bcd60e51b815260206004820152602360248201527f5553444320616464726573732063616e6e6f74206265207a65726f206164647260448201526265737360e81b6064820152608401610366565b600280546001600160a01b038381166001600160a01b0319831681179093556040519116919082907fd6f103212e42c9ad7ce0b1d967e2f8b8cf8385a9220c0dc52c5c2fe9f6925f8f90600090a35050565b611465611b18565b6103e88111156114b75760405162461bcd60e51b815260206004820152601a60248201527f46656520726174652063616e6e6f7420657863656564203130250000000000006044820152606401610366565b600480549082905560408051828152602081018490527fa82b850e6100ae23c7e82adbdcf4da8a3740c1540a6241792521a80179a892dc910160405180910390a15050565b6115626040518061012001604052806000801916815260200160006001600160a01b0316815260200160006001600160a01b0316815260200160008152602001600081526020016000815260200160008152602001600015158152602001606081525090565b6000828152600560208181526040928390208351610120810185528154815260018201546001600160a01b039081169382019390935260028201549092169382019390935260038301546060820152600483015460808201529082015460a0820152600682015460c0820152600782015460ff16151560e0820152600882018054919291610100840191906115f690611ea5565b80601f016020809104026020016040519081016040528092919081815260200182805461162290611ea5565b801561166f5780601f106116445761010080835404028352916020019161166f565b820191906000526020600020905b81548152906001019060200180831161165257829003601f168201915b5050505050815250509050919050565b611687611b18565b6001600160a01b0381166116ec5760405162461bcd60e51b815260206004820152602660248201527f4f776e61626c653a206e6577206f776e657220697320746865207a65726f206160448201526564647265737360d01b6064820152608401610366565b6116f581611b72565b50565b611700611a65565b6001600160a01b0382166117265760405162461bcd60e51b81526004016103669061225c565b600081116117765760405162461bcd60e51b815260206004820181905260248201527f416d6f756e74206d7573742062652067726561746572207468616e207a65726f6044820152606401610366565b60008381526005602052604090206007015460ff16156117a85760405162461bcd60e51b815260040161036690612300565b6002546040516370a0823160e01b81523360048201526001600160a01b0390911690829082906370a0823190602401602060405180830381865afa1580156117f4573d6000803e3d6000fd5b505050506040513d601f19601f820116820180604052508101906118189190612293565b10156118625760405162461bcd60e51b8152602060048201526019602482015278496e73756666696369656e7420555344432062616c616e636560381b6044820152606401610366565b6000612710600454846118759190611e3d565b61187f9190611e5a565b9050600061188d8285611e7c565b9050604051806101200160405280878152602001336001600160a01b03168152602001866001600160a01b03168152602001858152602001838152602001828152602001428152602001600115158152602001604051806040016040528060048152602001635553444360e01b815250815250600560008881526020019081526020016000206000820151816000015560208201518160010160006101000a8154816001600160a01b0302191690836001600160a01b0316021790555060408201518160020160006101000a8154816001600160a01b0302191690836001600160a01b03160217905550606082015181600301556080820151816004015560a0820151816005015560c0820151816006015560e08201518160070160006101000a81548160ff0219169083151502179055506101008201518160080190816119d59190611f2d565b5050821590506119fb576003546119fb906001600160a01b038581169133911685611abe565b8015611a1657611a166001600160a01b038416338784611abe565b846001600160a01b0316336001600160a01b03168760008051602061237a833981519152878686604051611a4c939291906122ce565b60405180910390a4505050611a6060018055565b505050565b600260015403611ab75760405162461bcd60e51b815260206004820152601f60248201527f5265656e7472616e637947756172643a207265656e7472616e742063616c6c006044820152606401610366565b6002600155565b604080516001600160a01b0385811660248301528416604482015260648082018490528251808303909101815260849091019091526020810180516001600160e01b03166323b872dd60e01b179052610e7d908590611bc2565b6000546001600160a01b0316331461139f5760405162461bcd60e51b815260206004820181905260248201527f4f776e61626c653a2063616c6c6572206973206e6f7420746865206f776e65726044820152606401610366565b600080546001600160a01b038381166001600160a01b0319831681178455604051919092169283917f8be0079c531659141344cd1fd0a4f28419497f9722a3daafe3b4186f6b6457e09190a35050565b6000611c17826040518060400160405280602081526020017f5361666545524332303a206c6f772d6c6576656c2063616c6c206661696c6564815250856001600160a01b0316611c979092919063ffffffff16565b9050805160001480611c38575080806020019051810190611c3891906122ac565b611a605760405162461bcd60e51b815260206004820152602a60248201527f5361666545524332303a204552433230206f7065726174696f6e20646964206e6044820152691bdd081cdd58d8d9595960b21b6064820152608401610366565b6060611ca68484600085611cae565b949350505050565b606082471015611d0f5760405162461bcd60e51b815260206004820152602660248201527f416464726573733a20696e73756666696369656e742062616c616e636520666f6044820152651c8818d85b1b60d21b6064820152608401610366565b600080866001600160a01b03168587604051611d2b919061234a565b60006040518083038185875af1925050503d8060008114611d68576040519150601f19603f3d011682016040523d82523d6000602084013e611d6d565b606091505b5091509150611d7e87838387611d89565b979650505050505050565b60608315611df8578251600003611df1576001600160a01b0385163b611df15760405162461bcd60e51b815260206004820152601d60248201527f416464726573733a2063616c6c20746f206e6f6e2d636f6e74726163740000006044820152606401610366565b5081611ca6565b611ca68383815115611e0d5781518083602001fd5b8060405162461bcd60e51b81526004016103669190612366565b634e487b7160e01b600052601160045260246000fd5b8082028115828204841417611e5457611e54611e27565b92915050565b600082611e7757634e487b7160e01b600052601260045260246000fd5b500490565b81810381811115611e5457611e54611e27565b634e487b7160e01b600052604160045260246000fd5b600181811c90821680611eb957607f821691505b602082108103611ed957634e487b7160e01b600052602260045260246000fd5b50919050565b601f821115611a6057600081815260208120601f850160051c81016020861015611f065750805b601f850160051c820191505b81811015611f2557828155600101611f12565b505050505050565b815167ffffffffffffffff811115611f4757611f47611e8f565b611f5b81611f558454611ea5565b84611edf565b602080601f831160018114611f905760008415611f785750858301515b600019600386901b1c1916600185901b178555611f25565b600085815260208120601f198616915b82811015611fbf57888601518255948401946001909101908401611fa0565b5085821015611fdd5787850151600019600388901b60f8161c191681555b5050505050600190811b01905550565b928352602083019190915260408201526080606082018190526003908201526208aa8960eb1b60a082015260c00190565b6001600160a01b03811681146116f557600080fd5b60008060006060848603121561204857600080fd5b83359250602084013561205a8161201e565b929592945050506040919091013590565b60006020828403121561207d57600080fd5b5035919050565b60005b8381101561209f578181015183820152602001612087565b50506000910152565b600081518084526120c0816020860160208601612084565b601f01601f19169290920160200192915050565b60006101208b835260018060a01b03808c166020850152808b166040850152508860608401528760808401528660a08401528560c084015284151560e084015280610100840152612127818401856120a8565b9c9b505050505050505050505050565b6000806000806080858703121561214d57600080fd5b84359350602085013561215f8161201e565b93969395505050506040820135916060013590565b60006020828403121561218657600080fd5b81356121918161201e565b9392505050565b600080604083850312156121ab57600080fd5b8235915060208301356121bd8161201e565b809150509250929050565b6020815281516020820152600060208301516121ef60408401826001600160a01b03169052565b5060408301516001600160a01b03811660608401525060608301516080830152608083015160a083015260a083015160c083015260c083015160e083015260e08301516101006122428185018315159052565b840151610120848101529050611ca66101408401826120a8565b6020808252601f908201527f4d65726368616e7420616464726573732063616e6e6f74206265207a65726f00604082015260600190565b6000602082840312156122a557600080fd5b5051919050565b6000602082840312156122be57600080fd5b8151801515811461219157600080fd5b92835260208301919091526040820152608060608201819052600490820152635553444360e01b60a082015260c00190565b60208082526019908201527f5061796d656e7420616c726561647920636f6d706c6574656400000000000000604082015260600190565b80820180821115611e5457611e54611e27565b6000825161235c818460208701612084565b9190910192915050565b60208152600061219160208301846120a856fef37b729847087a10343811003ff38fb510b21a73b8b10b2d33d75a244d1c8327a2646970667358221220ae8e557fb35333fa671faf4b9e35d925519c5ffad29fe9397c31b297a7ef799e64736f6c63430008140033",
  "linkReferences": {},
  "deployedLinkReferences": {}
}